:100000000BC100003AC1000038C1000036C1000039
:1000100034C1000032C1000030C100002EC1000018
:100020002CC100002AC1000028C1000026C1000028
:1000300024C1000022C1000020C100001EC1000038
:100040001CC100001AC1000018C1000016C1000048
:1000500014C1000012C1000010C100000C94850BF7
:100060000CC100000C9436080C946C0806C100000A
:1000700004C1000002C1000000C10000FEC0000079
:10008000FCC00000FAC00000F8C00000F6C000008C
:100090000C94E1080C941709F0C00000EEC00000B9
:1000A000ECC00000EAC00000E8C00000E6C00000AC
:1000B000E4C00000E2C00000E0C00000DEC00000BC
:1000C000DCC00000DAC00000D8C000000C948C092D
:1000D0000C94C209D2C00000D0C00000CEC0000005
:1000E000CCC000009D0CA00C8F0C930C990CD70C6D
:1000F000A40CA80CAE0CB20CB60CBC0CC00CC40CFE
:10010000D70CCA0CCE0CD20C00000A0B02090C0D45
:100110000E080703040100000000000000000000BA
:1001200000000000000000000000000000000000CF
:10013000000000001211100000000000000000008C
:1001400000000000000000000000000000000102AC
:1001500010202008081020401020408002010201D9
:100160000804020101020408102040808040201091
:1001700008040201800402018040201008040201EA
:100180000804020101020408102040800102040852
:10019000102040800505050507050808080802022B
:1001A00002020A0A08080404040401010101010111
:1001B00001010303030303030303040707070C0CF4
:1001C0000C0C0C0C0C0C02020202060606060606BB
:1001D00006060B0B0B0B0B0B0B0B00002200250074
:1001E00028002B002E003100340002010000050120
:1001F00008010B0100002100240027002A002D0027
:100200003000330001010000040107010A01C901A7
:100210009E084909F409210211241FBECFEFD1E243
:10022000DEBFCDBF00E00CBF16E0A0E0B2E0ECE125
:10023000F3E200E00BBF02C007900D92A433B107B8
:10024000D9F72EE0A4E3B6E001C01D92A232B207B6
:10025000E1F712E0C6E1D2E000E006C02297010912
:10026000FE010BBF0E946F0DCE30D10780E0080762
:10027000A9F70E94770B0C947D11C2CE2AE0E8E02A
:10028000F2E0DC0101900D922A95E1F72AE0E2E12B
:10029000F2E0DC011A9601900D922A95E1F72AE02E
:1002A000ECE1F2E0DC01549601900D922A95E1F721
:1002B0002AE0E6E2F2E0DC015E9601900D922A95DA
:1002C000E1F7089526E040E052EC61E070E08EE353
:1002D0009CE06CD668EE73E080E090E00E94FE0B3C
:1002E00060E372E08EE39CE00E94800A64EF71E0BC
:1002F00080E090E00E94FE0B84E396E00ED461E083
:10030000809106020C94110DCF93DF9367E472E0A5
:100310008EE39CE00E94800A8CEB96E018D2EC0100
:1003200063E572E08EE39CE00E94750A209731F14C
:1003300080E692E09093B3068093B20684EC92E25A
:100340009093B5068093B4068EE692E09093B7063C
:100350008093B606D093B906C093B806FE0101900B
:100360000020E9F73197EC1BFD0BF093BB06E093FF
:10037000BA0662EB76E084E396E0BED4CE010E943A
:10038000840B64E670E080E090E0DF91CF910C9404
:10039000FE0B8EEB96E072DF8FE090E09093E70625
:1003A0008093E60683E190E09093E9068093E80667
:1003B0008BED9CE09093BD068093BC0626E040E068
:1003C00052EC61E070E0F2D58EE992E0909347063E
:1003D0008093460688EA92E0909349068093480607
:1003E00084EE95E09093B1068093B00688E79DE097
:1003F000909335068093340680E092ECA1E0B0E063
:100400008093360690933706A0933806B09339064A
:100410008BEC92E0909341068093400680ED92E051
:10042000909343068093420684ED92E090934B06AE
:1004300080934A0685E296E09093450680934406B1
:1004400008958AEE96E00E940B0E8AE297E00C94E3
:100450000B0EEF92FF920F931F93CF93DF938B01BD
:100460007A01DC018D919C91DC01ED91FC9102807F
:10047000F381E02D199566ED72E08EE39CE00E9419
:10048000750AE801CE01801B910B8E159F0574F44F
:1004900063EE72E08EE39CE00E94750A699140E190
:1004A00050E08EE39CE00E94700BECCF60E08EE3A6
:1004B0009CE0DF91CF911F910F91FF90EF900C94F2
:1004C000900A4F925F927F928F929F92AF92BF92CB
:1004D000CF92DF92EF92FF920F931F93CF93DF9310
:1004E000EC0167EE72E08EE39CE00E94800A5E0100
:1004F0008EE6A80EB11C44E155E06FEF70E0C50137
:100500000E949A0E0E94CF0B6B017C01BE01605EBF
:100510007F4F4AE050E0CE019CDF712C00E010E0FC
:10052000A0EDCA0EA7E0DA1EE11CF11C0E94CF0B61
:100530006C157D058E059F0570F5043185E0180763
:1005400054F588819981DC01ED91FC910480F5815D
:10055000E02D19952C011816190644F748018881D9
:100560009981DC01ED91FC910680F781E02D1995D0
:10057000FE01E80DF91DE259FF4F8083BFEF8B1A92
:100580009B0AC401801B910B8415950544F37724C5
:1005900073948401CBCF6FEE72E08EE39CE0B0D712
:1005A000772069F088E29AE00E94830BD82FC92F48
:1005B00044E155E0B501B7D38D2F9C2F02C080E0F8
:1005C00090E0DF91CF911F910F91FF90EF90DF901E
:1005D000CF90BF90AF909F908F907F905F904F9003
:1005E0000895FF920F931F93CF93DF93EC018881BF
:1005F0009981DC01ED91FC910480F581E02D199544
:10060000892B59F46EE28EE39CE070D765E070E0D0
:1006100080E090E00E94FE0BEACF60E08EE39CE079
:100620007FD780E4FE01BE96DF011D928A95E9F72F
:1006300088819981DC01ED91FC910480F581E02DA8
:1006400019958C0166EF72E08EE39CE04ED74AE08C
:1006500050E0B8018EE39CE00E943E0B88819981B6
:10066000DC01ED91FC910480F581E02D1995892B39
:10067000C1F088819981DC01ED91FC910680F781C0
:10068000E02D1995F82E8EA763EE72E08EE39CE0C4
:100690002CD740E150E06F2D8EE39CE00E94700B60
:1006A000DDCF60E08EE39CE03BD7C801DF91CF91C6
:1006B0001F910F91FF900895CF93DF93EC016CE0B1
:1006C00073E08EE39CE01CD7BE016A5E7F4F4AE078
:1006D00050E0CE01BEDECE0184DF2CA53DA5821701
:1006E000930749F468E173E08EE39CE009D7CE01FB
:1006F000DF91CF91E6CE80E090E0DF91CF91089539
:100700000F931F93CF93DF93EC016DE273E08EE3C1
:100710009CE0F6D6CE0165DF8C018EE39CE0EDD641
:100720008AA59BA50817190759F46BE373E08EE3BC
:100730009CE0E6D6CE01DF91CF911F910F91BCCF07
:1007400080E090E0DF91CF911F910F910895CF93BA
:10075000DF93EC016AE573E08EE39CE0D1D6BE0145
:100760006E5F7F4F4AE050E0CE0173DE63E673E0D8
:100770008EE39CE0C5D6CE0134DF6AE070E080E015
:1007800090E00E94FE0B60E773E08EE39CE0B8D639
:10079000BE01645F7F4F4AE050E0CE015ADECE01D9
:1007A000DF91CF91ADCF6AE773E08EE39CE0A8D6EE
:1007B00061E082E00E94D80C61E082E00C94110DAF
:1007C0004F925F926F927F928F929F92AF92BF9261
:1007D000CF92DF92EF92FF920F931F93CF93DF930D
:1007E000EC012A013B0149015C0128E1A20EB11C88
:1007F00044E650E06FEF70E0C5010E949A0ECFD73B
:10080000688779878A879B876AE873E08EE39CE034
:100810006CD6C12CD12C760100E010E0C414D504B4
:10082000E604F7040CF044C0BAD76B017C0188855C
:100830009985AA85BB85C81AD90AEA0AFB0A043633
:10084000110534F060E973E08EE39CE059D630C0C6
:1008500088819981DC01ED91FC910680F781E02D82
:1008600019958F3FBFEF9B0759F467EA73E08EE35A
:100870009CE03BD662E070E080E090E0BFD7CECF56
:10088000FE01E00FF11F808F682F8EE39CE02ED6D3
:100890000F5F1F4FB401C5010E94A10E892B09F4FF
:1008A000BDCF69EA73E08EE39CE02AD6C1E00DC0BB
:1008B00062EB73E08EE39CE018D62AE030E0B701EB
:1008C000A6018EE39CE0F0D6C0E08EE39CE015D656
:1008D0008C2FDF91CF911F910F91FF90EF90DF90C0
:1008E000CF90BF90AF909F908F907F906F905F90D0
:1008F0004F9008954F925F926F927F92AF92BF9206
:10090000CF92DF92EF920F931F93CF93DF93EC017F
:100910006B015A012801390188819981F1D58881BB
:100920009981DC01ED91FC910284F385E02D19950C
:1009300066ED73E08EE39CE0D8D5B6018EE39CE0D3
:10094000D4D58EE39CE0D9D59501B301A201CE01A7
:1009500037DF182F8EE39CE0D0D5111128C0EE2090
:10096000B1F060ED77E080E090E048D76BED73E0A8
:100970008EE39CE0BAD5B6018EE39CE0C1D5EE24AF
:10098000E39493018201A501B601CE01B3DF8EE3AA
:100990009CE0DF91CF911F910F91EF90DF90CF906E
:1009A000BF90AF907F906F905F904F90A6C5DF9102
:1009B000CF911F910F91EF90DF90CF90BF90AF90AC
:1009C0007F906F905F904F900895CF92DF92EF925B
:1009D0000F931F93CF93DF93EC0169EE73E08EE3E7
:1009E0009CE08ED54A815B816C817D8126E0888187
:1009F0009981DCD2CE01D7DE64EF71E080E090E037
:100A0000FDD66E018CE7C80ED11CF60140815181E4
:100A1000EE24E39408EB1BE020E030E06DEF73E0A0
:100A2000CE0168DF60ED77E080E090E0E7D6F60188
:100A30004081518108EB1BE020E030E060E074E091
:100A4000CE0158DF60ED77E080E090E0D7D6F60188
:100A50004081518108E91AE320E030E06BE074E066
:100A6000CE0148DF60ED77E080E090E0C7D6F60188
:100A70004081518108E91AE320E030E067E174E049
:100A8000CE0138DF68EB7BE080E090E0B7D6F6017E
:100A90004081518108E91AE320E030E062E274E02D
:100AA000CE0128DF60ED77E080E090E0A7D6F60188
:100AB0004081518108E91AE320E030E06AE374E004
:100AC000CE0118DF60ED77E080E090E097D6F60188
:100AD0004081518108EA11E620E030E067E474E0EB
:100AE000CE0108DF60ED77E080E090E087D608E98E
:100AF0001AE320E030E047EA53E060E574E0CE011D
:100B0000F9DE69E574E08EE39CE0DF91CF911F91FF
:100B10000F91EF90DF90CF90F3C4CF92DF92EF92DE
:100B20000F931F93CF93DF93EC014FDF68EE73E0D9
:100B300080E090E063D66E018CE7C80ED11CF60110
:100B400040815181EE24E39408E91AE320E030E08B
:100B50006EE674E0CE01CEDE68EE73E080E090E0F9
:100B60004DD6F6014081518108E91AE320E030E0DA
:100B70006CE874E0CE01BEDEF60140815181E12CCB
:100B800008EE13E020E030E06AE974E0CE01B2DE66
:100B9000F60140815181EE24E39408E91AE320E054
:100BA00030E066EA74E0CE01A5DEDF91CF911F91BF
:100BB0000F91EF90DF90CF900895CF93DF93EC01EA
:100BC00064ED74E08EE39CE09BD488819981DC0124
:100BD000ED91FC910480F581E02D1995892B71F040
:100BE00088819981DC01ED91FC910680F781E02DEF
:100BF0001995682F8EE39CE079D4E7CFDF91CF91F0
:100C00000895EF920F931F93FC01E458FF4F40812A
:100C10005181EE24E39408E91AE320E030E066EF26
:100C200074E068DE1F910F91EF900895EF920F939B
:100C30001F93EE24E39408E91AE320E030E047E450
:100C400055E060E575E056DE1F910F91EF90089535
:100C50008F929F92AF92BF92CF92DF92EF920F93BB
:100C60001F93CF93DF93EC014B0169015C018CE78B
:100C7000A80EB11CF50140815181EE24E39408E9EE
:100C80001AE320E030E067E675E0CE0133DEB6011E
:100C9000CE01B7DF6AE070E080E090E0AFD5B6014A
:100CA000CE01C4DFF5014081518108EE13E020E060
:100CB00030E0B401CE011EDE08E91AE320E030E0A6
:100CC0004BE755E068E875E0CE0114DE22EF34E032
:100CD00048E95AE360E070E0CE016FDFCE0148964C
:100CE000DF91CF911F910F91EF90DF90CF90BF9048
:100CF000AF909F908F9008950F931F93CF93DF93A2
:100D0000EC018B0168E975E08EE39CE0F9D34C853A
:100D10005D85F801668177819801CE01DF91CF91E1
:100D20001F910F9195CFAF92BF92CF92DF92EF922A
:100D3000FF920F931F93CF93DF93EC016B015A0146
:100D40008B018CE0E82E86E0F82EC8018C199D09F5
:100D50008A159B059CF4F80181918F011F928F9356
:100D6000FF92EF92DF93CF930E94BB0E22960F90DB
:100D70000F900F900F900F900F90E7CFDF91CF91D2
:100D80001F910F91FF90EF90DF90CF90BF90AF90A9
:100D90000895FC01818D228D90E0805C9F4F821B25
:100DA00091098F7399270895FC01918D828D981771
:100DB00031F0828DE80FF11D858D90E008958FEF61
:100DC0009FEF0895FC01918D828D981761F0828DBF
:100DD000DF01A80FB11D5D968C91928D9F5F9F736F
:100DE000928F90E008958FEF9FEF089585E998E046
:100DF000892B39F080E090E0892B19F096D1811190
:100E000023C080E499E0892B39F080E090E0892BC1
:100E100019F036D281111BC08BEE99E0892B39F085
:100E200080E090E0892B19F0D6D2811113C080E0C8
:100E300090E0892BA1F080E090E0892B81F00E9466
:100E4000000081110AC008950E940000DACF0E94BC
:100E50000000E2CF0E940000EACF0C940000089549
:100E6000FC01848DDF01A80FB11DA35ABF4F2C9147
:100E7000848D90E001968F739927848FA689B78916
:100E80002C93A089B1898C9180648C93938D848DEF
:100E9000981306C00288F389E02D80818F7D8083BE
:100EA0000895CF93DF93EC01888D8823C1F0EA8900
:100EB000FB89808185FD05C0A889B9898C9186FD53
:100EC0000EC00FB607FCF5CF808185FFF2CFA88951
:100ED000B9898C9185FFEDCFCE01C2DFE8CFDF91DC
:100EE000CF910895CF92DF92FF920F931F93CF93EC
:100EF000DF931F92CDB7DEB76C0181E0D601589623
:100F00008C9358975B969C915B975C968C915C97C1
:100F1000981307C05096ED91FC915197808185FD03
:100F20002DC0F601038D10E00F5F1F4F0F731127C7
:100F3000F02EF601848DF81210C00FB607FCF9CF21
:100F4000D6015096ED91FC915197808185FFF1CFAC
:100F5000C601698385DF6981ECCF838DE80FF11DC0
:100F6000E35AFF4F6083D6015B960C935B975296D2
:100F7000ED91FC915397808180620CC0D60156960A
:100F8000ED91FC91579760835096ED91FC915197AC
:100F900080818064808381E090E00F90DF91CF9129
:100FA0001F910F91FF90DF90CF900895BF92CF9245
:100FB000DF92EF92FF92CF93DF93EC016A017B0106
:100FC000B22EE889F98982E08083411581EE5807C5
:100FD0006105710599F060E079E08DE390E0A7018B
:100FE000960155D52150310941095109569547952A
:100FF00037952795211580E1380790F0E889F98920
:10100000108260E874E88EE190E0A70196013FD578
:101010002150310941095109569547953795279532
:10102000EC85FD853083EE85FF852083188EEC8965
:10103000FD89B082EA89FB89808180618083EA89A9
:10104000FB89808188608083EA89FB898081806850
:101050008083EA89FB8980818F7D8083DF91CF91B6
:10106000FF90EF90DF90CF90BF9008951F920F9266
:101070000FB60F9211240BB60F922F938F939F935D
:10108000EF93FF93E0914E0CF0914F0C8081E09133
:10109000540CF091550C82FD12C090818091570C38
:1010A0008F5F8F732091580C821751F0E091570C8D
:1010B000F0E0E25CF34F958F8093570C01C0808184
:1010C000FF91EF919F918F912F910F900BBE0F90F9
:1010D0000FBE0F901F9018951F920F920FB60F9290
:1010E00011240BB60F922F933F934F935F936F93FF
:1010F0007F938F939F93AF93BF93EF93FF938EE371
:101100009CE0AEDEFF91EF91BF91AF919F918F91E7
:101110007F916F915F914F913F912F910F900BBEF7
:101120000F900FBE0F901F9018958EE39CE031DE5C
:1011300021E0892B09F420E0822F08951092410CC0
:101140001092400C88EE93E0A0E0B0E08093420C57
:101150009093430CA093440CB093450C88E196E027
:1011600090933F0C80933E0C85EC90E090934B0C59
:1011700080934A0C84EC90E090934D0C80934C0C3F
:1011800080EC90E090934F0C80934E0C81EC90E0BB
:101190009093510C8093500C82EC90E09093530C00
:1011A0008093520C86EC90E09093550C8093540CF5
:1011B0001092570C1092580C1092590C10925A0C15
:1011C00008951F920F920FB60F9211240BB60F9233
:1011D0002F938F939F93EF93FF93E091EB0CF091FC
:1011E000EC0C8081E091F10CF091F20C82FD12C0C8
:1011F00090818091F40C8F5F8F732091F50C821792
:1012000051F0E091F40CF0E0E552F34F958F8093AC
:10121000F40C01C08081FF91EF919F918F912F91EC
:101220000F900BBE0F900FBE0F901F9018951F923E
:101230000F920FB60F9211240BB60F922F933F937C
:101240004F935F936F937F938F939F93AF93BF93CE
:10125000EF93FF938BED9CE003DEFF91EF91BF9145
:10126000AF919F918F917F916F915F914F913F913E
:101270002F910F900BBE0F900FBE0F901F901895DF
:101280008BED9CE086DD21E0892B09F420E0822FA4
:1012900008951092DE0C1092DD0C88EE93E0A0E031
:1012A000B0E08093DF0C9093E00CA093E10CB0933E
:1012B000E20C88E196E09093DC0C8093DB0C8DECE3
:1012C00090E09093E80C8093E70C8CEC90E0909386
:1012D000EA0C8093E90C88EC90E09093EC0C8093FE
:1012E000EB0C89EC90E09093EE0C8093ED0C8AEC83
:1012F00090E09093F00C8093EF0C8EEC90E0909344
:10130000F20C8093F10C1092F40C1092F50C1092E8
:10131000F60C1092F70C08951F920F920FB60F92D1
:1013200011240BB60F922F938F939F93EF93FF93FC
:10133000E091880DF091890D8081E0918E0DF09102
:101340008F0D82FD12C090818091910D8F5F8F7300
:101350002091920D821751F0E091910DF0E0E85844
:10136000F24F958F8093910D01C08081FF91EF9195
:101370009F918F912F910F900BBE0F900FBE0F90EA
:101380001F9018951F920F920FB60F9211240BB653
:101390000F922F933F934F935F936F937F938F930E
:1013A0009F93AF93BF93EF93FF9388E79DE058DD42
:1013B000FF91EF91BF91AF919F918F917F916F912D
:1013C0005F914F913F912F910F900BBE0F900FBEE9
:1013D0000F901F90189588E79DE0DBDC21E0892BBA
:1013E00009F420E0822F089510927B0D10927A0D5F
:1013F00088EE93E0A0E0B0E080937C0D90937D0DAB
:10140000A0937E0DB0937F0D88E196E09093790DC7
:101410008093780D85ED90E09093850D8093840DF9
:1014200084ED90E09093870D8093860D80ED90E0A1
:101430009093890D8093880D81ED90E090938B0DB2
:1014400080938A0D82ED90E090938D0D80938C0DAA
:1014500086ED90E090938F0D80938E0D1092910DFC
:101460001092920D1092930D1092940D0895CF92B8
:10147000DF92EF92FF920F931F93CF93DF936C0154
:101480007A01EB01E60EF71E00E010E0CE15DF0555
:1014900061F06991D601ED91FC910190F081E02D10
:1014A000C6011995080F191FF1CFC801DF91CF911F
:1014B0001F910F91FF90EF90DF90CF9008956115ED
:1014C000710581F0DB010D900020E9F7AD0141507D
:1014D0005109461B570BDC01ED91FC910280F38111
:1014E000E02D199480E090E00895E9CFDC01ED91C2
:1014F000FC910190F081E02D199464E276E0DFCF59
:101500000F931F93CF93DF93EC01D9DF8C01CE01B2
:10151000F4DF800F911FDF91CF911F910F910895FC
:101520000F931F93CF93DF93EC01E0DF8C01CE018B
:10153000E4DF800F911FDF91CF911F910F910895EC
:101540008F929F92AF92BF92CF92DF92EF92FF92D3
:101550000F931F93CF93DF93CDB7DEB7A1970FB64D
:10156000F894DEBF0FBECDBF7C01C42EE52FCB01AA
:10157000D22E19A221E02D1510F02AE0D22E8E01D4
:101580000F5D1F4F8D2C912CA12CB12C6C2D7E2F1B
:10159000A50194017CD28C2DD29E8019112401507A
:1015A00011098A3014F4805D01C0895CF8018083E0
:1015B000211531054105510521F0C22EE32FCA0145
:1015C000E5CFB801C7017BDFA1960FB6F894DEBF67
:1015D0000FBECDBFDF91CF911F910F91FF90EF9084
:1015E000DF90CF90BF90AF909F908F900895CF9253
:1015F000DF92EF92FF920F931F93CF93DF93EC0153
:101600006A017B012115310579F4E881F9810190A6
:10161000F081E02D642FDF91CF911F910F91FF900A
:10162000EF90DF90CF9019942A303105D9F477FFED
:1016300018C06DE25BDF8C0144275527BA014C19B5
:101640005D096E097F092AE0CE017ADF800F911FC4
:10165000DF91CF911F910F91FF90EF90DF90CF908E
:1016600008952AE0B701A601CE01DF91CF911F9125
:101670000F91FF90EF90DF90CF9062CF0F931F9369
:10168000CF93DF93EC019A01AB01662757FD60957C
:10169000762FADDF8C01CE0130DF800F911FDF91FF
:1016A000CF911F910F9108950F931F93CF93DF93C5
:1016B000EC019DDF8C01CE0120DF800F911FDF91B7
:1016C000CF911F910F9108952115310541F4DC014F
:1016D000ED91FC910190F081E02D642F199430CFB1
:1016E0009A01462F50E060E070E0EECF0895ABD055
:1016F000FDDF0E946201C6EFD6E00E9484012097C0
:10170000E1F374DBFACFEFC186C21F920F920FB6DE
:101710000F9211242F933F938F939F93AF93BF9377
:101720008091160E9091170EA091180EB091190E7F
:101730003091150E23E0230F2D3720F40196A11DC3
:10174000B11D05C026E8230F0296A11DB11D2093EF
:10175000150E8093160E9093170EA093180EB0934B
:10176000190E80911A0E90911B0EA0911C0EB09133
:101770001D0E0196A11DB11D80931A0E90931B0E94
:10178000A0931C0EB0931D0EBF91AF919F918F91AE
:101790003F912F910F900FBE0F901F9018952FB76C
:1017A000F8946091160E7091170E8091180E90911A
:1017B000190E2FBF08953FB7F89480911A0E90919B
:1017C0001B0EA0911C0EB0911D0E26B5A89B05C046
:1017D0002F3F19F00196A11DB11D3FBF6627782F3D
:1017E000892F9A2F620F711D811D911D42E0660F96
:1017F000771F881F991F4A95D1F70895CF92DF92DE
:10180000EF92FF92CF93DF936B017C01D4DFEB016A
:10181000C114D104E104F10479F038D1CCDF6C1BA0
:101820007D0B683E7340A0F381E0C81AD108E1083F
:10183000F108C851DC4FECCFDF91CF91FF90EF90D2
:10184000DF90CF900895789484B5826084BD84B58C
:10185000816084BD85B5826085BD85B5816085BDAB
:10186000EEE6F0E0808181608083E1E8F0E01082C4
:10187000808182608083808181608083E0E8F0E005
:10188000808181608083E1EBF0E0808184608083EF
:10189000E0EBF0E0808181608083E1E9F0E080812D
:1018A00082608083808181608083E0E9F0E08081D4
:1018B00081608083E1EAF0E08081826080838081C2
:1018C00081608083E0EAF0E0808181608083E1E2F2
:1018D000F1E0808182608083808181608083E0E2AA
:1018E000F1E0808181608083EAE7F0E080818460BC
:1018F0008083808182608083808181608083808119
:10190000806880831092C100089590E0FC013197B7
:10191000E231F10508F04BC0EE58FF4FDAC080917C
:1019200080008F7703C0809180008F7D809380003E
:10193000089580918000877FF9CF84B58F7702C0AA
:1019400084B58F7D84BD08958091B0008F7703C0EA
:101950008091B0008F7D8093B000089580919000B9
:101960008F7707C0809190008F7D03C08091900099
:10197000877F8093900008958091A0008F7707C0A3
:101980008091A0008F7D03C08091A000877F80930D
:10199000A0000895809120018F7707C080912001D9
:1019A0008F7D03C080912001877F8093200108955F
:1019B000CF93DF9390E0FC01E25BFE4F2491FC01AA
:1019C000EC56FE4F8491882349F190E0880F991FCF
:1019D000FC01EC50FE4FA591B49186529E4FFC0144
:1019E000C591D4919FB7611108C0F8948C9120954E
:1019F00082238C93888182230AC0623051F4F89448
:101A00008C91322F309583238C938881822B88830D
:101A100004C0F8948C91822B8C939FBFDF91CF915F
:101A200008950F931F93CF93DF931F92CDB7DEB727
:101A3000282F30E0F901E85FFE4F8491F901E25B65
:101A4000FE4F1491F901EC56FE4F04910023C1F0B2
:101A5000882319F0698359DF6981E02FF0E0EE0FE8
:101A6000FF1FE652FE4FA591B4919FB7F8948C9159
:101A7000611103C01095812301C0812B8C939FBFFE
:101A80000F90DF91CF911F910F9108950895A1E2DA
:101A90001A2EAA1BBB1BFD010DC0AA1FBB1FEE1FE8
:101AA000FF1FA217B307E407F50720F0A21BB30B33
:101AB000E40BF50B661F771F881F991F1A9469F7AF
:101AC00060957095809590959B01AC01BD01CF010B
:101AD0000895EE0FFF1F0590F491E02D19940790E3
:101AE000F691E02D1994CF93DF938230910510F495
:101AF00082E090E0E091200EF091210E20E030E0B5
:101B0000A0E0B0E0309739F1408151814817590782
:101B1000B8F04817590771F482819381109729F022
:101B200013969C938E9312972CC09093210E8093C2
:101B3000200E27C02115310531F04217530718F048
:101B4000A901DB0101C0EF019A01BD01DF010280A3
:101B5000F381E02DD7CF21153105F9F0281B390B82
:101B60002430310580F48A819B816115710521F053
:101B7000FB019383828304C09093210E8093200EF7
:101B8000FE01329644C0FE01E20FF31F8193919350
:101B900022503109398328833AC020911E0E30919A
:101BA0001F0E232B41F42091020230910302309347
:101BB0001F0E20931E0E209100023091010221156C
:101BC000310541F42DB73EB7409104025091050212
:101BD000241B350BE0911E0EF0911F0EE217F30748
:101BE000A0F42E1B3F0B2817390778F0AC014E5F8D
:101BF0005F4F2417350748F04E0F5F1F50931F0E9D
:101C000040931E0E8193919302C0E0E0F0E0CF017B
:101C1000DF91CF910895CF93DF93009709F487C0A8
:101C2000FC01329713821282C091200ED091210EB6
:101C3000209781F420813181280F391F80911E0E59
:101C400090911F0E8217930779F5F0931F0EE09382
:101C50001E0E6DC0DE0120E030E0AE17BF0750F46D
:101C600012964D915C9113979D014115510509F113
:101C7000DA01F3CFB383A28340815181840F951F92
:101C80008A179B0771F48D919C911197840F951F72
:101C900002969183808312968D919C9113979383E2
:101CA00082832115310529F4F093210EE093200E53
:101CB0003EC0D9011396FC93EE9312974D915D911E
:101CC000A40FB51FEA17FB0779F480819181840F77
:101CD000951F0296D90111969C938E9382819381D0
:101CE00013969C938E931297E0E0F0E08A819B819B
:101CF000009719F0FE01EC01F9CFCE010296288180
:101D00003981820F931F20911E0E30911F0E2817CC
:101D1000390769F4309729F41092210E1092200EA1
:101D200002C013821282D0931F0EC0931E0EDF9149
:101D3000CF910895DC0101C06D9341505040E0F710
:101D40000895FB0151915523A9F0BF01DC014D918C
:101D500045174111E1F759F4CD010190002049F0F8
:101D60004D9140154111C9F3FB014111EFCF81E0C5
:101D700090E0019708950F931F93CF93DF93CDB712
:101D8000DEB72E970FB6F894DEBF0FBECDBF0E891B
:101D90001F8986E08C831A8309838FEF9FE79E83D8
:101DA0008D83AE01465E5F4F688D798DCE010196C1
:101DB00010D0EF81F885E00FF11F10822E960FB63C
:101DC000F894DEBF0FBECDBFDF91CF911F910F9171
:101DD00008952F923F924F925F926F927F928F92CF
:101DE0009F92AF92BF92CF92DF92EF92FF920F93AA
:101DF0001F93CF93DF93CDB7DEB72C970FB6F89430
:101E0000DEBF0FBECDBF7C016B018A01FC011782D2
:101E10001682838181FFB0C1CE0101964C01F7018A
:101E20009381F60193FD859193FF81916F01882342
:101E300009F49EC1853239F493FD859193FF819118
:101E40006F01853221F4B70190E0C7D1E8CF512C62
:101E5000312C20E02032A0F48B3269F030F4803253
:101E600059F0833269F420612CC08D3239F080330F
:101E700039F4216026C02260246023C0286021C07C
:101E800027FD27C030ED380F3A3078F426FF06C022
:101E9000FAE05F9E300D1124532E13C08AE0389E65
:101EA000300D1124332E20620CC08E3221F426FD19
:101EB0005FC1206406C08C3611F4206802C08836E9
:101EC00041F4F60193FD859193FF81916F0181119A
:101ED000C1CF982F9F7D9554933028F40C5F1F4FEE
:101EE000FFE3F9830DC0833631F0833771F083351A
:101EF00009F057C021C0F801808189830E5F1F4F10
:101F000044244394512C540114C03801F2E06F0E64
:101F1000711CF801A080B18026FF03C0652D70E020
:101F200002C06FEF7FEFC5012C874CD12C018301DC
:101F30002C852F77222E16C03801F2E06F0E711C0F
:101F4000F801A080B18026FF03C0652D70E002C0BB
:101F50006FEF7FEFC5012C872AD12C012C852068DB
:101F6000222E830123FC19C0832D90E048165906C8
:101F7000A0F4B70180E290E030D13A94F5CFF501BA
:101F800027FC859127FE81915F01B70190E025D163
:101F900031103A94F1E04F1A51084114510479F785
:101FA000DEC0843611F0893631F5F80127FF07C00D
:101FB00060817181828193810C5F1F4F08C06081B5
:101FC0007181882777FD8095982F0E5F1F4F2F76A0
:101FD000B22E97FF09C090958095709561957F4FBF
:101FE0008F4F9F4F2068B22E2AE030E0A40127D106
:101FF000A82EA81843C0853729F42F7EB22E2AE0D8
:1020000030E025C0F22FF97FBF2E8F36C1F018F4D3
:10201000883579F0ADC0803719F0883721F0A8C035
:102020002F2F2061B22EB4FE0DC08B2D8460B82EF0
:1020300009C024FF0AC09F2F9660B92E06C028E071
:1020400030E005C020E130E002C020E132E0F801DC
:10205000B7FE07C060817181828193810C5F1F4F41
:1020600006C06081718180E090E00E5F1F4FA40187
:10207000E6D0A82EA818FB2DFF77BF2EB6FE0BC00A
:102080002B2D2E7FA51450F4B4FE0AC0B2FC08C05C
:102090002B2D2E7E05C07A2C2B2D03C07A2C01C04F
:1020A000752C24FF0DC0FE01EA0DF11D80818033E7
:1020B00011F4297E09C022FF06C07394739404C0F2
:1020C000822F867809F0739423FD12C020FF06C08A
:1020D0005A2C731418F4530C5718732C731460F49F
:1020E000B70180E290E02C8778D073942C85F6CFEE
:1020F000731410F4371801C0312C24FF11C0B7013C
:1021000080E390E02C8769D02C8522FF16C021FF48
:1021100003C088E590E002C088E790E0B7010CC0FA
:10212000822F867851F021FD02C080E201C08BE24F
:1021300027FD8DE2B70190E050D0A51430F4B7012F
:1021400080E390E04AD05A94F8CFAA94F401EA0DC3
:10215000F11D8081B70190E040D0A110F6CF33206F
:1021600009F45DCEB70180E290E037D03A94F7CF22
:10217000F7018681978102C08FEF9FEF2C960FB6F3
:10218000F894DEBF0FBECDBFDF91CF911F910F91AD
:10219000FF90EF90DF90CF90BF90AF909F908F9087
:1021A0007F906F905F904F903F902F900895FC012B
:1021B0000590615070400110D8F7809590958E0F72
:1021C0009F1F0895FC016150704001900110D8F7E5
:1021D000809590958E0F9F1F08950F931F93CF9317
:1021E000DF93182F092FEB018B8181FD03C08FEF47
:1021F0009FEF20C082FF10C04E815F812C813D8106
:10220000421753077CF4E881F9819F012F5F3F4F0C
:1022100039832883108306C0E885F985812F1995B5
:10222000892B29F72E813F812F5F3F4F3F832E83DC
:10223000812F902FDF91CF911F910F910895FA0177
:10224000AA27283051F1203181F1E8946F936E7FF5
:102250006E5F7F4F8F4F9F4FAF4FB1E03ED0B4E0E6
:102260003CD0670F781F891F9A1FA11D680F791F27
:102270008A1F911DA11D6A0F711D811D911DA11D38
:1022800020D009F468943F912AE0269F1124301948
:10229000305D3193DEF6CF010895462F4770405DE3
:1022A0004193B3E00FD0C9F7F6CF462F4F70405D92
:1022B0004A3318F0495D31FD4052419302D0A9F7ED
:1022C000EACFB4E0A6959795879577956795BA95E7
:1022D000C9F700976105710508959B01AC010A2EAD
:1022E00006945795479537952795BA95C9F7620F84
:1022F000731F841F951FA01D089512E0C6E1D2E050
:1023000000E005C022970109FE010BBFE8DBC831E0
:0C231000D10780E00807B1F7F894FFCF78
:10231C000000220E20000D00AAAAAA966900031143
:10232C00FFEDAAAAAA96690003200122AAAAAA96DE
:10233C00690003200221AAAAAA966900033001327F
:10234C0073657269616C20626567696E20617420C7
:10235C00313135323030006C6F6F702073746172B4
:10236C00742100697372656164656420697320006F
:10237C003131342E3234372E3231362E36003A3853
:10238C003636362F6361732D7765626170702F61FD
:10239C0070702F65717569706D656E742F657175D0
:1023AC0069706D656E744D65737361676500204867
:1023BC005454502F312E3100206170706C69636160
:1023CC0074696F6E2F782D7777772D666F726D2D00
:1023DC0075726C656E636F64656400504F53540086
:1023EC00474554001A0072756E20636F6D6D616EF7
:1023FC00643A002030780063617252656164007247
:10240C00656164656400746F207265616420617637
:10241C00616C6961626C652069732000726561642E
:10242C0050726570617279006361722069732072F9
:10243C006561647920746F207265616400726561F6
:10244C0064486561727462697432006361722074ED
:10245C006F756368656420736F2074727920746F74
:10246C0020726561644361726400686561727462B4
:10247C0069740072656164206865617262697400D8
:10248C006865617274626974320073696D393030D9
:10249C006120706F7765726F6E006261636B3A00DA
:1024AC0073657269616C526573706F6E73652069C8
:1024BC00732066756C6C002E00206973204F4B21C5
:1024CC0020007265616446726F6D4D795365726957
:1024DC00616C2074696D656F75742C7573652074EF
:1024EC00696D65203A007472793A0072657472797C
:1024FC0074696D656F75743A0073696D393030614C
:10250C002070726570617265203E3E3E0041540041
:10251C0041542B434950534855540041542B434983
:10252C00504D55583D300041542B43474154543D78
:10253C00310041542B435354543D227777772E73FB
:10254C006370222C22222C22220041542B4349500E
:10255C00535052543D310041542B4349494352008E
:10256C0041542B43494653520073696D39303061E5
:10257C00207072657061726564203C3C3C00415473
:10258C002B53415042523D332C312C22434F4E544D
:10259C00595045222C2247505253220041542B5360
:1025AC0041504252203D312C310041542B4854545F
:1025BC00505445524D0041542B48545450494E49A7
:1025CC00540041542B43495053544152543D2254CE
:1025DC004350222C2200222C00434F4E4E45435494
:1025EC00204F4B007265616446726F6D5365727655
:1025FC0065720041542B43495053454E443D35318F
:10260C0032007363700041542B4854545050415263
:10261C00413D2255524C222C223131342E3234374A
:10262C002E3231362E363A383636362F6361732DCC
:10263C007765626170702F6170702F65717569704C
:10264C006D656E742F65717569706D656E744D6511
:10265C0073736167652200444F574E4C4F414400E1
:10266C0041542B48545450444154413D323630303F
:10267C002C31353030300041542B4854545050419B
:10268C0052413D22434944222C31002B4854545092
:10269C00414354494F4E3A0041542B4854545041F5
:1026AC004354494F4E3D31006874747020506F7321
:1026BC0074203E3E3E00484F53543A2000436F6E08
:1026CC0074656E742D547970653A00436F6E746541
:1026DC006E742D4C656E6774683A2000636C6F7372
:1026EC00655F636F6E6E656374203E3E3E00434CC7
:1026FC004F5345204F4B0041542B434950434C4FB3
:10270C0053450072657175657374203E3E3E0068DA
:10271C0074747020476574203E3E3E00253032585C
:10272C0000256400000000007207370AC906E206A3
:10273C00D40651070D0A006E616E00696E66006F5B
:04274C0076660000AD
:00000001FF
