:1000000016C1000045C1000043C1000041C100000D
:100010003FC100003DC100003BC1000039C10000EC
:1000200037C1000035C1000033C1000031C10000FC
:100030002FC100002DC100002BC1000029C100000C
:1000400027C1000025C1000023C1000021C100001C
:100050001FC100001DC100001BC100000C94590B02
:1000600017C1000092C70000C6C7000011C1000000
:100070000FC100000DC100000BC1000009C100004C
:1000800007C1000005C1000003C1000001C100005C
:10009000FFC00000FDC00000FBC00000F9C0000070
:1000A000F7C00000F5C00000F3C00000F1C0000080
:1000B000EFC00000EDC00000EBC00000E9C0000090
:1000C000E7C00000E5C00000E3C00000F3C7000087
:1000D0000C949008DDC00000DBC00000D9C0000017
:1000E000D7C00000750C780C670C6B0C710CAF0C52
:1000F0007C0C800C860C8A0C8E0C940C980C9C0C3E
:10010000AF0CA20CA60CAA0C00000A0B02090C0DE5
:100110000E080703040100000000000000000000BA
:1001200000000000000000000000000000000000CF
:10013000000000001211100000000000000000008C
:1001400000000000000000000000000000000102AC
:1001500010202008081020401020408002010201D9
:100160000804020101020408102040808040201091
:1001700008040201800402018040201008040201EA
:100180000804020101020408102040800102040852
:10019000102040800505050507050808080802022B
:1001A00002020A0A08080404040401010101010111
:1001B00001010303030303030303040707070C0CF4
:1001C0000C0C0C0C0C0C02020202060606060606BB
:1001D00006060B0B0B0B0B0B0B0B00002000230078
:1001E000260029002C002F0032000001000003012E
:1001F0000601090100002200250028002B002E0026
:100200003100340002010000050108010B0100006B
:100210002100240027002A002D00300033000101B6
:100220000000040107010A01DF012D08C2081124A2
:100230001FBECFEFD1E2DEBFCDBF00E00CBF15E0A7
:10024000A0E0B2E0EAEDFFE100E00BBF02C00790E2
:100250000D92AC33B107D9F727E0ACE3B5E001C0AC
:100260001D92AC30B207E1F711E0C7E1D1E000E048
:1002700006C021970109802FFE010E94650DC4313F
:10028000D10780E00807A9F70E944D0B0C94EB0FF3
:10029000B7CE87E495E088D2EDE3F5E08AE092E01E
:1002A000978386838FE092E09183808384E090E05F
:1002B0009187808780E590E0938382838DE192E04F
:1002C0009583848365E372E085EC95E0EEC7CF9378
:1002D000DF9326E040E052EC61E070E085EC95E0D1
:1002E000F1D5C8E0D2E061E088810E94B00C62E004
:1002F000809106020E94B00C60E088810E94EC0CA4
:1003000068EE73E080E090E00E94D40BC2DF68E802
:1003100073E180E090E0DF91CF910C94D40B6FE318
:1003200072E085EC95E0C1D76DE375E087E495E078
:100330006BD46DE472E085EC95E0B7C7CF93DF93A3
:100340006EE572E085EC95E0B0D7809106020E94E0
:100350001A0DEC01BC016C597D4F85EC95E0A5D7D9
:10036000219731F460E0809108020E94EC0C1FC0DC
:1003700061E0809108020E94EC0C80913C058111A3
:1003800011C06EE672E085EC95E08FD781E0809336
:100390003C05C5DF10923C0568EB7BE080E090E017
:1003A0000E94D40B67E772E085EC95E07ED76AE0A7
:1003B00070E080E090E0DF91CF910C94D40BE7E403
:1003C000F5E082E892E0938B828B8CE892E0958B4B
:1003D000848B81E095E09093C4058093C30582E609
:1003E00096E09183808380E092ECA1E0B0E082838C
:1003F0009383A483B5838FEA92E09587848784EB07
:1004000092E09787868788EB92E0978B868B8DE2C8
:1004100095E0918B808B08956AEB72E085EC95E016
:1004200044D761E082E00E94B00C61E082E00C946D
:10043000EC0C4F925F926F927F928F929F92AF924D
:10044000BF92CF92DF92EF92FF920F931F93CF93C1
:10045000DF93EC012A013B0149015C0128E1A20E76
:10046000B11C44E650E06FEF70E0C5010E94770FC9
:100470000E94A30B688779878A879B876AEC72E062
:1004800085EC95E0F7D6C12CD12C760100E010E088
:10049000C414D504E604F7040CF048C00E94A30B72
:1004A000C884D984EA84FB849B01AC012C193D09E2
:1004B0004E095F0969017A010436110534F060EDD7
:1004C00072E085EC95E0F1D631C088819981DC013C
:1004D000ED91FC910680F781E02D19958F3FBFEFDC
:1004E0009B0761F467EE72E085EC95E0C3D662E0AD
:1004F00070E080E090E00E94D40BCACFFE01E00FD4
:10050000F11F808F682F85EC95E0B5D60F5F1F4FE8
:10051000B401C5010E94940F892B09F4B9CF69EE8B
:1005200072E085EC95E0C1D6C1E00DC062EF72E0EB
:1005300085EC95E09FD62AE030E0B701A60185EC76
:1005400095E05CD7C0E085EC95E09CD68C2FDF91E0
:10055000CF911F910F91FF90EF90DF90CF90BF90C0
:10056000AF909F908F907F906F905F904F90089585
:100570004F925F926F927F92AF92BF92CF92DF9233
:10058000EF920F931F93CF93DF93EC016B015A010E
:10059000280139018881998188D688819981DC0177
:1005A000ED91FC910284F385E02D199566E173E0ED
:1005B00085EC95E05FD6B60185EC95E05BD685ECE1
:1005C00095E060D69501B301A201CE0132DF182F6C
:1005D00085EC95E057D6111129C0EE20B9F060EDF9
:1005E00077E080E090E00E94D40B6BE173E085EC53
:1005F00095E040D6B60185EC95E057D6EE24E3941D
:1006000093018201A501B601CE01B2DF85EC95E030
:10061000DF91CF911F910F91EF90DF90CF90BF901E
:10062000AF907F906F905F904F902CC6DF91CF91ED
:100630001F910F91EF90DF90CF90BF90AF907F9080
:100640006F905F904F900895CF92DF92EF920F934B
:100650001F93CF93DF93EC0169E273E085EC95E0A3
:1006600024D64A815B816C817D8126E088819981D5
:1006700029D4CE01D1DE64EF71E080E090E00E94E9
:10068000D40B6E018CE7C80ED11CF601408151815C
:10069000EE24E39408EB1BE020E030E06DE373E030
:1006A000CE0166DF60ED77E080E090E00E94D40B41
:1006B000F6014081518108EB1BE020E030E060E46E
:1006C00073E0CE0155DF60ED77E080E090E00E94BE
:1006D000D40BF6014081518108E91AE320E030E0B3
:1006E0006BE473E0CE0144DF60ED77E080E090E002
:1006F0000E94D40BF6014081518108E91AE320E001
:1007000030E067E573E0CE0133DF68EB7BE080E04B
:1007100090E00E94D40BF6014081518108E91AE370
:1007200020E030E062E673E0CE0122DF60ED77E0AA
:1007300080E090E00E94D40BF6014081518108E9ED
:100740001AE320E030E06AE773E0CE0111DF60EDEC
:1007500077E080E090E00E94D40BF6014081518167
:1007600008EA11E620E030E067E873E0CE0100DF40
:1007700060ED77E080E090E00E94D40B08E91AE396
:1007800020E030E047EE52E060E973E0CE01F0DEB9
:1007900069E973E085EC95E0DF91CF911F910F91AE
:1007A000EF90DF90CF9081C5CF92DF92EF920F93C1
:1007B0001F93CF93DF93EC0147DF68EE73E080E097
:1007C00090E0F2D76E018CE7C80ED11CF601408193
:1007D0005181EE24E39408E91AE320E030E06EEA68
:1007E00073E0CE01C5DE68EE73E080E090E0DCD718
:1007F000F6014081518108E91AE320E030E06CEC19
:1008000073E0CE01B5DEF60140815181E12C08EEA6
:1008100013E020E030E06AED73E0CE01A9DEF601DE
:1008200040815181EE24E39408E91AE320E030E0AE
:1008300066EE73E0CE019CDEDF91CF911F910F91A8
:10084000EF90DF90CF900895CF93DF93EC0164E1B8
:1008500074E085EC95E029D588819981DC01ED91E2
:10086000FC910480F581E02D1995892B71F0888128
:100870009981DC01ED91FC910680F781E02D1995BD
:10088000682F85EC95E0F7D4E7CFDF91CF910895FD
:100890008F929F92AF92BF92CF92DF92EF920F937F
:1008A0001F93CF93DF93CDB7DEB768970FB6F89459
:1008B000DEBF0FBECDBF5C016B018DB69EB666E399
:1008C00074E0CE01439611D6F60160817181CE01AC
:1008D00007960BD6BE016D5E7F4FCE010D962ED6CC
:1008E000AE01495F5F4FBE01635F7F4FCE0101964E
:1008F000A2D1BE016F5F7F4FCE0143960AD6CE01D3
:1009000001968CD5CE010D9689D5CE01079686D558
:10091000F60164817581CE010796E7D5BE016D5E53
:100920007F4FCE010D960AD6AE01495F5F4FBE01E3
:10093000635F7F4FCE0101967ED1BE016F5F7F4F17
:10094000CE014396E6D5CE01019668D5CE010D962F
:1009500065D5CE01079662D568E773E0CE010796AC
:10096000C4D5BE016D5E7F4FCE010D96E7D5AE01B9
:10097000495F5F4FBE01635F7F4FCE0101965BD140
:10098000BE016F5F7F4FCE014396C3D5CE01019666
:1009900045D5CE010D9642D5CE0107963FD58F891C
:1009A000988D2DB73EB7281B390B0FB6F8943EBF74
:1009B0000FBE2DBF8DB79EB701966C01BE016D5E57
:1009C0007F4FCE010196BAD5B601CE01019681D1F5
:1009D000CE01019623D5B60185EC95E066D4F501EC
:1009E000E458FF4F40815181EE24E39408E91AE373
:1009F00020E030E0B601C501BBDDCE0143960ED547
:100A00000FB6F8949EBE0FBE8DBE68960FB6F894D2
:100A1000DEBF0FBECDBFDF91CF911F910F91EF9041
:100A2000DF90CF90BF90AF909F908F900895AF923E
:100A3000BF92CF92DF92EF920F931F93CF93DF93EA
:100A4000CDB7DEB768970FB6F894DEBF0FBECDBF47
:100A50005C01CDB6DEB6FB01008511856AE474E069
:100A6000CE01019642D5A801BE016F5F7F4FCE0136
:100A7000439608D1CE010196D1D4BE016D5E7F4F61
:100A800085EC95E002D460E774E0CE0107962DD5A1
:100A9000BE016D5E7F4FCE010D9650D5AE01495F10
:100AA0005F4FBE01635F7F4FCE010196C4D0BE0190
:100AB0006F5F7F4FCE0143962CD5CE010196AED409
:100AC000CE010D96ABD4CE010796A8D4BE016D5EC3
:100AD0007F4F85EC95E0D9D38F89988D2DB73EB7A0
:100AE000281B390B0FB6F8943EBF0FBE2DBF0DB7B4
:100AF0001EB70F5F1F4FBE016D5E7F4FCE01019687
:100B00001DD5B801CE010196E4D0CE01019686D460
:100B1000B80185EC95E0C9D3EE24E39408E91AE323
:100B200020E030E047E554E060E674E0C50120DDF8
:100B3000CE01439673D40FB6F894DEBE0FBECDBE81
:100B400068960FB6F894DEBF0FBECDBFDF91CF9190
:100B50001F910F91EF90DF90CF90BF90AF900895CD
:100B60008F929F92AF92BF92CF92DF92EF920F93AC
:100B70001F93CF93DF93EC014B0159016C018CE77C
:100B8000C80ED11CF60140815181EE24E39408E99E
:100B90001AE320E030E067E774E0CE01E9DCB5015C
:100BA000CE0176DE6AE070E080E090E0FDD5B50130
:100BB000CE013DDFF6014081518108EE13E020E0D7
:100BC00030E0B401CE01D4DC08E91AE320E030E0E3
:100BD0004BE854E068E974E0CE01CADC22E334E07B
:100BE00048E95AE360E070E0CE012EDECE0148967F
:100BF000DF91CF911F910F91EF90DF90CF90BF9039
:100C0000AF909F908F9008950F931F93CF93DF9392
:100C1000EC018B0168EA74E085EC95E046D34E85E3
:100C20005F85F801668177819801CE01DF91CF91D0
:100C30001F910F9195CFEF92FF920F931F93CF9338
:100C4000DF9300D000D0CDB7DEB78C017A01CE01A2
:100C5000019674D4B701CE010196D3D4BC01C8016A
:100C60006DD4CE010196DAD3C80126960FB6F8945A
:100C7000DEBF0FBECDBFDF91CF911F910F91FF90CF
:100C8000EF900895EF92FF920F931F93CF93DF930E
:100C900000D000D0CDB7DEB78C017A01CE0101962D
:100CA0004DD4B701CE010196BDD4BC01C80146D4D4
:100CB000CE010196B3D3C80126960FB6F894DEBFD5
:100CC0000FBECDBFDF91CF911F910F91FF90EF909D
:100CD0000895FC01448155814F5F5F4F20E030E073
:100CE000ADC4FC01918D228D892F90E0805C9F4FD7
:100CF000821B91098F7399270895FC01918D828D34
:100D0000981731F0828DE80FF11D858D90E00895E0
:100D10008FEF9FEF0895FC01918D828D981761F000
:100D2000828DDF01A80FB11D5D968C91928D9F5F22
:100D30009F73928F90E008958FEF9FEF089584E264
:100D400098E0892B39F080E090E0892B19F07CD174
:100D5000811124C080E090E0892B41F080E090E098
:100D6000892B21F00E94000081111BC089EB98E0C3
:100D7000892B39F080E090E0892B19F0FAD18111AC
:100D800013C080E090E0892BA1F080E090E0892BF7
:100D900081F00E94000081110AC008950E940000A5
:100DA000D9CF0E940000E2CF0E940000EACF0C944D
:100DB00000000895FC01848DDF01A80FB11DA35A26
:100DC000BF4F2C91848D90E001968F739927848F6B
:100DD000A689B7892C93A089B1898C9180648C9362
:100DE000938D848D981306C00288F389E02D80814D
:100DF0008F7D80830895EF92FF920F931F93CF937F
:100E0000DF93EC0181E0888F9B8D8C8D981305C05A
:100E1000E889F989808185FD23C0F62E0B8D10E0CD
:100E20000F5F1F4F0F731127E02E8C8DE8120BC040
:100E30000FB607FCFACFE889F989808185FFF5CFE5
:100E4000CE01B8DFF2CF8B8DFE01E80FF11DE35A22
:100E5000FF4FF0820B8FEA89FB898081806207C097
:100E6000EE89FF896083E889F989808180648083C5
:100E700081E090E0DF91CF911F910F91FF90EF9073
:100E80000895CF93DF93EC01888D8823C1F0EA8920
:100E9000FB89808185FD05C0A889B9898C9186FD73
:100EA0000EC00FB607FCF5CF808185FFF2CFA88971
:100EB000B9898C9185FFEDCFCE017CDFE8CFDF9142
:100EC000CF910895CF92DF92EF92FF921F93CF932D
:100ED000DF93EC016A017B01122FE889F98982E036
:100EE00080834115514E61057105A9F060E079E0FC
:100EF0008DE390E0A7019601C6D5DA01C9010197FB
:100F0000A109B109B695A795979587959C012115DB
:100F100080E13807A0F0E889F989108260E874E878
:100F20008EE190E0A7019601AED5DA01C9010197E3
:100F3000A109B109B695A795979587959C01EC8570
:100F4000FD853083EE85FF852083188EEC89FD8931
:100F50001083EA89FB89808180618083EA89FB892B
:100F6000808188608083EA89FB89808180688083B2
:100F7000EA89FB8980818F7D8083DF91CF911F91EA
:100F8000FF90EF90DF90CF9008951F920F920FB6D1
:100F90000F9211240BB60F922F938F939F93EF9381
:100FA000FF93E091D505F091D6058081E091DB05B6
:100FB000F091DC0582FD12C090818091DE058F5F8B
:100FC0008F732091DF05821751F0E091DE05F0E08C
:100FD000EB53FA4F958F8093DE0501C08081FF911E
:100FE000EF919F918F912F910F900BBE0F900FBE9D
:100FF0000F901F9018951F920F920FB60F92112409
:101000000BB60F922F933F934F935F936F937F9302
:101010008F939F93AF93BF93EF93FF9385EC95E0EE
:10102000C9DEFF91EF91BF91AF919F918F917F9119
:101030006F915F914F913F912F910F900BBE0F9049
:101040000FBE0F901F90189585EC95E04ADE21E0C9
:10105000892B09F420E0822F0895E5ECF5E0138256
:10106000128288EE93E0A0E0B0E084839583A683AB
:10107000B78380E295E09183808385EC90E095874B
:10108000848784EC90E09787868780EC90E0918B52
:10109000808B81EC90E0938B828B82EC90E0958B3F
:1010A000848B86EC90E0978B868B118E128E138E3C
:1010B000148E08951F920F920FB60F9211240BB643
:1010C0000F922F938F939F93EF93FF93E09172066C
:1010D000F09173068081E0917806F091790682FDA7
:1010E00012C0908180917B068F5F8F7320917C0668
:1010F000821751F0E0917B06F0E0EE59F94F958FA1
:1011000080937B0601C08081FF91EF919F918F9129
:101110002F910F900BBE0F900FBE0F901F90189540
:101120001F920F920FB60F9211240BB60F922F93AE
:101130003F934F935F936F937F938F939F93AF935F
:10114000BF93EF93FF9382E696E034DEFF91EF9139
:10115000BF91AF919F918F917F916F915F914F91CF
:101160003F912F910F900BBE0F900FBE0F901F90CD
:10117000189582E696E0B5DD21E0892B09F420E0A0
:10118000822F0895E2E6F6E01382128288EE93E061
:10119000A0E0B0E084839583A683B78380E295E0E6
:1011A0009183808385ED90E09587848784ED90E03E
:1011B0009787868780ED90E0918B808B81ED90E022
:1011C000938B828B82ED90E0958B848B86ED90E003
:1011D000978B868B118E128E138E148E0895CF925C
:1011E000DF92EF92FF920F931F93CF93DF936C01E7
:1011F000EB017B01E40EF51E00E010E0CE15DF05EB
:1012000061F06991D601ED91FC910190F081E02DA2
:10121000C6011995080F191FF1CFC801DF91CF91B1
:101220001F910F91FF90EF90DF90CF90089561157F
:10123000710579F0FB0101900020E9F73197AF01CA
:10124000461B570BDC01ED91FC910280F381E02DF0
:10125000199480E090E00895DB0114964D915C9123
:1012600015976D917C91DC01ED91FC910280F381E9
:10127000E02D1994DCCFDC01ED91FC910190F0811F
:10128000E02D19946CE275E0D2CF0F931F93CF93AA
:10129000DF93EC01E1DF8C01CE01F4DF800F911FC1
:1012A000DF91CF911F910F9108950F931F93CF93CB
:1012B000DF93EC01BCDF8C01CE01E4DF800F911FD6
:1012C000DF91CF911F910F9108958F929F92AF92CE
:1012D000BF92CF92DF92EF92FF920F931F93CF9323
:1012E000DF93CDB7DEB7A1970FB6F894DEBF0FBE80
:1012F000CDBF6C01142FE52FCB01022F19A2223094
:1013000008F40AE07E0121E2E20EF11C802E912C0D
:10131000A12CB12C612F7E2FA5019401B4D3029F83
:101320001019112481E0E81AF1081A3014F4105D44
:1013300001C0195CF7011083122FE32FCA01232B80
:10134000242B252B39F7B701C60171DFA1960FB603
:10135000F894DEBF0FBECDBFDF91CF911F910F91EB
:10136000FF90EF90DF90CF90BF90AF909F908F90C5
:101370000895CF92DF92EF92FF920F931F93CF9336
:10138000DF932115310581F4DC01ED91FC91019091
:10139000F081E02D642FDF91CF911F910F91FF908D
:1013A000EF90DF90CF9019942A303105F1F477FF58
:1013B0001BC06A017B01EC016DE25DDF8C014427FB
:1013C0005527BA014C195D096E097F092AE0CE0143
:1013D0007CDF800F911FDF91CF911F910F91FF90C4
:1013E000EF90DF90CF9008952AE0DF91CF911F9189
:1013F0000F91FF90EF90DF90CF9067CF0F931F93E7
:10140000CF93DF93EC01B5DF8C01CE013BDF800F82
:10141000911FDF91CF911F910F910895FC01808161
:101420009181F3C3CF93DF93EC0188819981009779
:1014300009F0EBD3198218821D821C821B821A824A
:10144000DF91CF9108950F931F93CF93DF93EC011A
:101450008B016F5F7F4F8881998160D4009731F055
:10146000998388831B830A8381E001C080E0DF9138
:10147000CF911F910F910895CF93DF93EC01888155
:101480009981892B29F08A819B818617970758F4C7
:10149000CE01D9DF882341F08C819D81892B19F4FD
:1014A000E881F981108281E0DF91CF910895EF9278
:1014B000FF920F931F93CF93DF93EC017B018A017F
:1014C000BA01DADF811103C0CE01ACDF06C01D8393
:1014D0000C83B7018881998111D5CE01DF91CF911D
:1014E0001F910F91FF90EF900895FC0111821082DF
:1014F00013821282158214826115710549F0FB0175
:1015000001900020E9F73197AF01461B570BCFCF71
:101510000895CF93DF93EC01FB018617970751F0F5
:10152000608171816115710521F044815581BFDFB2
:1015300001C078DFCE01DF91CF910895FC011182C7
:1015400010821382128215821482E3CFEF92FF92EF
:101550000F931F93CF93DF936115710511F480E012
:101560001AC041155105B1F07B01EC018C819D81C0
:101570008A01080F191FB801CE017EDF882379F395
:10158000288139818C819D81B701820F931FB6D448
:101590001D830C8381E0DF91CF911F910F91FF900C
:1015A000EF900895EF92FF920F931F93CF93DF93E5
:1015B000CDB7DEB728970FB6F894DEBF0FBECDBF0C
:1015C0007C01CB014AE050E08E010F5F1F4FB80154
:1015D000C5D4F80101900020E9F73197AF01401B15
:1015E000510BB801C701B2DF28960FB6F894DEBFE1
:1015F0000FBECDBFDF91CF911F910F91FF90EF9064
:101600000895CF93DF93EC01FB0144815581608104
:1016100071819CDF811102C0CE0104DFCE01DF9118
:10162000CF910895CF93DF93EC01BCDF811102C00D
:10163000CE01F8DECE01DF91CF9108950F931F9375
:10164000CF93DF934115510511F161157105F9F043
:10165000DC011496ED91FC9115972E173F0718F0B9
:10166000FB01108214C0E21BF30BEA012197EC1777
:10167000FD0708F4EF018B01FC0160817181620FAD
:10168000731FAE01C80141D4C00FD11F1882DF9172
:10169000CF911F910F9108950895ABD0FDDF0E9467
:1016A0006701CFE9D6E00E949E012097E1F347DB76
:1016B000FACF1F920F920FB60F9211242F933F93E0
:1016C0008F939F93AF93BF938091000790910107F1
:1016D000A0910207B09103073091FF0623E0230F8A
:1016E0002D3720F40196A11DB11D05C026E8230F5A
:1016F0000296A11DB11D2093FF06809300079093D1
:101700000107A0930207B09303078091040790910B
:101710000507A0910607B09107070196A11DB11D0D
:101720008093040790930507A0930607B0930707DB
:10173000BF91AF919F918F913F912F910F900FBECD
:101740000F901F9018952FB7F89460910007709133
:10175000010780910207909103072FBF08953FB7BB
:10176000F8948091040790910507A0910607B09125
:10177000070726B5A89B05C02F3F19F00196A11DAC
:10178000B11D3FBFBA2FA92F982F8827820F911D17
:10179000A11DB11DBC01CD0142E0660F771F881F5E
:1017A000991F4A95D1F70895CF92DF92EF92FF9259
:1017B000CF93DF936B017C01D2DFEB01C114D10425
:1017C000E104F10479F05ED1CADF6C1B7D0B683E49
:1017D0007340A0F381E0C81AD108E108F108C851AC
:1017E000DC4FECCFDF91CF91FF90EF90DF90CF9067
:1017F0000895789484B5826084BD84B5816084BD89
:1018000085B5826085BD85B5816085BDEEE6F0E079
:10181000808181608083E1E8F0E0108280818260D5
:101820008083808181608083E0E8F0E08081816056
:101830008083E1EBF0E0808184608083E0EBF0E086
:10184000808181608083E1E9F0E080818260808333
:10185000808181608083E0E9F0E080818160808325
:10186000E1EAF0E080818260808380818160808312
:10187000E0EAF0E0808181608083E1E2F1E0808154
:1018800082608083808181608083E0E2F1E08081FA
:1018900081608083EAE7F0E08081846080838081DA
:1018A0008260808380818160808380818068808382
:1018B0001092C100089590E0FC013197E231F105EA
:1018C00008F04DC08827EE58FF4F8F4FFEC0809123
:1018D00080008F7703C0809180008F7D809380008F
:1018E000089580918000877FF9CF84B58F7702C0FB
:1018F00084B58F7D84BD08958091B0008F7703C03B
:101900008091B0008F7D8093B00008958091900009
:101910008F7707C0809190008F7D03C080919000E9
:10192000877F8093900008958091A0008F7707C0F3
:101930008091A0008F7D03C08091A000877F80935D
:10194000A0000895809120018F7707C08091200129
:101950008F7D03C080912001877F809320010895AF
:10196000CF93DF9390E0FC01E25BFE4F2491FC01FA
:10197000EC56FE4F8491882361F190E0880F991F07
:10198000FC01E25FFD4FC591D491FC01EC50FE4F8C
:10199000A591B491611109C09FB7F89488812095F1
:1019A00082238883EC912E230BC0623061F49FB7B1
:1019B000F8948881322F309583238883EC912E2BE5
:1019C0002C939FBF06C08FB7F894E8812E2B2883F5
:1019D0008FBFDF91CF9108951F93CF93DF93282F6F
:1019E00030E0F901E85FFE4F8491F901E25BFE4FC0
:1019F000D491F901EC56FE4FC491CC23B9F0162FC7
:101A0000811159DFEC2FF0E0EE0FFF1FEC50FE4F7D
:101A1000A591B4919FB7F894111104C08C91D09501
:101A2000D82302C0EC91DE2BDC939FBFDF91CF91D6
:101A30001F910895CF93DF93282F30E0F901E85FDD
:101A4000FE4F8491F901E25BFE4FD491F901EC560F
:101A5000FE4FC491CC2389F081112DDFEC2FF0E0F3
:101A6000EE0FFF1FE652FE4FA591B491EC91ED23CE
:101A700081E090E021F480E002C080E090E0DF911E
:101A8000CF9108950895A1E21A2EAA1BBB1BFD0158
:101A90000DC0AA1FBB1FEE1FFF1FA217B307E4074D
:101AA000F50720F0A21BB30BE40BF50B661F771FA5
:101AB000881F991F1A9469F7609570958095909585
:101AC0009B01AC01BD01CF010895EE0FFF1F881FE0
:101AD0008BBF0790F691E02D19940F931F93CF932E
:101AE000DF938230910510F482E090E0E0910A07E4
:101AF000F0910B0720E030E0A0E0B0E0309719F162
:101B0000408151810281138148175907C8F0841719
:101B1000950769F4109731F012960C93129713966B
:101B20001C9327C000930A0710930B0722C02115AE
:101B3000310519F04217530718F49A01BD01EF015E
:101B4000DF01F801DBCF21153105F9F0281B390B36
:101B50002430310580F48A819B816115710521F063
:101B6000FB019383828304C090930B0780930A0741
:101B7000FE01329644C0FE01E20FF31F8193919360
:101B800022503109398328833AC0209108073091C7
:101B90000907232B41F42091020230910302309374
:101BA00009072093080720910002309101022115B6
:101BB000310541F42DB73EB7409104025091050222
:101BC000241B350BE0910807F0910907E217F30792
:101BD000A0F42E1B3F0B2817390778F0AC014E5F9D
:101BE0005F4F2417350748F04E0F5F1F50930907CA
:101BF000409308078193919302C0E0E0F0E0CF01A9
:101C0000DF91CF911F910F910895CF93DF930097AC
:101C100009F481C0FC01329713821282A0910A0755
:101C2000B0910B07109781F420813181820F931FAF
:101C300020910807309109072817390751F5F093CB
:101C40000907E093080767C0ED0120E030E0CE17F8
:101C5000DF0740F44A815B819E0141155105F1F097
:101C6000EA01F5CFD383C28340815181840F951F50
:101C7000C817D90759F488819981840F951F029656
:101C8000918380838A819B8193838283211531058F
:101C900029F4F0930B07E0930A073DC0E901FB83A9
:101CA000EA8349915991C40FD51FEC17FD0761F4E0
:101CB00080819181840F951F0296E9019983888321
:101CC000828193819B838A83E0E0F0E012968D917C
:101CD0009C911397009719F0FD01DC01F7CF8D91CE
:101CE0009C9111979D012E5F3F4F820F931F209172
:101CF0000807309109072817390769F4309729F444
:101D000010920B0710920A0702C013821282B0933E
:101D10000907A0930807DF91CF9108956F927F92F2
:101D20008F929F92AF92BF92CF92DF92EF92FF92EB
:101D30000F931F93CF93DF93009781F4CB01DF9133
:101D4000CF911F910F91FF90EF90DF90CF90BF90B8
:101D5000AF909F908F907F906F90BFCEFC01E60F69
:101D6000F71F9C0122503109E217F30708F4A5C0C0
:101D7000EC01D9010D911C91119706171707A8F0D6
:101D80000530110508F497C0C80104978617970716
:101D900008F491C002501109061B170B019311930F
:101DA0006D937C93CF0131DF86C05B01A01AB10A2D
:101DB0004C01800E911EA0910A07B0910B07612C77
:101DC000712CE12CF12C109709F446C08D919C9157
:101DD0001197A815B905B1F56C0142E0C40ED11CEC
:101DE000CA14DB0478F14C018A189B08640142E0B4
:101DF000C40ED11C1296BC9012971396AC91B5E00C
:101E0000CB16D10440F0B282A38391828082D901A3
:101E10006D937C9309C00E5F1F4F800F911FF901D6
:101E200091838083EB2DFA2FE114F10431F0D70177
:101E30001396FC93EE9312973EC0F0930B07E0933A
:101E40000A0739C06816790608F43C017D0112962C
:101E50000D90BC91A02DB7CF8091080790910907F4
:101E600088169906E1F466167706C8F48091000298
:101E700090910102009741F48DB79EB74091040202
:101E800050910502841B950BE817F907B0F4F09305
:101E90000907E0930807F901718360830CC0CB0147
:101EA0001CDE7C01009749F0A801BE0117D0CE01CD
:101EB000ACDEC70104C0CE0102C080E090E0DF913B
:101EC000CF911F910F91FF90EF90DF90CF90BF9037
:101ED000AF909F908F907F906F900895FB01DC01F1
:101EE00002C001900D9241505040D8F70895DC0196
:101EF00001C06D9341505040E0F70895FB01DC01B3
:101F000001900D920020E1F70895FB01DC014150A2
:101F1000504048F001900D920020C9F701C01D9279
:101F200041505040E0F70895FB0151915523A9F02D
:101F3000BF01DC014D9145174111E1F759F4CD0185
:101F40000190002049F04D9140154111C9F3FB016A
:101F50004111EFCF81E090E001970895453251059E
:101F600018F4423008F004C0FB011082CB01089540
:101F7000BB274A3031F4992322F4BDE29095819534
:101F80009F4F01C0BB27FB015527AA27880F991F28
:101F9000AA1FA41710F0A41B83955051B9F7A05D98
:101FA000AA3308F0A95DA193009779F7B111B19315
:101FB0001192CB0100C0DC01FC01672F71917723E6
:101FC000E1F7329704C07C916D9370836291AE17F4
:0A1FD000BF07C8F30895F894FFCF8F
:101FDA0000000C0720000C000D0046434D4900315B
:101FEA0038322E39322E3232382E3738002F7A6D67
:101FFA00687A782F6170702F66697368696E672FC7
:10200A0073656E64007365747570206F6B21006C64
:10201A006F6F702073746172743E3E3E006C6F6F16
:10202A00702066696E69736865643C3C3C00737431
:10203A00617274007377697468206973200073771A
:10204A00697468206F6E006765742066696E6973CB
:10205A00680020485454502F312E3100206170708E
:10206A006C69636174696F6E2F782D7777772D6647
:10207A006F726D2D75726C656E636F646564005066
:10208A004F535400474554001A0073696D39303074
:10209A006120706F7765726F6E006261636B3A00E0
:1020AA0073657269616C526573706F6E73652069CE
:1020BA00732066756C6C002E00206973204F4B21CB
:1020CA0020007265616446726F6D4D79536572695D
:1020DA00616C2074696D656F75742C7573652074F5
:1020EA00696D65203A007472793A00726574727982
:1020FA0074696D656F75743A0073696D3930306152
:10210A002070726570617265203E3E3E0041540047
:10211A0041542B434950534855540041542B434989
:10212A00504D55583D300041542B43474154543D7E
:10213A00310041542B435354543D227777772E7301
:10214A006370222C22222C22220041542B43495014
:10215A00535052543D310041542B43494943520094
:10216A0041542B43494653520073696D39303061EB
:10217A00207072657061726564203C3C3C00415479
:10218A002B53415042523D332C312C22434F4E5453
:10219A00595045222C2247505253220041542B5366
:1021AA0041504252203D312C310041542B48545465
:1021BA00505445524D0041542B48545450494E49AD
:1021CA00540041542B43495053544152543D2254D4
:1021DA004350222C2200222C00434F4E4E4543549A
:1021EA00204F4B007265616446726F6D536572765B
:1021FA0065720041542B43495053454E443D353195
:10220A0032007363700041542B4854545050415269
:10221A00413D2255524C222C220041542B48545401
:10222A0050444154413D00444F574E4C4F414400A5
:10223A0041542B48545450444154413D3236303075
:10224A002C31353030300041542B485454505041D1
:10225A0052413D22434944222C31002B48545450C8
:10226A00414354494F4E3A0041542B48545450412B
:10227A004354494F4E3D3100687474702047657469
:10228A00203E3E3E006874747020506F7374203E86
:10229A003E3E00484F53543A2000436F6E74656EB9
:1022AA00742D547970653A00436F6E74656E742D9F
:1022BA004C656E6774683A2000636C6F73655F6380
:1022CA006F6E6E656374203E3E3E00434C4F53452D
:1022DA00204F4B0041542B434950434C4F53450028
:1022EA0072657175657374203E3E3E000000000001
:1022FA00FB06EF0871068B067D0641070D0A006E84
:0C230A00616E00696E66006F7666000070
:00000001FF
