:1000000008C1000034C1000032C1000030C100004E
:100010002EC100002CC100002AC1000028C1000030
:1000200026C1000024C1000022C1000020C1000040
:100030001EC100001CC100001AC1000018C1000050
:1000400016C1000014C1000012C1000010C1000060
:100050000EC100000CC100000AC1000057C500001D
:1000600006C10000BDC30000F1C3000000C10000D4
:10007000FEC00000FCC00000FAC00000F8C0000094
:10008000F6C00000F4C00000F2C00000F0C00000A4
:10009000EEC00000ECC00000EAC00000E8C00000B4
:1000A000E6C00000E4C00000E2C00000E0C00000C4
:1000B000DEC00000DCC00000DAC00000D8C00000D4
:1000C000D6C00000D4C00000D2C00000D0C00000E4
:1000D000CEC00000CCC00000CAC00000C8C00000F4
:1000E000C6C00000A106A406930697069D06DB067F
:1000F000A806AC06B206B606BA06C006C406C8060E
:10010000DB06CE06D206D60600000A0B02090C0D4D
:100110000E080703040100000000000000000000BA
:1001200000000000000000000000000000000000CF
:10013000000000001211100000000000000000008C
:1001400000000000000000000000000000000102AC
:1001500010202008081020401020408002010201D9
:100160000804020101020408102040808040201091
:1001700008040201800402018040201008040201EA
:100180000804020101020408102040800102040852
:10019000102040800505050507050808080802022B
:1001A00002020A0A08080404040401010101010111
:1001B00001010303030303030303040707070C0CF4
:1001C0000C0C0C0C0C0C02020202060606060606BB
:1001D00006060B0B0B0B0B0B0B0B00002000230078
:1001E000260029002C002F0032000001000003012E
:1001F0000601090100002200250028002B002E0026
:100200003100340002010000050108010B018F02DA
:10021000580411241FBECFEFD1E2DEBFCDBF00E0F6
:100220000CBF12E0A0E0B2E0E4EEF1E100E00BBFB1
:1002300002C007900D92A432B107D9F722E0A4E2E0
:10024000B2E001C01D92AE3CB207E1F711E0C9E097
:10025000D1E000E005C021970109802FFE012ED6D4
:10026000C730D10780E00807B1F746D4B9C7C8CE78
:10027000CF92DF92EF92FF920F931F93E82FF92F07
:1002800005C0015011092109310961F190819623BE
:100290009417B9F305C0015011092109310911F171
:1002A000908196239413F7CFC12CD12CE12CF12C03
:1002B0000AC08FEFC81AD80AE80AF80A0C151D05FB
:1002C0002E053F0579F080818623841791F36C2DEC
:1002D0007D2D8E2D9F2D1F910F91FF90EF90DF9020
:1002E000CF90089560E070E080E090E01F910F9162
:1002F000FF90EF90DF90CF900895CF93DF9300D0E1
:100300001F92CDB7DEB79C838B838B819C81FC01D0
:100310008081918160E050D582E090E08BD48B8128
:100320009C81FC018081918161E046D58AE090E06A
:1003300081D48B819C81FC018081918160E03CD5DE
:100340008B819C81FC018281938120E432E44FE027
:1003500050E061E05FD5DC01CB01BC01CD014FD69F
:10036000DC01CB0120E030E048E652E4BC01CD01E5
:10037000ADD5DC01CB01BC01CD0110D6DC01CB0138
:100380009A83898389819A81092E000CAA0BBB0B61
:10039000BC01CD0136D6DC01CB0120E030E048ECD9
:1003A00052E4BC01CD01B9D6DC01CB01BC01CD01C9
:1003B000F5D5DC01CB01092E000CAA0BBB0BBC014F
:1003C000CD011FD6DC01CB0120E030E048EC52E447
:1003D000BC01CD017BD5DC01CB01BC01CD01DED55B
:1003E000DC01CB019A83898389819A814AE050E0BC
:1003F000BC0188E292E079D360E072E088E292E0AA
:10040000CBD289819A810F900F900F900F90DF913E
:10041000CF910895CF93DF9300D000D0CDB7DEB752
:100420009A8389834B835C836D837E838B819C81DC
:10043000AD81BE81E981FA8126E0AC01BD01CF0129
:100440006CD1000026960FB6F894DEBF0FBECDBF6C
:10045000DF91CF910895CF93DF9300D000D0CDB737
:10046000DEB79A8389837C836B835E834D83898126
:100470009A812B813C81FC013183208389819A817F
:100480002D813E81FC0133832283000026960FB626
:10049000F894DEBF0FBECDBFDF91CF910895CF930B
:1004A000DF93CDB7DEB740E052EC61E070E088E268
:1004B00092E0B0DF0000DF91CF910895CF93DF93FA
:1004C000CDB7DEB784E292E018DF62E370E080E04F
:1004D00090E08BD30000DF91CF910895CF93DF930D
:1004E00000D01F92CDB7DEB79A8389837C836B835C
:1004F00089819A81019759F48B819C81019639F405
:1005000043E050E062E070E084E292E0A4DF0000AB
:100510000F900F900F900F90DF91CF910895CF9390
:10052000DF93CDB7DEB76FEF7FEF81E090E0D6DFEE
:10053000DF91CF910895FC01918D228D892F90E05C
:10054000805C9F4F821B91098F7399270895FC014E
:10055000918D828D981731F0828DE80FF11D858D78
:1005600090E008958FEF9FEF0895FC01918D828DAB
:10057000981761F0828DDF01A80FB11D5D968C91F7
:10058000928D9F5F9F73928F90E008958FEF9FEF02
:1005900008958FE494E0892B39F080E090E0892B76
:1005A00019F07DD1811125C080E090E0892B41F0C8
:1005B00080E090E0892B21F00E94000081111CC096
:1005C00080E090E0892B41F080E090E0892B21F0E1
:1005D0000E940000811113C080E090E0892BA1F0FF
:1005E00080E090E0892B81F00E94000081110AC018
:1005F00008950E940000D8CF0E940000E1CF0E9421
:100600000000EACF0C9400000895FC01848DDF0106
:10061000A80FB11DA35ABF4F2C91848D90E0019675
:100620008F739927848FA689B7892C93A089B18964
:100630008C9180648C93938D848D981306C002886E
:10064000F389E02D80818F7D80830895EF92FF9262
:100650000F931F93CF93DF93EC0181E0888F9B8DE5
:100660008C8D981305C0E889F989808185FD23C0A8
:10067000F62E0B8D10E00F5F1F4F0F731127E02E2A
:100680008C8DE8120BC00FB607FCFACFE889F98908
:10069000808185FFF5CFCE01B8DFF2CF8B8DFE01D3
:1006A000E80FF11DE35AFF4FF0820B8FEA89FB89B7
:1006B0008081806207C0EE89FF896083E889F989BB
:1006C00080818064808381E090E0DF91CF911F91F1
:1006D0000F91FF90EF900895CF93DF93EC01888DF9
:1006E0008823C1F0EA89FB89808185FD05C0A8893E
:1006F000B9898C9186FD0EC00FB607FCF5CF8081BD
:1007000085FFF2CFA889B9898C9185FFEDCFCE0105
:100710007CDFE8CFDF91CF910895CF92DF92EF9207
:10072000FF921F93CF93DF93EC016A017B01122F9D
:10073000E889F98982E080834115514E6105710590
:10074000A9F060E079E08DE390E0A701960194D3F1
:10075000DA01C9010197A109B109B695A795979545
:1007600087959C01211580E13807A0F0E889F98977
:10077000108260E874E88EE190E0A70196017CD3D6
:10078000DA01C9010197A109B109B695A795979515
:1007900087959C01EC85FD853083EE85FF85208360
:1007A000188EEC89FD891083EA89FB89808180613C
:1007B0008083EA89FB89808188608083EA89FB895C
:1007C000808180688083EA89FB8980818F7D808336
:1007D000DF91CF911F91FF90EF90DF90CF90089520
:1007E0001F920F920FB60F9211240BB60F922F93F8
:1007F0008F939F93EF93FF93E0913802F09139022A
:100800008081E0913E02F0913F0282FD12C0908112
:10081000809141028F5F8F7320914202821751F0C5
:10082000E0914102F0E0E85DFD4F958F8093410239
:1008300001C08081FF91EF919F918F912F910F9037
:100840000BBE0F900FBE0F901F9018951F920F9226
:100850000FB60F9211240BB60F922F933F934F9325
:100860005F936F937F938F939F93AF93BF93EF9318
:10087000FF9388E292E0C9DEFF91EF91BF91AF91C3
:100880009F918F917F916F915F914F913F912F91A8
:100890000F900BBE0F900FBE0F901F90189588E21F
:1008A00092E049DE21E0892B09F420E0822F0895AF
:1008B000E8E2F2E01382128288EE93E0A0E0B0E07A
:1008C00084839583A683B78387E092E091838083B6
:1008D00085EC90E09587848784EC90E09787868705
:1008E00080EC90E0918B808B81EC90E0938B828BFD
:1008F00082EC90E0958B848B86EC90E0978B868BD6
:10090000118E128E138E148E0895CF92DF92EF9275
:10091000FF920F931F93CF93DF936C01EB017B0149
:10092000E40EF51E00E010E0CE15DF0561F06991E0
:10093000D601ED91FC910190F081E02DC601199551
:10094000080F191FF1CFC801DF91CF911F910F91AF
:10095000FF90EF90DF90CF9008956115710579F0C9
:10096000FB0101900020E9F73197AF01461B570BBF
:10097000DC01ED91FC910280F381E02D199480E07F
:1009800090E00895DC01ED91FC910190F081E02D63
:10099000199463E172E0E1CF0F931F93CF93DF933C
:1009A000EC01DBDF8C01CE01F4DF800F911FDF91C2
:1009B000CF911F910F9108958F929F92AF92BF9206
:1009C000CF92DF92EF92FF920F931F93CF93DF931B
:1009D000CDB7DEB7A1970FB6F894DEBF0FBECDBF7F
:1009E0006C01142FE52FCB01022F19A2223008F43D
:1009F0000AE07E0121E2E20EF11C802E912CA12C56
:100A0000B12C612F7E2FA501940136D2029F1019BF
:100A1000112481E0E81AF1081A3014F4105D01C0C5
:100A2000195CF7011083122FE32FCA01232B242B0B
:100A3000252B39F7B701C60190DFA1960FB6F894C0
:100A4000DEBF0FBECDBFDF91CF911F910F91FF9001
:100A5000EF90DF90CF90BF90AF909F908F900895D0
:100A6000CF92DF92EF92FF920F931F93CF93DF937A
:100A70002115310581F4DC01ED91FC910190F081AB
:100A8000E02D642FDF91CF911F910F91FF90EF9098
:100A9000DF90CF9019942A303105F1F477FF1BC015
:100AA0006A017B01EC016DE26DDF8C014427552763
:100AB000BA014C195D096E097F092AE0CE017CDF7D
:100AC000800F911FDF91CF911F910F91FF90EF90B9
:100AD000DF90CF9008952AE0DF91CF911F910F9181
:100AE000FF90EF90DF90CF9067CF9A01AB01770F27
:100AF000660B770BB5CF0895A8D0FDDFD0DCC9EC2D
:100B0000D2E0DCDC2097E9F344DDFBCF1F920F92AB
:100B10000FB60F9211242F933F938F939F93AF9310
:100B2000BF938091C6029091C702A091C802B09174
:100B3000C9023091C50223E0230F2D3720F401961E
:100B4000A11DB11D05C026E8230F0296A11DB11DF0
:100B50002093C5028093C6029093C702A093C80257
:100B6000B093C9028091CA029091CB02A091CC02AD
:100B7000B091CD020196A11DB11D8093CA02909340
:100B8000CB02A093CC02B093CD02BF91AF919F91C5
:100B90008F913F912F910F900FBE0F901F9018953E
:100BA0003FB7F8948091CA029091CB02A091CC02F9
:100BB000B091CD0226B5A89B05C02F3F19F0019634
:100BC000A11DB11D3FBFBA2FA92F982F8827820FD3
:100BD000911DA11DB11DBC01CD0142E0660F771F23
:100BE000881F991F4A95D1F70895CF92DF92EF920F
:100BF000FF92CF93DF936B017C01D2DFEB01C11435
:100C0000D104E104F10479F036D1CADF6C1B7D0B0D
:100C1000683E7340A0F381E0C81AD108E108F108EA
:100C2000C851DC4FECCFDF91CF91FF90EF90DF9078
:100C3000CF9008958230910538F0880F991F880F62
:100C4000991F05970197F1F70895789484B582600C
:100C500084BD84B5816084BD85B5826085BD85B560
:100C6000816085BDEEE6F0E0808181608083E1E80F
:100C7000F0E0108280818260808380818160808347
:100C8000E0E8F0E0808181608083E1EBF0E080814A
:100C900084608083E0EBF0E0808181608083E1E923
:100CA000F0E0808182608083808181608083E0E9E0
:100CB000F0E0808181608083E1EAF0E08081826001
:100CC0008083808181608083E0EAF0E080818160C0
:100CD0008083E1E2F1E080818260808380818160B5
:100CE0008083E0E2F1E0808181608083EAE7F0E0E8
:100CF0008081846080838081826080838081816044
:100D000080838081806880831092C100089590E084
:100D1000FC013197E231F10508F04DC08827EE580B
:100D2000FF4F8F4FCBC0809180008F7703C08091A1
:100D300080008F7D80938000089580918000877F60
:100D4000F9CF84B58F7702C084B58F7D84BD0895B7
:100D50008091B0008F7703C08091B0008F7D809329
:100D6000B0000895809190008F7707C08091900027
:100D70008F7D03C080919000877F809390000895BD
:100D80008091A0008F7707C08091A0008F7D03C065
:100D90008091A000877F8093A0000895809120011A
:100DA0008F7707C0809120018F7D03C08091200143
:100DB000877F8093200108951F93CF93DF93282F7F
:100DC00030E0F901E85FFE4F8491F901E25BFE4FEC
:100DD000D491F901EC56FE4FC491CC23B9F0162FF3
:100DE000811195DFEC2FF0E0EE0FFF1FEC50FE4F6E
:100DF000A591B4919FB7F894111104C08C91D0952E
:100E0000D82302C0EC91DE2BDC939FBFDF91CF9102
:100E10001F9108950F931F9390E0FC01E25BFE4F3A
:100E20007491FC01EC56FE4FE491662311F0672F9C
:100E300001C060E0F0E0EE0FFF1FE652FE4F85912B
:100E4000949189019A013F70462F672F11DA61153D
:100E500071058105910549F0DC01CB010196A11DC9
:100E6000B11DBC01CD019F7003C060E070E0CB01FB
:100E70001F910F9108950895A1E21A2EAA1BBB1B82
:100E8000FD010DC0AA1FBB1FEE1FFF1FA217B30756
:100E9000E407F50720F0A21BB30BE40BF50B661F6C
:100EA000771F881F991F1A9469F760957095809530
:100EB00090959B01AC01BD01CF010895EE0FFF1F7E
:100EC000881F8BBF0790F691E02D19940CD0EBC0D2
:100ED000E3D040F0DAD030F021F45F3F19F0CCC01D
:100EE000511115C1CFC0F0D098F39923C9F3552300
:100EF000B1F3951B550BBB27AA276217730784070D
:100F000038F09F5F5F4F220F331F441FAA1FA9F3C2
:100F100033D00E2E3AF0E0E830D091505040E695B4
:100F2000001CCAF729D0FE2F27D0660F771F881F15
:100F3000BB1F261737074807AB07B0E809F0BB0B04
:100F4000802DBF01FF2793585F4F2AF09E3F510528
:100F500068F092C0DCC05F3FECF3983EDCF386950E
:100F600077956795B795F7959F5FC9F7880F911D9E
:100F70009695879597F90895E1E0660F771F881F8A
:100F8000BB1F621773078407BA0720F0621B730B3D
:100F9000840BBA0BEE1F88F7E095089504D068948F
:100FA000B111B5C0089598D088F09F5790F0B92F2F
:100FB0009927B751A0F0D1F0660F771F881F991FAE
:100FC0001AF0BA95C9F712C0B13081F09FD0B1E0E4
:100FD00008959CC0672F782F8827B85F39F0B93FF4
:100FE000CCF3869577956795B395D9F73EF49095B0
:100FF0008095709561957F4F8F4F9F4F0895E8942E
:1010000009C097FB3EF490958095709561957F4F50
:101010008F4F9F4F9923A9F0F92F96E9BB279395FE
:10102000F695879577956795B795F111F8CFFAF40E
:10103000BB0F11F460FF1BC06F5F7F4F8F4F9F4F3F
:1010400016C0882311F096E911C0772321F09EE89D
:10105000872F762F05C0662371F096E8862F70E003
:1010600060E02AF09A95660F771F881FDAF7880FDD
:101070009695879597F9089597F99F6780E870E0AE
:1010800060E008959FEF80EC089500240A941616FE
:10109000170618060906089500240A941216130666
:1010A000140605060895092E0394000C11F48823F4
:1010B00052F0BB0F40F4BF2B11F460FF04C06F5F10
:1010C0007F4F8F4F9F4F089557FD9058440F551FE6
:1010D00059F05F3F71F04795880F97FB991F61F0BA
:1010E0009F3F79F087950895121613061406551F31
:1010F000F2CF4695F1DF08C0161617061806991F9D
:10110000F1CF86957105610508940895E894BB2791
:1011100066277727CB0197F908950BD0C4CFB5DFA9
:1011200028F0BADF18F0952309F0A6CFABCF112431
:10113000EECFCADFA0F3959FD1F3950F50E0551F76
:10114000629FF001729FBB27F00DB11D639FAA271C
:10115000F00DB11DAA1F649F6627B00DA11D661F6B
:10116000829F2227B00DA11D621F739FB00DA11D8C
:10117000621F839FA00D611D221F749F3327A00D46
:10118000611D231F849F600D211D822F762F6A2FE2
:1011900011249F5750408AF0E1F088234AF0EE0F67
:1011A000FF1FBB1F661F771F881F91505040A9F774
:1011B0009E3F510570F060CFAACF5F3FECF3983EA1
:1011C000DCF3869577956795B795F795E7959F5FDB
:1011D000C1F7FE2B880F911D9695879597F9089575
:0411E000F894FFCFB1
:1011E400636D0000000000260385049B02B502A77E
:1011F400026C030D0A006E616E00696E66006F7604
:0412040066002E0052
:00000001FF
