:1000000014C1000041C100003FC100003DC100001B
:100010003BC1000039C1000037C1000035C10000FC
:1000200033C1000031C100002FC100002DC100000C
:100030002BC1000029C1000027C1000025C100001C
:1000400023C1000021C100001FC100001DC100002C
:100050001BC1000019C1000017C100008DC40000C1
:1000600013C1000031C1000065C100000DC10000D6
:100070000BC1000009C1000007C1000005C100005C
:1000800003C1000001C10000FFC00000FDC000006E
:10009000FBC00000F9C00000F7C00000F5C0000080
:1000A000F3C00000F1C00000EFC00000EDC0000090
:1000B000EBC00000E9C00000E7C00000E5C00000A0
:1000C000E3C00000E1C00000DFC00000DDC00000B0
:1000D000DBC00000D9C00000D7C00000D5C00000C0
:1000E000D3C00000E305E605D505D905DF051D06EB
:1000F000EA05EE05F405F805FC05020606060A0603
:100100001D0610061406180600000A0B02090C0D45
:100110000E080703040100000000000000000000BA
:1001200000000000000000000000000000000000CF
:10013000000000001211100000000000000000008C
:1001400000000000000000000000000000000102AC
:1001500010202008081020401020408002010201D9
:100160000804020101020408102040808040201091
:1001700008040201800402018040201008040201EA
:100180000804020101020408102040800102040852
:10019000102040800505050507050808080802022B
:1001A00002020A0A08080404040401010101010111
:1001B00001010303030303030303040707070C0CF4
:1001C0000C0C0C0C0C0C02020202060606060606BB
:1001D00006060B0B0B0B0B0B0B0B00002000230078
:1001E000260029002C002F0032000001000003012E
:1001F0000601090100002200250028002B002E0026
:100200003100340002010000050108010B0100006B
:100210002100240027002A002D00300033000101B6
:100220000000040107010A01CC0111241FBECFEF19
:10023000D1E2DEBFCDBF00E00CBF12E0A0E0B2E033
:10024000E0E0F5E100E00BBF02C007900D92A233A1
:10025000B107D9F722E0A2E3B2E001C01D92A83DA8
:10026000B207E1F711E0C5E1D1E000E005C0219758
:100270000109802FFE0117D7C431D10780E008079C
:10028000B1F770D30C947E0ABBCE61E0809100027E
:10029000D5C4CF93DF9362E072E082E392E04CD169
:1002A000C0E0D2E061E0888105D568E873E180E0D4
:1002B00090E0DDD360E08881FDD468E873E180E000
:1002C00090E0DF91CF91D3C31F920F920FB60F92A0
:1002D00011240BB60F922F938F939F93EF93FF935D
:1002E000E0914202F09143028081E0914802F09156
:1002F000490282FD12C0908180914B028F5F8F7303
:1003000020914C02821751F0E0914B02F0E0EE5C3C
:10031000FD4F958F80934B0201C08081FF91EF913B
:100320009F918F912F910F900BBE0F900FBE0F904A
:100330001F9018951F920F920FB60F9211240BB6B3
:100340000F922F933F934F935F936F937F938F936E
:100350009F93AF93BF93EF93FF9382E392E06AD5AD
:10036000FF91EF91BF91AF919F918F917F916F918D
:100370005F914F913F912F910F900BBE0F900FBE49
:100380000F901F90189582E392E0EAD421E0892B28
:1003900009F420E0822F0895E2E3F2E01382128252
:1003A00088EE93E0A0E0B0E084839583A683B783D2
:1003B00085E292E09183808385EC90E09587848745
:1003C00084EC90E09787868780EC90E0918B808B1F
:1003D00081EC90E0938B828B82EC90E0958B848B08
:1003E00086EC90E0978B868B118E128E138E148E76
:1003F0000895CF92DF92EF92FF920F931F93CF93C6
:10040000DF936C01EB017B01E40EF51E00E010E0D0
:10041000CE15DF0561F06991D601ED91FC91019057
:10042000F081E02DC6011995080F191FF1CFC80101
:10043000DF91CF911F910F91FF90EF90DF90CF90C0
:1004400008956115710579F0FB0101900020E9F72D
:100450003197AF01461B570BDC01ED91FC910280F7
:10046000F381E02D199480E090E00895EF92FF92DF
:100470000F931F93CF93DF937C01FB0100E010E00B
:100480006491EF012196662361F0D701ED91FC9113
:100490000190F081E02DC7011995080F191FFE0189
:1004A000EFCFC801DF91CF911F910F91FF90EF9097
:1004B0000895DB0114964D915C9115976D917C9197
:1004C000DC01ED91FC910280F381E02D1994B9CF0C
:1004D000DC01ED91FC910190F081E02D1994DB019C
:1004E000ED91FC9111970190F081E02DBC01CD01BF
:1004F000199468E072E0A5CF0F931F93CF93DF9319
:10050000EC01B4DF8C01CE01F4DF800F911FDF918D
:10051000CF911F910F9108950F931F93CF93DF9366
:10052000EC01C7DF8C01CE01E4DF800F911FDF916A
:10053000CF911F910F9108950F931F93CF93DF9346
:10054000EC017FDF8C01CE01D4DF800F911FDF91A2
:10055000CF911F910F9108950F931F93CF93DF9326
:10056000EC01B6DF8C01CE01C4DF800F911FDF915B
:10057000CF911F910F9108950F931F93CF93DF9306
:10058000EC01ADDF8C01CE01B4DF800F911FDF9154
:10059000CF911F910F9108958F929F92AF92BF922A
:1005A000CF92DF92EF92FF920F931F93CF93DF933F
:1005B000CDB7DEB7A1970FB6F894DEBF0FBECDBFA3
:1005C0006C01142FE52FCB01022F19A2223008F461
:1005D0000AE07E0121E2E20EF11C802E912CA12C7A
:1005E000B12C612F7E2FA50194013BD5029F1019DC
:1005F000112481E0E81AF1081A3014F4105D01C0EA
:10060000195CF7011083122FE32FCA01232B242B2F
:10061000252B39F7B701C60114DFA1960FB6F89460
:10062000DEBF0FBECDBFDF91CF911F910F91FF9025
:10063000EF90DF90CF90BF90AF909F908F900895F4
:100640002115310541F4DC01ED91FC910190F0811F
:10065000E02D642F1994A0CF9A01462F50E060E05E
:1006600070E0EECF0F931F93CF93DF93EC01F4DF95
:100670008C01CE013EDF800F911FDF91CF911F9142
:100680000F9108959A01AB0160E070E0D9CF0F930C
:100690001F93CF93DF93EC01F5DF8C01CE0129DFAF
:1006A000800F911FDF91CF911F910F9108950F93AC
:1006B0001F93CF93DF93EC01C3DF8C01CE0119DFD1
:1006C000800F911FDF91CF911F910F910895CF92CD
:1006D000DF92EF92FF920F931F93CF93DF93211539
:1006E000310581F4DC01ED91FC910190F081E02D68
:1006F000642FDF91CF911F910F91FF90EF90DF90CA
:10070000CF9019942A303105F1F477FF1BC06A01AC
:100710007B01EC016DE2DCDE8C0144275527BA0138
:100720004C195D096E097F092AE0CE0135DF800F83
:10073000911FDF91CF911F910F91FF90EF90DF906C
:10074000CF9008952AE0DF91CF911F910F91FF90F4
:10075000EF90DF90CF9020CF9A01AB01770F660B1F
:10076000770BB5CF0F931F93CF93DF93EC01F4DF9B
:100770008C01CE01BEDE800F911FDF91CF911F91C2
:100780000F9108950F931F93CF93DF93EC019FDF99
:100790008C01CE01AEDE800F911FDF91CF911F91B2
:1007A0000F9108957F928F929F92AF92BF92CF92B6
:1007B000DF92EF92FF920F931F93CF93DF938C0101
:1007C0006A017B01722E9A01AB01C701B6018ED678
:1007D000882319F06BE072E024C046015701E894C9
:1007E000B7F82FEF3FEF4FE75FE7C501B4017ED6C3
:1007F00081110CC02FEF3FEF4FE75FE7C501B40158
:10080000BFD418161CF46FE072E00BC02FEF3FEF5F
:100810004FE75FE4C701B60102D618168CF463E116
:1008200072E0C801DF91CF911F910F91FF90EF907F
:10083000DF90CF90BF90AF909F908F907F9001CE30
:100840002FEF3FEF4FE75FECC701B60199D487FD6B
:10085000E6CF20E030E0A901C701B60191D487FFBF
:1008600009C06DE2C80134DEEC01F7FAF094F7F844
:10087000F09402C0C0E0D0E0B12C60E070E080E015
:100880009FE37B1439F020E030E040E251E47CD477
:10089000B394F7CFA70196010FD46B017C01E1D48B
:1008A0004B015C012AE0AB01BC01C80175DEC80F39
:1008B000D91F772089F1C501B401FFD49B01AC0198
:1008C000C701B601F8D36B017C0167E172E0C80192
:1008D000B8DDC80FD91F20E030E040E251E4C70185
:1008E000B601A1D54B015C01B7D46B017C014AE094
:1008F00050E0C80131DFC80FD91FB601DD0C880BED
:10090000990BDDD49B01AC01C501B401D4D36B01BB
:100910007C017A947110DFCFCE01DF91CF911F91CE
:100920000F91FF90EF90DF90CF90BF90AF909F908E
:100930008F907F90089536CF0F931F93CF93DF93BF
:10094000EC0130DF8C01CE01D4DD800F911FDF91EF
:10095000CF911F910F910895CDD5CCD580E090E037
:1009600008950895B4D0FDDF90DCCEEDD6E091DCA3
:100970002097E9F323D2FBCF1F920F920FB60F926D
:1009800011242F933F938F939F93AF93BF938091A5
:10099000D0029091D102A091D202B091D3023091B5
:1009A000CF0223E0230F2D3720F40196A11DB11DA6
:1009B00005C026E8230F0296A11DB11D2093CF028A
:1009C0008093D0029093D102A093D202B093D3022D
:1009D0008091D4029091D502A091D602B091D70215
:1009E0000196A11DB11D8093D4029093D502A093CE
:1009F000D602B093D702BF91AF919F918F913F9153
:100A00002F910F900FBE0F901F9018952FB7F8944D
:100A10006091D0027091D1028091D2029091D30264
:100A20002FBF08953FB7F8948091D4029091D502DA
:100A3000A091D602B091D70226B5A89B05C02F3F42
:100A400019F00196A11DB11D3FBFBA2FA92F982FF4
:100A50008827820F911DA11DB11DBC01CD0142E06F
:100A6000660F771F881F991F4A95D1F70895CF9277
:100A7000DF92EF92FF92CF93DF936B017C01D2DF85
:100A8000EB01C114D104E104F10479F0E9D2CADF29
:100A90006C1B7D0B683E7340A0F381E0C81AD1083F
:100AA000E108F108C851DC4FECCFDF91CF91FF9006
:100AB000EF90DF90CF9008958230910538F0880F45
:100AC000991F880F991F05970197F1F7089578945A
:100AD00084B5826084BD84B5816084BD85B5826043
:100AE00085BD85B5816085BDEEE6F0E080818160E1
:100AF0008083E1E8F0E010828081826080838081E1
:100B000081608083E0E8F0E0808181608083E1EBB8
:100B1000F0E0808184608083E0EBF0E080818160A0
:100B20008083E1E9F0E08081826080838081816060
:100B30008083E0E9F0E0808181608083E1EAF0E099
:100B4000808182608083808181608083E0EAF0E040
:100B5000808181608083E1E2F1E080818260808336
:100B6000808181608083E0E2F1E080818160808328
:100B7000EAE7F0E080818460808380818260808306
:100B80008081816080838081806880831092C10031
:100B9000089590E0FC013197E231F10508F04DC075
:100BA0008827EE58FF4F8F4F7EC2809180008F774D
:100BB00003C0809180008F7D809380000895809194
:100BC0008000877FF9CF84B58F7702C084B58F7D91
:100BD00084BD08958091B0008F7703C08091B000EC
:100BE0008F7D8093B0000895809190008F7707C02B
:100BF000809190008F7D03C080919000877F8093CB
:100C0000900008958091A0008F7707C08091A00088
:100C10008F7D03C08091A000877F8093A0000895FE
:100C2000809120018F7707C0809120018F7D03C0C4
:100C300080912001877F809320010895CF93DF93D7
:100C400090E0FC01E25BFE4F2491FC01EC56FE4F6C
:100C50008491882361F190E0880F991FFC01E25F85
:100C6000FD4FC591D491FC01EC50FE4FA591B4917C
:100C7000611109C09FB7F8948881209582238883E9
:100C8000EC912E230BC0623061F49FB7F8948881F9
:100C9000322F309583238883EC912E2B2C939FBF8A
:100CA00006C08FB7F894E8812E2B28838FBFDF9181
:100CB000CF9108951F93CF93DF93282F30E0F90150
:100CC000E85FFE4F8491F901E25BFE4FD491F90198
:100CD000EC56FE4FC491CC23B9F0162F811159DF89
:100CE000EC2FF0E0EE0FFF1FEC50FE4FA591B491FA
:100CF0009FB7F894111104C08C91D095D82302C0ED
:100D0000EC91DE2BDC939FBFDF91CF911F91089573
:100D1000CF93DF93282F30E0F901E85FFE4F8491F5
:100D2000F901E25BFE4FD491F901EC56FE4FC491FC
:100D3000CC2389F081112DDFEC2FF0E0EE0FFF1FA7
:100D4000E652FE4FA591B491EC91ED2381E090E045
:100D500021F480E002C080E090E0DF91CF9108951F
:100D6000FC01918D228D892F90E0805C9F4F821B2A
:100D700091098F7399270895FC01918D828D9817A1
:100D800031F0828DE80FF11D858D90E008958FEF91
:100D90009FEF0895FC01918D828D981761F0828DEF
:100DA000DF01A80FB11D5D968C91928D9F5F9F739F
:100DB000928F90E008958FEF9FEF089583EC91E07C
:100DC000892B39F080E090E0892B19F0DCDA811171
:100DD00025C080E090E0892B41F080E090E0892BF5
:100DE00021F00E94000081111CC080E090E0892B5E
:100DF00041F080E090E0892B21F00E9400008111F9
:100E000013C080E090E0892BA1F080E090E0892B76
:100E100081F00E94000081110AC008950E94000024
:100E2000D8CF0E940000E1CF0E940000EACF0C94CE
:100E300000000895FC01848DDF01A80FB11DA35AA5
:100E4000BF4F2C91848D90E001968F739927848FEA
:100E5000A689B7892C93A089B1898C9180648C93E1
:100E6000938D848D981306C00288F389E02D8081CC
:100E70008F7D80830895EF92FF920F931F93CF93FE
:100E8000DF93EC0181E0888F9B8D8C8D981305C0DA
:100E9000E889F989808185FD23C0F62E0B8D10E04D
:100EA0000F5F1F4F0F731127E02E8C8DE8120BC0C0
:100EB0000FB607FCFACFE889F989808185FFF5CF65
:100EC000CE01B8DFF2CF8B8DFE01E80FF11DE35AA2
:100ED000FF4FF0820B8FEA89FB898081806207C017
:100EE000EE89FF896083E889F98980818064808345
:100EF00081E090E0DF91CF911F910F91FF90EF90F3
:100F00000895CF93DF93EC01888D8823C1F0EA899F
:100F1000FB89808185FD05C0A889B9898C9186FDF2
:100F20000EC00FB607FCF5CF808185FFF2CFA889F0
:100F3000B9898C9185FFEDCFCE017CDFE8CFDF91C1
:100F4000CF910895CF92DF92EF92FF921F93CF93AC
:100F5000DF93EC016A017B01122FE889F98982E0B5
:100F600080834115514E61057105A9F060E079E07B
:100F70008DE390E0A701960174D0DA01C9010197D1
:100F8000A109B109B695A795979587959C0121155B
:100F900080E13807A0F0E889F989108260E874E8F8
:100FA0008EE190E0A70196015CD0DA01C9010197BA
:100FB000A109B109B695A795979587959C01EC85F0
:100FC000FD853083EE85FF852083188EEC89FD89B1
:100FD0001083EA89FB89808180618083EA89FB89AB
:100FE000808188608083EA89FB8980818068808332
:100FF000EA89FB8980818F7D8083DF91CF911F916A
:10100000FF90EF90DF90CF900895FC01938D848D39
:101010009813FCCFA289B3898C918F7E8C93A2897F
:10102000B3898C91877F8C93A289B3898C918F77B8
:101030008C93A289B3898C918F7D8C93828D818FC3
:101040000895FC01538D448D252F30E0842F90E0CE
:10105000821B930B541710F0CF96089501970895B3
:101060000895A1E21A2EAA1BBB1BFD010DC0AA1FE9
:10107000BB1FEE1FFF1FA217B307E407F50720F001
:10108000A21BB30BE40BF50B661F771F881F991F7C
:101090001A9469F760957095809590959B01AC01C5
:1010A000BD01CF010895EE0FFF1F881F8BBF079072
:1010B000F691E02D19945058BB27AA270ED075C180
:1010C00066D130F06BD120F031F49F3F11F41EF463
:1010D0005BC10EF4E095E7FB51C1E92F77D180F3B6
:1010E000BA17620773078407950718F071F49EF525
:1010F0008FC10EF4E0950B2EBA2FA02D0B01B90174
:1011000090010C01CA01A0011124FF27591B99F07D
:10111000593F50F4503E68F11A16F040A22F232F89
:10112000342F4427585FF3CF469537952795A795D9
:10113000F0405395C9F77EF41F16BA0B620B730B80
:10114000840BBAF09150A1F0FF0FBB1F661F771FF1
:10115000881FC2F70EC0BA0F621F731F841F48F4A6
:10116000879577956795B795F7959E3F08F0B3CF2C
:101170009395880F08F09927EE0F97958795089516
:10118000D9D008F481E008950CD00FC107D140F008
:10119000FED030F021F45F3F19F0F0C0511139C199
:1011A000F3C014D198F39923C9F35523B1F3951BD8
:1011B000550BBB27AA2762177307840738F09F5F78
:1011C0005F4F220F331F441FAA1FA9F333D00E2EE7
:1011D0003AF0E0E830D091505040E695001CCAF754
:1011E00029D0FE2F27D0660F771F881FBB1F261719
:1011F00037074807AB07B0E809F0BB0B802DBF01EC
:10120000FF2793585F4F2AF09E3F510568F0B6C004
:1012100000C15F3FECF3983EDCF3869577956795C8
:10122000B795F7959F5FC9F7880F911D969587959C
:1012300097F90895E1E0660F771F881FBB1F6217BB
:1012400073078407BA0720F0621B730B840BBA0B79
:10125000EE1F88F7E095089504D06894B111D9C0C5
:101260000895BCD088F09F5790F0B92F9927B751B7
:10127000A0F0D1F0660F771F881F991F1AF0BA955A
:10128000C9F712C0B13081F0C3D0B1E00895C0C039
:10129000672F782F8827B85F39F0B93FCCF3869550
:1012A00077956795B395D9F73EF4909580957095AD
:1012B00061957F4F8F4F9F4F0895E89409C097FB2A
:1012C0003EF490958095709561957F4F8F4F9F4F1D
:1012D0009923A9F0F92F96E9BB279395F695879561
:1012E00077956795B795F111F8CFFAF4BB0F11F424
:1012F00060FF1BC06F5F7F4F8F4F9F4F16C08823CB
:1013000011F096E911C0772321F09EE8872F762F00
:1013100005C0662371F096E8862F70E060E02AF041
:101320009A95660F771F881FDAF7880F969587952D
:1013300097F90895990F0008550FAA0BE0E8FEEF02
:1013400016161706E807F907C0F012161306E40789
:10135000F50798F0621B730B840B950B39F40A2682
:1013600061F0232B242B252B21F408950A2609F460
:10137000A140A6958FEF811D811D089597F99F6764
:1013800080E870E060E008959FEF80EC089500240D
:101390000A941616170618060906089500240A94DA
:1013A00012161306140605060895092E0394000C60
:1013B00011F4882352F0BB0F40F4BF2B11F460FFEF
:1013C00004C06F5F7F4F8F4F9F4F089557FD905818
:1013D000440F551F59F05F3F71F04795880F97FBF9
:1013E000991F61F09F3F79F08795089512161306B3
:1013F0001406551FF2CF4695F1DF08C016161706E2
:101400001806991FF1CF8695710561050894089516
:10141000E894BB2766277727CB0197F908958ADFE1
:1014200008F48FEF08950BD0C0CFB1DF28F0B6DFFE
:1014300018F0952309F0A2CFA7CF1124EACFC6DF79
:10144000A0F3959FD1F3950F50E0551F629FF001D7
:10145000729FBB27F00DB11D639FAA27F00DB11D30
:10146000AA1F649F6627B00DA11D661F829F2227B9
:10147000B00DA11D621F739FB00DA11D621F839F40
:10148000A00D611D221F749F3327A00D611D231F16
:10149000849F600D211D822F762F6A2F11249F5764
:1014A00050408AF0E1F088234AF0EE0FFF1FBB1F87
:1014B000661F771F881F91505040A9F79E3F510526
:1014C00070F05CCFA6CF5F3FECF3983EDCF38695DF
:1014D00077956795B795F795E7959F5FC1F7FE2BD1
:1014E000880F911D9695879597F9089523DF880BAE
:1014F000990B089581E090E0F89400C0F894FFCF34
:101500000D007374617274000D0A006E616E0069E3
:101510006E66006F7666002E0000000000AC04F9D5
:1015200001000000003B07F901B006CA06BC0681B5
:021530000700B2
:00000001FF
