:1000000019C1000047C1000045C1000043C1000004
:1000100041C100003FC100003DC100003BC10000E4
:1000200039C100000C943B090C943B090C943B092A
:1000300031C100002FC100002DC100002BC1000004
:1000400029C1000027C1000025C1000023C1000014
:1000500021C100001FC100001DC1000058C60000E2
:1000600019C1000011C4000045C4000013C1000004
:1000700011C100000FC100000DC100000BC1000044
:1000800009C1000007C1000005C1000003C1000054
:1000900001C10000FFC00000FDC00000FBC0000067
:1000A000F9C00000F7C00000F5C00000F3C0000078
:1000B000F1C00000EFC00000EDC00000EBC0000088
:1000C000E9C00000E7C00000E5C00000E3C0000098
:1000D000E1C00000DFC00000DDC00000DBC00000A8
:1000E000D9C00000A107A407930797079D07DB0766
:1000F000A807AC07B207B607BA07C007C407C80706
:10010000DB07CE07D207D60700000A0B02090C0D49
:100110000E080703040100000000000000000000BA
:1001200000000000000000000000000000000000CF
:10013000000000001211100000000000000000008C
:1001400000000000000000000000000000000102AC
:1001500010202008081020401020408002010201D9
:100160000804020101020408102040808040201091
:1001700008040201800402018040201008040201EA
:100180000804020101020408102040800102040852
:10019000102040800505050507050808080802022B
:1001A00002020A0A08080404040401010101010111
:1001B00001010303030303030303040707070C0CF4
:1001C0000C0C0C0C0C0C02020202060606060606BB
:1001D00006060B0B0B0B0B0B0B0B00002000230078
:1001E000260029002C002F0032000001000003012E
:1001F0000601090100002200250028002B002E0026
:100200003100340002010000050108010B0100006B
:100210002100240027002A002D00300033000101B6
:100220000000040107010A019D01AC043205D70D4D
:10023000A21AD40111241FBECFEFD1E2DEBFCDBF81
:1002400000E00CBF14E0A0E0B2E0E2E4F7E300E07D
:100250000BBF02C007900D92A03EB107D9F728E06E
:10026000A0EEB4E001C01D92A23BB207E1F712E09C
:10027000C2E3D2E000E006C022970109FE010BBFF5
:100280000E94691BC832D10780E00807A9F735D55D
:100290000C94901BB5CE61E082E08ED660E082E0E7
:1002A000C4D668EE73E080E090E0AAD561E082E019
:1002B000BCD660ED77E080E090E0A2D560E082E01F
:1002C000B4D668EB7BE080E090E09AD56AE072E01B
:1002D00089E695E01FD461E08AE06ED661E08AE0AD
:1002E000A4C661E172E089E695E014D4D4DF40E869
:1002F00055E260E070E084E495E00E943B0A60ED26
:1003000077E080E090E07CC526E040E052EC61E0E0
:1003100070E089E695E056D2E4DF60ED77E080E0BA
:1003200090E06ED580EE94E022D180EE94E03FC064
:1003300060E177E280E090E063C50F9300E020E0A9
:1003400040E060E083E695E081D320E043E062E0B6
:1003500084E495E00E940D0A82EE94E00E94151A52
:1003600010920205109203051092060510920805DE
:1003700082E090E0A0E0B0E08093090590930A0548
:10038000A0930B05B0930C051092200510922A053E
:10039000109229058BEC94E0909328058093270513
:1003A00010922C050F91089584E495E0E2C7CF9256
:1003B000DF92EF92FF920F931F93CF93DF93EC01A5
:1003C0006BE272E089E695E09AD362E472E089E636
:1003D00095E095D34AE050E064E070E089E695E06E
:1003E00048D47E018DE1E80EF11C488161E0C7012F
:1003F0000E94FC0B811112C06AE472E089E695E06C
:1004000089D362E772E089E695E084D368E872E018
:1004100089E695E07FD362EA72E032C066EE72E070
:1004200089E695E077D36FE073E089E695E067D3DE
:1004300088A5823039F0833041F0813049F46CE195
:1004400073E008C060E273E005C064E273E002C0DC
:1004500069E273E089E695E05DD38E01075D1F4F89
:1004600041E0B701C8010E948218811114C040E028
:10047000B701C8010E94821881110DC061E373E0C9
:1004800089E695E0DF91CF911F910F91FF90EF905A
:10049000DF90CF903FC36BE773E089E695E02FD301
:1004A000FE01E05CFF4F4AE050E0608189E695E0A4
:1004B000F9D389E695E02BD3ADA52AA93BA94CA990
:1004C0005DA989E0220F331F441F551F8A95D1F77C
:1004D000B0E00E945F1B6B017C016FE873E089E66E
:1004E00095E00DD32AE030E0B701A60189E695E05A
:1004F000F3D365EA73E089E695E001D3B701A6017D
:100500009AE076956795579547959A95D1F72AE0A1
:1005100030E089E695E0E0D36CEB73E089E695E0A6
:10052000EED2B701A60124E17695679557954795D8
:100530002A95D1F72AE030E089E695E0CDD363ED46
:1005400073E089E695E0E6D2C95BDF4FB801CE01E2
:100550000E941F0E40E067E0CE01DF91CF911F9116
:100560000F91FF90EF90DF90CF900C943F14CF93BA
:10057000DF93EC0161E084E01FD56DE074E089E673
:1005800095E0BDD2688185E698E00E94751A8111D8
:1005900007C065E274E089E695E0DF91CF91BAC2C9
:1005A000DF91CF910895FC01818D228D90E0805CD8
:1005B0009F4F821B91098F7399270895FC01918D9C
:1005C000828D981731F0828DE80FF11D858D90E0B6
:1005D00008958FEF9FEF0895FC01918D828D9817FC
:1005E00061F0828DDF01A80FB11D5D968C91928D17
:1005F0009F5F9F73928F90E008958FEF9FEF089514
:1006000083EA94E0892B39F080E090E0892B19F09F
:100610009AD1811125C080E090E0892B41F080E0E3
:1006200090E0892B21F00E94000081111CC080E025
:1006300090E0892B41F080E090E0892B21F00E942E
:100640000000811113C080E090E0892BA1F080E0D0
:1006500090E0892B81F00E94000081110AC008956A
:100660000E940000D8CF0E940000E1CF0E9400004D
:10067000EACF0C9400000895FC01848DDF01A80FDF
:10068000B11DA35ABF4F2C91848D90E001968F73BA
:100690009927848FA689B7892C93A089B1898C91D9
:1006A00080648C93938D848D981306C00288F3899F
:1006B000E02D80818F7D80830895CF93DF93EC01BF
:1006C000888D8823C1F0EA89FB89808185FD05C07A
:1006D000A889B9898C9186FD0EC00FB607FCF5CFAD
:1006E000808185FFF2CFA889B9898C9185FFEDCFF4
:1006F000CE01C2DFE8CFDF91CF910895CF92DF9294
:10070000FF920F931F93CF93DF931F92CDB7DEB766
:100710006C0181E0D60158968C9358975B969C911A
:100720005B975C968C915C97981307C05096ED91FF
:10073000FC915197808185FD2DC0F601038D10E05D
:100740000F5F1F4F0F731127F02EF601848DF812E3
:1007500010C00FB607FCF9CFD6015096ED91FC9171
:100760005197808185FFF1CFC601698385DF69815B
:10077000ECCF838DE80FF11DE35AFF4F6083D60164
:100780005B960C935B975296ED91FC915397808109
:1007900080620CC0D6015696ED91FC91579760830C
:1007A0005096ED91FC91519780818064808381E027
:1007B00090E00F90DF91CF911F910F91FF90DF900C
:1007C000CF900895BF92CF92DF92EF92FF92CF9396
:1007D000DF93EC016A017B01B22EE889F98982E09E
:1007E0008083411581EE580761057105A1F060E035
:1007F00079E08DE390E0A70196010E941B1B215038
:100800003109410951095695479537952795211585
:1008100080E1380798F0E889F989108260E874E887
:100820008EE190E0A70196010E941B1B2150310927
:10083000410951095695479537952795EC85FD85D2
:100840003083EE85FF852083188EEC89FD89B08288
:10085000EA89FB89808180618083EA89FB898081C4
:1008600088608083EA89FB89808180688083EA8947
:10087000FB8980818F7D8083DF91CF91FF90EF9006
:10088000DF90CF90BF9008951F920F920FB60F92F6
:1008900011240BB60F922F938F939F93EF93FF9397
:1008A000E0917905F0917A058081E0917F05F091E2
:1008B000800582FD12C09081809182058F5F8F73C9
:1008C00020918305821751F0E0918205F0E0E7590D
:1008D000FA4F958F8093820501C08081FF91EF913F
:1008E0009F918F912F910F900BBE0F900FBE0F9085
:1008F0001F9018951F920F920FB60F9211240BB6EE
:100900000F922F933F934F935F936F937F938F93A8
:100910009F93AF93BF93EF93FF9389E695E0ACDE8F
:10092000FF91EF91BF91AF919F918F917F916F91C7
:100930005F914F913F912F910F900BBE0F900FBE83
:100940000F901F90189589E695E02DDE21E0892B08
:1009500009F420E0822F089510926C0510926B0527
:1009600088EE93E0A0E0B0E080936D0590936E0573
:10097000A0936F05B093700586E994E090936A05A3
:100980008093690585EC90E09093760580937505DA
:1009900084EC90E0909378058093770580EC90E06C
:1009A00090937A058093790581EC90E090937C0593
:1009B00080937B0582EC90E090937E0580937D058B
:1009C00086EC90E09093800580937F0510928205DD
:1009D0001092830510928405109285050895AF92B8
:1009E000BF92CF92DF92EF92FF920F931F93CF931C
:1009F000DF936C017B01C0E0D0E000E010E0F60185
:100A0000EC0FFD1F4AE050E06281C70145D15C0157
:100A10006EE2C70175D08A0D9B1D080F191F219624
:100A2000C330D10561F74AE050E0F6016581C701A6
:100A300033D1800F911FDF91CF911F910F91FF90C4
:100A4000EF90DF90CF90BF90AF9008950F93FC018F
:100A500086EA94E0918380836283438324830583C1
:100A60000F91089586EA94E0909307068093060616
:100A7000109208061092090610920A0610920B06B0
:100A80000895CF92DF92EF92FF920F931F93CF932F
:100A9000DF936C017A01EB01E60EF71E00E010E037
:100AA000CE15DF0561F06991D601ED91FC910190C1
:100AB000F081E02DC6011995080F191FF1CFC8016B
:100AC000DF91CF911F910F91FF90EF90DF90CF902A
:100AD00008956115710581F0DB010D900020E9F7A3
:100AE000AD0141505109461B570BDC01ED91FC91C2
:100AF0000280F381E02D199480E090E00895E9CF21
:100B0000DC01ED91FC910190F081E02D199468EAEF
:100B100074E0DFCF0F931F93CF93DF93EC01D9DF06
:100B20008C01CE01F4DF800F911FDF91CF911F91D7
:100B30000F9108958F929F92AF92BF92CF92DF92C2
:100B4000EF92FF920F931F93CF93DF93CDB7DEB752
:100B5000A1970FB6F894DEBF0FBECDBF7C01C42EA7
:100B6000E52FCB01D22E19A221E02D1510F02AE09D
:100B7000D22E8E010F5D1F4F8D2C912CA12CB12CEC
:100B80006C2D7E2FA50194010E941B1B8C2DD29EE3
:100B900080191124015011098A3014F4805D01C0BC
:100BA000895CF8018083211531054105510521F04B
:100BB000C22EE32FCA01E4CFB801C7018ADFA19694
:100BC0000FB6F894DEBF0FBECDBFDF91CF911F915E
:100BD0000F91FF90EF90DF90CF90BF90AF909F90DC
:100BE0008F900895CF92DF92EF92FF920F931F9311
:100BF000CF93DF93EC016A017B012115310579F474
:100C0000E881F9810190F081E02D642FDF91CF918F
:100C10001F910F91FF90EF90DF90CF9019942A30A1
:100C20003105D9F477FF18C06DE26ADF8C014427E3
:100C30005527BA014C195D096E097F092AE0CE01DA
:100C400079DF800F911FDF91CF911F910F91FF905E
:100C5000EF90DF90CF9008952AE0B701A601CE0172
:100C6000DF91CF911F910F91FF90EF90DF90CF9088
:100C700061CF9A01AB01662757FD6095762FB2CF01
:100C80002115310541F4DC01ED91FC910190F081D9
:100C9000E02D642F19944ECF9A01462F50E060E06A
:100CA00070E0EECF0F931F93CF93DF93EC019A0187
:100CB000462F50E060E070E0E3DF8C01CE0127DFDB
:100CC000800F911FDF91CF911F910F9108959A018D
:100CD000AB0160E070E0D4CF0F931F93CF93DF930D
:100CE000EC01CEDF8C01CE0112DF800F911FDF916E
:100CF000CF911F910F9108950895A8D0FDDF04DBD7
:100D0000C0E0D3E015DB2097E9F37ADCFBCF1F923C
:100D10000F920FB60F9211242F933F938F939F93AF
:100D2000AF93BF9380910D0690910E06A0910F0690
:100D3000B091100630910C0623E0230F2D3720F4DC
:100D40000196A11DB11D05C026E8230F0296A11D25
:100D5000B11D20930C0680930D0690930E06A09370
:100D60000F06B09310068091110690911206A09183
:100D70001306B09114060196A11DB11D80931106B2
:100D800090931206A0931306B0931406BF91AF91EF
:100D90009F918F913F912F910F900FBE0F901F90B9
:100DA00018952FB7F89460910D0670910E068091FA
:100DB0000F06909110062FBF08953FB7F8948091C9
:100DC000110690911206A0911306B091140626B553
:100DD000A89B05C02F3F19F00196A11DB11D3FBF73
:100DE0006627782F892F9A2F620F711D811D911D03
:100DF00042E0660F771F881F991F4A95D1F7089523
:100E0000CF92DF92EF92FF92CF93DF936B017C0141
:100E1000D4DFEB01C114D104E104F10481F00E949C
:100E2000C51ACBDF6C1B7D0B683E734098F381E0E5
:100E3000C81AD108E108F108C851DC4FEBCFDF91A7
:100E4000CF91FF90EF90DF90CF900895789484B584
:100E5000826084BD84B5816084BD85B5826085BDB6
:100E600085B5816085BDEEE6F0E08081816080839C
:100E7000E1E8F0E01082808182608083808181607F
:100E80008083E0E8F0E0808181608083E1EBF0E046
:100E9000808184608083E0EBF0E0808181608083EA
:100EA000E1E9F0E0808182608083808181608083DD
:100EB000E0E9F0E0808181608083E1EAF0E0808118
:100EC00082608083808181608083E0EAF0E08081BD
:100ED00081608083E1E2F1E08081826080838081B3
:100EE00081608083E0E2F1E0808181608083EAE7D5
:100EF000F0E0808184608083808182608083808153
:100F0000816080838081806880831092C100089511
:100F100090E0FC013197E231F10508F04CC0EE5849
:100F2000FF4F0C94591B809180008F7703C08091F4
:100F300080008F7D80938000089580918000877F5E
:100F4000F9CF84B58F7702C084B58F7D84BD0895B5
:100F50008091B0008F7703C08091B0008F7D809327
:100F6000B0000895809190008F7707C08091900025
:100F70008F7D03C080919000877F809390000895BB
:100F80008091A0008F7707C08091A0008F7D03C063
:100F90008091A000877F8093A00008958091200118
:100FA0008F7707C0809120018F7D03C08091200141
:100FB000877F809320010895CF93DF9390E0FC0119
:100FC000E25BFE4F2491FC01EC56FE4F8491882396
:100FD00049F190E0880F991FFC01E25FFD4FA59158
:100FE000B4918C509E4FFC01C591D4919FB7611173
:100FF00008C0F8948C91209582238C938881822359
:101000000AC0623051F4F8948C91322F30958323CA
:101010008C938881822B888304C0F8948C91822BD6
:101020008C939FBFDF91CF9108950F931F93CF9320
:10103000DF931F92CDB7DEB7282F30E0F901E85FCC
:10104000FE4F8491F901E25BFE4F1491F901EC56D9
:10105000FE4F04910023C1F0882319F0698358DF03
:101060006981E02FF0E0EE0FFF1FEC50FE4FA591DD
:10107000B4919FB7F8948C91611103C010958123AE
:1010800001C0812B8C939FBF0F90DF91CF911F9157
:101090000F91089520915706309158062817390767
:1010A000B9F49091150680911606981789F0E09191
:1010B0001506F0E0E95EF94F80812091150630E0D9
:1010C0002F5F3F4F2F7333272093150690E008952D
:1010D0008FEF9FEF08951F93CF93DF93DC015C9612
:1010E0008D919C915D97009749F481E090E0139673
:1010F0009C938E93129780E090E03BC05196ED91C7
:10110000FC91529750962C915097322F30951FB7E3
:101110005E964C915E9741FB772770F941FD609593
:10112000F8944081772311F0422B01C04323408380
:10113000EC012197F1F748E0508160FF02C0522B8B
:1011400001C053235083EC012197F1F7669541507C
:1011500099F78081772311F0832301C0822B80834C
:101160001FBF5C968D919C915D970197F1F781E08F
:1011700090E0DF91CF911F91089520915706309113
:1011800058062817390781F49091150680911606A4
:10119000981751F0E0911506F0E0E95EF94F808173
:1011A000992787FD909508958FEF9FEF08952091DF
:1011B0005706309158062817390769F480911606AA
:1011C0002091150690E0805C9F4F821B910960E49E
:1011D00070E00C94081B80E090E008952091570681
:1011E000309158062817390739F48FB7F8941092C0
:1011F0001606109215068FBF0895E0915706F091DC
:101200005806E817F90769F4A389B4899C91858980
:10121000809589238C93109258061092570681E08E
:10122000089580E00895CF93DF93EC018A8D9B8D24
:10123000892BE9F080915706909158068C179D07ED
:10124000B1F0009709F0D9DF8E8D8E7F8E8F1092CE
:10125000160610921506D0935806C0935706EB89D0
:10126000FC8980819D89892B808381E001C080E099
:10127000DF91CF9108951F920F920FB60F92112414
:101280000BB60F922F933F934F935F936F937F9380
:101290008F939F93AF93BF93EF93FF93E091570684
:1012A000F0915806309709F451C0868DA685B78510
:1012B000958581FF04C08C91892329F447C08C91C6
:1012C000892309F043C0A389B4899C9185898095BD
:1012D00089238C93868997890197F1F7208D318D29
:1012E000A685B785758558E040E0C9010197F1F7FB
:1012F000842F90E095958795482F6C91672309F08E
:101300004068515091F7868D81FD40958091160679
:1013100090E001968F73992720911506281749F0C0
:10132000A0911606B0E0A95EB94F4C9380931606C3
:1013300003C0868D8160868F828D938D0197F1F732
:10134000A389B4898C919589892B8C93FF91EF9116
:10135000BF91AF919F918F917F916F915F914F91CD
:101360003F912F910F900BBE0F900FBE0F901F90CB
:1013700018952BEB34E0FC01318320833ECF1F9383
:10138000CF93DF93EC01162F6E8D6695617081E02F
:101390006827812F4ADE61E0812F0EDE812F90E0E9
:1013A000FC01E25BFE4FE491E88BFC01EC56FE4F42
:1013B000E491F0E0EE0FFF1FEC50FE4F8591949109
:1013C0009A8B898BDF91CF911F9108951F93CF93B3
:1013D000DF93EC01162F60E0812FEEDD8E8D81FD15
:1013E00003C061E0812F21DE1C87812F90E0FC018A
:1013F000E25BFE4FE491ED87FC01EC56FE4FE49179
:10140000F0E0EE0FFF1FE652FE4F859194919F870B
:101410008E87DF91CF911F910895FF920F931F93B5
:10142000CF93DF93EC01F62E522F1B821A8208EE27
:1014300013E020E030E00C831D832E833F838BEB91
:1014400094E0998388831F8A1E8A198E188E1B8EBA
:101450001A8E1D8E1C8E8E8D8E7F50FB81F98E8F85
:10146000642FCE018CDF6F2DCE01DF91CF911F91C4
:101470000F91FF90ABCF0F931F93CF93DF93EC01AE
:101480009A01AB011B8E1A8E198E188E1F8A1E8A26
:1014900060E079E08DE390E00E943D1BC9012430BB
:1014A000310520F0B9016350710902C061E070E0BC
:1014B0007D8F6C8F1C8506EF010F043048F06EECB9
:1014C000610F643028F062EC610F683008F07DC075
:1014D000B901769567956431710518F0635171090A
:1014E00002C061E070E07F8B6E8B069718F0C90137
:1014F000059702C081E090E0998F888FC901880F1D
:10150000991F820F931F96958795969587958D3095
:10151000910510F00C9702C081E090E09B8F8A8FBC
:10152000043060F08EEC810F843040F082EC810F4B
:10153000883008F050C0A8E6B0E04FC0A8E6B0E0A0
:10154000E8E6F0E09081043028F01E53183010F4E3
:1015500084E001C081E0892B8C932C8536EF320F1B
:10156000343058F08EEC820F843038F082EC820FE9
:10157000883030F48DE690E005C08BE690E002C044
:1015800080E090E09C8B8B8B343010F426500BC0A5
:10159000223379F0233379F0243379F082EC820F0F
:1015A000883068F4282F81E001C0880F2A95EAF777
:1015B00007C088E005C084E003C082E001C081E08C
:1015C0008D8B8C8D9D8D0197F1F7CE01DF91CF91A1
:1015D0001F910F9128CEA0E0B0E0883008F4B0CF82
:1015E000E0E0F0E0AFCF9FB7F8942091B008809191
:1015F000AE08213019F48DBB9FBF08958FBF0895A9
:101600002091B008222399F03FB7F8942091B008B8
:10161000213059F42DB32093AE084DB32091AF087B
:10162000209524232DBB3FBF02C03093AE088CBD54
:101630009DBD08958EBD00000DB407FEFDCF8EB593
:1016400008958FEFF7CF61E0FC018481EEDC80919B
:101650005906882331F0109259068091B008811103
:10166000C2CF0895CF93DF93EC0180915906811189
:1016700008C081E08093590680915A0690915B06DC
:10168000BFDF60E08C81DF91CF91CFCCCF93DF9330
:10169000EC018E81882379F08F8198859C012F5FE2
:1016A0003F4F38872F838230924010F4CADFF4CF47
:1016B000CE01C9DF1E82DF91CF910895673028F0F7
:1016C00026E1FC01258380E00895623081F030F44A
:1016D000662359F06130B1F480E515C0643059F0EB
:1016E00040F0653079F482E50EC080E505C081E503
:1016F00003C081E508C082E580935A0681E08093AB
:101700005B06089583E580935A0610925B0681E09C
:1017100008950F931F93CF93DF93EB0142DB8B016F
:1017200090DF8F3F41F03DDB601B710B6C177D0735
:10173000B8F380E001C081E0DF91CF911F910F915C
:101740000895CF92DF92FF920F931F93CF93DF9371
:1017500000D01F92CDB7DEB76C01F62E29833A83F5
:101760004B835C8393DFC6017DDF6CE271E0C601D1
:10177000D0DF8F2D80645EDF08E110E05C814B815B
:101780003A812981DA01C901002E04C0B695A795D6
:10179000979587950A94D2F729833A834B835C8384
:1017A00049DF0850110929813A814B815C81083F4A
:1017B0008FEF180739F7FF2029F0E8E0FE1621F037
:1017C0008FEF03C085E901C087E834DF10E039DF1F
:1017D000F601828787FF04C01F3F11F01F5FF7CF1C
:1017E0000F900F900F900F90DF91CF911F910F915D
:1017F000FF90DF90CF900895BF92CF92DF92EF924B
:10180000FF920F931F93CF93DF93EC01B62E1B86AD
:1018100019861E821D824C83C4DA8B0161E08C81A3
:10182000CBDB61E08C8101DC0E94C61A82E58093EB
:101830005A0610925B0680915A0690915B06E0DE94
:101840002AE0F22E8FEFF6DEFA94E1F78091B008ED
:101850008111C9DECE0106DF20E030E0A90160E0A1
:10186000CE016FDFF82E8A8781E0F81641F099DA11
:10187000601B710B613D774078F381E045C02AEA37
:1018800031E040E050E068E0CE015BDF82FF02C063
:10189000FB860CC094E0F92ED4DE8A87FA94E1F737
:1018A0008A3A11F082E030C082E08B878B858230EB
:1018B00031F4C12CD12CE12C80E4F82E03C0C12CD2
:1018C000D12C760120E030E0A90167E3CE0139DFB9
:1018D000A701960169E2CE0134DF8A87882341F0AF
:1018E00060DA601B710B613D774060F388E00CC0EB
:1018F0008B85823001F520E030E0A9016AE3CE015A
:1019000020DF882379F086E08D83CE019CDE80E0A5
:10191000DF91CF911F910F91FF90EF90DF90CF90CB
:10192000BF9008958EDE807C803C11F483E08B872D
:1019300088DE87DE86DECE0186DE6B2DCE01DF916E
:10194000CF911F910F91FF90EF90DF90CF90BF90BC
:10195000B5CE0F931F93CF93DF93EC0122DA8B0167
:1019600070DE8A878F3F41F41CDA601B710B6D3289
:101970007140B0F38FE003C08E3F31F08DE08D8376
:10198000CE0161DE80E001C081E0DF91CF911F9147
:101990000F910895CF92DF92EF92FF920F931F93D2
:1019A000CF93DF93EC0169010115110509F45DC0C6
:1019B000C801820F931F8130924008F058C08E8179
:1019C000882371F088819981AA81BB8148175907C2
:1019D0006A077B0729F48F819885C816D90600F518
:1019E000488359836A837B838B85833039F039E060
:1019F000440F551F661F771F3A95D1F79A01AB0127
:101A000061E1CE019EDE882319F083E08D832FC033
:101A1000CE019FDF882359F118861F8281E08E83D3
:101A20008F8198858C159D0538F40BDE8F81988504
:101A3000019698878F83F4CF6701E00EF11ECE14D4
:101A4000DF0429F0FEDDF60181936F01F8CF8F816D
:101A50009885800F911F98878F832985222319F0FD
:101A60008115924010F0CE0111DE81E003C0CE015D
:101A7000EADD80E0DF91CF911F910F91FF90EF9011
:101A8000DF90CF900895EF92FF920F931F9379010B
:101A900000E012E020E030E07DDF1F910F91FF9029
:101AA000EF900895CF92DF92EF92FF920F931F93E2
:101AB000CF93DF931F921F92CDB7DEB78C01862F95
:101AC00049835A83B7DD4981C42E5A81D52EE12C32
:101AD000F12CF60181916F01ADDDFFEFEF1AFF0AE6
:101AE000E11482E0F806A9F78FEFA4DD8FEFA2DD05
:101AF000A8DDF80182878F71853031F081E185831F
:101B0000C801A1DD80E001C081E00F900F90DF915E
:101B1000CF911F910F91FF90EF90DF90CF9008959C
:101B20000F931F93CF93DF93EC018901411551056A
:101B30006105710511F482E12DC08B85833039F088
:101B400089E0440F551F661F771F8A95D1F79A01C8
:101B5000AB0168E1CE01F5DD882311F084E01AC005
:101B6000A8016EEFCE019EDF8823A9F068E572E040
:101B7000CE01CFDD811102C085E10CC020E030E054
:101B8000A9016DE0CE01DDDD811103C05ADD88239E
:101B900031F084E18D83CE0156DD80E003C0CE01BB
:101BA00052DD81E0DF91CF911F910F91089580E583
:101BB00080935A0610925B060895CF93DF93EC0151
:101BC0009C012A5F3F4F41E050E060E070E08B8D68
:101BD0009C8D0E941D178823A1F04F89588D698D17
:101BE0007A8D452B462B472B71F44E815F8168859A
:101BF00079854F8B588F698F7A8F8C8180688C8321
:101C000002C080E001C081E0DF91CF910895CF93C1
:101C1000DF93EC01462F6E857F858889998946D7A9
:101C2000882341F08A8920E2829FC00111248B59C8
:101C3000994F02C080E090E0DF91CF9108950F931B
:101C40001F93CF93DF93EC018B018D81882311F0DB
:101C500080E03FC0FB0187898031B1F482E08D8351
:101C60001F8A188E198E1A8E408D518D60E070E09B
:101C700095E0440F551F661F771F9A95D1F74B8B40
:101C80005C8B6D8B7E8B14C0803211F783E08D836B
:101C9000FB01428D538D648D758D4F8B588F698FED
:101CA0007A8F9E012D5E3F4FC801BDD7882381F2F8
:101CB0001C8F0B8F81E08C831E821F8218861986F1
:101CC0001A861B861C861D861E861F86188A198A00
:101CD0001A8ADF91CF911F910F910895CF93DF93CF
:101CE00000D0CDB7DEB76AE00E94FC1A805D898320
:101CF000905D9A831B82BE016F5F7F4F89E695E0FE
:101D00000E947F050F900F900F90DF91CF91089563
:101D1000CF93DF93EC01BC01672F7727669564545E
:101D2000784F4AE050E089E695E00E9467066DE250
:101D300089E695E00E948005CE0135E0969587956D
:101D40003A95E1F78F70CADF6DE289E695E00E946F
:101D500080058C2F8F71DF91CF91C0CFCF93DF9310
:101D6000EC018D2F869586958695B8DF6AE389E626
:101D700095E00E948005CE0145E0969587954A95AD
:101D8000E1F78F73ABDF6AE389E695E00E94800597
:101D90008C2F8F71880FDF91CF91A0CF2F923F9220
:101DA0004F925F926F927F928F929F92AF92BF926B
:101DB000CF92DF92EF92FF920F931F93CF93DF9317
:101DC000EC016B015A018D81811103C08FEF9FEFF0
:101DD000D7C08C8180FFFACF4B895C896D897E8961
:101DE0008A859B85AC85BD852501612C712C8A0176
:101DF0009B01081B190B2A0B3B0B04151505260527
:101E0000370518F45A01A81AB90A25011E0126E05F
:101E1000220E311C4114510409F47AC04A855B85B5
:101E20006C857D854A0181E09822ED818A019B01C4
:101E3000F9E03695279517950795FA95D1F78B8D8B
:101E40009C8DE23051F4FC01628D738D848D958DF3
:101E5000600F711F821F931F3DC0FC0174807A9434
:101E6000702281149104C1F4711016C0452B462BC9
:101E7000472B49F48F89988DA98DBA8D8E839F83C6
:101E8000A887B98709C04E815F81688579859101EE
:101E900047D6882309F49ACFEB8DFC8D6E817F8124
:101EA000888599856250710981099109058404C06A
:101EB000660F771F881F991F0A94D2F7068517852A
:101EC00020893189600F711F821F931F670D711D5B
:101ED000811D911D20E032E02819390932012415B5
:101EE000350508F439012C8126FD04C06114F2E0A7
:101EF0007F0699F5009106021091070220910802D1
:101F000030910902601771078207930719F425C001
:101F1000C50136C0760183019401AB01BC018091FB
:101F200063069091640636DD882309F44FCFC60C12
:101F3000D71C04C0E81BF90BCE0EDF1E8A859B85DB
:101F4000AC85BD85860D971DA11DB11D8A879B8718
:101F5000AC87BD87461857085DCF40E0A7D58823DA
:101F600009F434CFC4018B59994FD6019C01260D39
:101F7000371DFC01E217F307E9F241914D93FACFC7
:101F8000DF91CF911F910F91FF90EF90DF90CF9055
:101F9000BF90AF909F908F907F906F905F904F9089
:101FA0003F902F900895FF920F931F93CF93DF934D
:101FB0001F92CDB7DEB78C01FC018581823018F409
:101FC00080E090E033C0F8014285538564857585D3
:101FD000A5E07695679557954795AA95D1F7F42F83
:101FE000FF70FF2E41E050E0BE016F5F7F4FC801E0
:101FF000D5DE019719F4298130E002C02FEF3FEFC1
:102000002F3F3F4FE9F2F80142855385648575857E
:10201000415E5F4F6F4F7F4F42875387648775875D
:10202000F0E2FF9EC00111248B59994F0F90DF9170
:10203000CF911F910F91FF9008954F925F926F92F1
:102040007F92AF92BF92CF92DF92EF92FF920F9367
:102050001F93CF93DF93EC016A017B012D81222333
:1020600009F456C08B899C89AD89BE898417950770
:10207000A607B70708F44CC04DC08A859B85AC8580
:10208000BD85EB8DFC8DE585F0E03996AC01BD0199
:1020900041505109610971090E2E04C0769567956A
:1020A000579547950A94D2F7970186010150110977
:1020B0002109310904C03695279517950795EA95AA
:1020C000D2F70417150726073707A8F58F89988DCB
:1020D000A98DBA8D8E839F83A887B987280139017E
:1020E0005E0186E0A80EB11C411451046104710424
:1020F00059F14E815F816885798595018B8D9C8D25
:102100000FD591E0491A5108610871088111ECCF8F
:1021100080E01FC02230C1F0C114D104E104F104F9
:1021200009F0ABCF1E821F82188619861A861B867D
:102130001C861D860DC0892B8A2B8B2B39F2041B24
:10214000150B260B370BCACFCA86DB86EC86FD86BD
:1021500081E0DF91CF911F910F91FF90EF90DF9081
:10216000CF90BF90AF907F906F905F904F90089509
:102170000F931F93CF93DF93EC018D818823B9F1E7
:102180008C8187FF2FC061E0CE0141DD8C0100977B
:1021900071F18D81823048F44B895C896D897E892B
:1021A000F801448F558F668F778F4F89588D698DD1
:1021B0007A8DF801538F428F758B648BE0915C06AA
:1021C000F0915D06309759F0B8016A5E7F4FC80103
:1021D00048961995F801808D918D938B828B8C8117
:1021E0008F778C83DF91CF911F910F9126C480E070
:1021F000DF91CF911F910F9108954F925F926F924F
:102200007F92AF92BF92CF92DF92EF92FF920F93A5
:102210001F93CF93DF9300D01F92CDB7DEB75C0141
:102220006A017B01FC0185818130E9F4848181FFB1
:102230001AC0F50183899489A589B6898417950701
:10224000A607B70780F0892B8A2B8B2B09F472C065
:10225000F5014284538464847584B701A601C501E5
:10226000ECDE811102C080E066C0F501838D948DA3
:10227000C114D104E104F10469F44789508D618DE2
:10228000728DECD6882379F3F501178A108E118EA2
:10229000128E37C0F50146815781608571859E0198
:1022A0002F5F3F4F3DD48823F1F249815A816B81E2
:1022B0007C81F501838D948DFC012789203129F4DF
:1022C00008EF1FEF20E030E004C008EF1FEF2FEF12
:1022D0003FE0401751076207730798F4BFD6882381
:1022E00009F4C1CFF50146815781608571850FEFF3
:1022F0001FEF2FEF3FE0838D948DFFD4882309F4E7
:10230000B2CFF501C38AD48AE58AF68A84818068CF
:102310008483C5012DDF882309F4A5CFB701A60169
:102320004C145D046E047F0410F4B301A201C501D6
:1023300084DE01C081E00F900F900F900F90DF912D
:10234000CF911F910F91FF90EF90DF90CF90BF90B2
:10235000AF907F906F905F904F900895FF920F9392
:102360001F93CF93DF93EC01F42E80E2689FF0017E
:102370001124EB59F94F8385817129F0842F8274E0
:1023800011F080E051C06A8B8091060290910702A3
:10239000A0910802B09109028E879F87A88BB98B04
:1023A0004489558960E070E0BA0155274427028DC1
:1023B000138D20E030E0402B512B622B732B4F8B81
:1023C000588F698F7A8F8385887151F4048D158DAC
:1023D000268D378D0B8B1C8B2D8B3E8B81E00BC09C
:1023E000803179F69E012D5E3F4F8B8D9C8D1BD4E5
:1023F000882339F284E08D838F2D8F708C831E8229
:102400001F82188619861A861B861C861D86F6FE74
:102410000AC040E050E0BA01CE01DF91CF911F9198
:102420000F91FF90EACE81E0DF91CF911F910F9144
:10243000FF900895DF92EF92FF920F931F93CF9337
:10244000DF93EC018B017A01D22E8D8181112CC09A
:10245000822F8073803341F1FB01838D948D9C8F9B
:102460008B8F65E0440F551F6A95E1F760E070E0DF
:10247000C801E3DD8823C1F0C80195DD0097A1F014
:10248000FC018081882381F0853E71F08E3261F0FD
:102490006E2D6F704D2DCE01DF91CF911F910F9159
:1024A000FF90EF90DF905ACF80E0DF91CF911F91A6
:1024B0000F91FF90EF90DF9008952F923F924F92EF
:1024C0005F926F927F928F929F92AF92BF92CF92C4
:1024D000DF92EF92FF920F931F93CF93DF9300D081
:1024E0001F921F92CDB7DEB78C017B013A01DC0150
:1024F00015968C9115978130C1F414968C9181FFBB
:1025000014C082FF1AC0F80143895489658976890D
:1025100082859385A485B58584179507A607B70797
:1025200061F0C8018ADD811108C081E090E0F80106
:102530009383828380E090E040C163017FC0D80133
:102540005B968D919C915C97FC01F481F150B501F3
:10255000A40129E076956795579547952A95D1F777
:10256000F423FD8321E09222FF2309F473C080E06D
:1025700092E08819990956018C159D0508F45C01B3
:10258000D8015B96ED91FC915C9716962D903D904D
:102590004D905C901997B2E02B1A31084108510810
:1025A000058404C0220C331C441C551C0A94D2F729
:1025B00086859785A089B189280E391E4A1E5B1E23
:1025C000ED812E0E311C411C511CA114F2E0BF06FE
:1025D00009F085C08091060290910702A09108023F
:1025E000B091090282159305A405B50559F48FEF42
:1025F0009FEFDC018093060290930702A0930802EC
:10260000B09309029701B201A101809163069091F4
:10261000640686DA882309F488CF9EEFF91ACA186F
:10262000DB08F80182859385A485B5858A0D9B1DFD
:10263000A11DB11D82879387A487B587D8011A96FB
:102640008D909D90AD90BC901D97C114D10409F060
:1026500076CF86C08114910409F089CF16964D91EA
:102660005D916D917C911997411551056105710539
:1026700059F457968D919D910D90BC91A02D009786
:10268000A105B10531F520C09E012F5F3F4F48D213
:10269000882309F450CF89819A81AB81BC81F801EC
:1026A000238D348DF9012789203129F448EF5FEF1C
:1026B00060E070E004C048EF5FEF6FEF7FE08417E9
:1026C0009507A607B70728F0C80177DA81114FCF21
:1026D0002CCFF80186839783A087B18748CF8114D8
:1026E000910421F5D8011A964D915D916D917C91DF
:1026F0001D9753968D919D910D90BC91A02D4817DB
:1027000059076A077B0790F098D1882309F40DCF09
:10271000209206023092070240920802509209026B
:102720008091620681608093620607C041E0C20129
:10273000B101BCD1882309F4F8CEC4018B59994F5B
:10274000D7019C012A0D3B1DFC01E217F30719F08C
:102750004D914193FACFE81BF90BEE0EFF1E5FCFB0
:1027600053968D919D910D90BC91A02DF8012481DF
:1027700088159905AA05BB0538F4838A948AA58A29
:10278000B68A206824830CC080915C0690915D0617
:10279000892B31F06114710419F02068F801248349
:1027A000D80114968C9183FD02C0C30106C0C801F4
:1027B000DFDC882309F4B9CEF8CF0F900F900F908B
:1027C0000F900F90DF91CF911F910F91FF90EF909D
:1027D000DF90CF90BF90AF909F908F907F906F9041
:1027E0005F904F903F902F900895CF93DF931F926B
:1027F000CDB7DEB7698341E050E0BE016F5F7F4F28
:102800005CDE0F90DF91CF910895DF92EF92FF92FF
:102810000F931F93CF93DF938C01D62EEC01E12C05
:10282000F12C8881803279F088E0E81206C06EE2EF
:1028300089E695E00E948005F394688189E695E039
:102840000E947E03F394E3942196EBE0EE12E9CF2D
:10285000F80183858871803131F46FE289E695E073
:102860000E948005F394FD1410F460E2F7CFDF912D
:10287000CF911F910F91FF90EF90DF9008952F92CD
:102880003F924F925F926F927F928F929F92AF9200
:10289000BF92CF92DF92EF92FF920F931F93CF934D
:1028A000DF93CDB7DEB7A0970FB6F894DEBF0FBEAB
:1028B000CDBF7C01962EFC011682178210861186F0
:1028C0001286138614861586C42ED12CF62FF3702B
:1028D000FE8F862F8170282EE62FE470EF8F7BEC21
:1028E000A72E74E0B72EE2E08E2E840EF62FF27043
:1028F000F8A3C70158DB8C01009709F485C0F801E3
:102900008081882309F480C0853E99F38E3289F353
:10291000838583FDEECF312C832D992787FD9095FC
:102920008C159D053CF460E289E695E00E948005E7
:102930003394F2CFFE8DFF2311F06EE001C060E012
:10294000C80163DF222069F0F801808D918DE0D904
:1029500060E289E695E00E948005F8018689978902
:10296000FDD9F80183858871803119F0F8A1F11142
:102970000FC089E695E00E9487058F8D882309F4B2
:10298000B8CFF80183858871803109F0B2CF11C0CA
:1029900060E289E695E00E948005F801448D558D3E
:1029A000668D778D2AE030E089E695E00E9440064A
:1029B000E0CFF701428453846484758435E07694D3
:1029C0006794579447943A95D1F71C821B82BA8238
:1029D000A9821E82A2014150510921E0B701CE0116
:1029E000019628DD882329F0482D692DCE01019616
:1029F00046DFA20165E0440F551F6A95E1F760E0EC
:102A000070E0C7011ADB75CFA0960FB6F894DEBF51
:102A10000FBECDBFDF91CF911F910F91FF90EF902F
:102A2000DF90CF90BF90AF909F908F907F906F90EE
:102A30005F904F903F902F90089580916206882379
:102A400089F140910602509107026091080270914D
:102A5000090225E636E0809163069091640660D80D
:102A6000882311F140915E0650915F0660916006E7
:102A700070916106411551056105710589F025E6E2
:102A800036E080916306909164064AD8882361F00D
:102A900010925E0610925F06109260061092610618
:102AA0001092620681E0089580E00895CF92DF924F
:102AB000EF92FF92CF936B017C01C42F80910602AD
:102AC00090910702A0910802B09109028C159D0512
:102AD000AE05BF05C9F0B1DF811102C080E01AC0A8
:102AE00025E636E0B701A601809163069091640661
:102AF0000E94430D882391F3C0920602D0920702F0
:102B0000E0920802F0920902809162068C2B809379
:102B1000620681E0CF91FF90EF90DF90CF90089513
:102B20008F929F92AF92BF92CF92DF92EF92FF92DD
:102B30000F931F93CF93DF938C016A017B01E9010F
:102B4000FC0181859285A385B4850196A11DB11DE7
:102B500084179507A607B70710F480E057C0F8015F
:102B600043895489658976898789803129F4BB270F
:102B7000AF2D9E2D8D2D09C0D701C60127E0B6953A
:102B8000A795979587952A95D1F74C015D01840EFD
:102B9000951EA61EB71EC501B40180900602909036
:102BA0000702A0900802B0900902681579058A050D
:102BB0009B0589F4F8018789803191F4DD24EE24A6
:102BC000FF24F601EE0FFF1FEB59F94F8081918131
:102BD000A0E0B0E016C040E069DF8111EBCFBDCFCF
:102BE000E894C7F8DD24EE24FF24F601EE0FFF1F62
:102BF000EE0FFF1FEB59F94F80819181A281B381C4
:102C0000BF7088839983AA83BB8381E0DF91CF91D2
:102C10001F910F91FF90EF90DF90CF90BF90AF90FA
:102C20009F908F9008954F925F926F927F92AF9294
:102C3000BF92CF92DF92EF92FF920F931F93CF93A9
:102C4000DF9300D01F92CDB7DEB78C0149835A8342
:102C50006B837C835901C12CD12C7601412C42E03D
:102C6000542E612C712C49815A816B817C819E018B
:102C70002F5F3F4FC80154DF882359F1D301C201B0
:102C8000F801058404C0880F991FAA1FBB1F0A946E
:102C9000D2F7C80ED91EEA1EFB1E49815A816B81EC
:102CA0007C818789803129F488EF9FEFA0E0B0E034
:102CB00004C088EF9FEFAFEFBFE0481759076A07DE
:102CC0007B0788F2F501C082D182E282F38281E043
:102CD00001C080E00F900F900F900F90DF91CF9187
:102CE0001F910F91FF90EF90DF90CF90BF90AF902A
:102CF0007F906F905F904F9008954F925F926F9288
:102D00007F928F929F92AF92BF92CF92DF92EF927B
:102D1000FF920F931F93CF93DF93EC016A017B0126
:102D200028013901423051056105710508F473C06D
:102D300049855A856B857C854F5F5F4F6F4F7F4F0D
:102D40004C155D056E057F0508F465C08B889C8871
:102D5000AD88BE888F89803129F477276F2D5E2D4D
:102D60004D2D09C0B701A601E7E076956795579507
:102D70004795EA95D1F7840E951EA61EB71E409181
:102D800006025091070260910802709109028416B0
:102D90009506A606B70671F48F89803191F4DD247B
:102DA000EE24FF24F601EE0FFF1FEB59F94F51827D
:102DB000408217C040E0C501B40178DE8111ECCF3C
:102DC0002AC0E894C7F8DD24EE24FF24F601EE0FB4
:102DD000FF1FEE0FFF1FEB59F94F408251826282B5
:102DE0007382809162068160809362068A89823054
:102DF00080F08D819E81AF81B885880D991DAA1DB7
:102E0000BB1D80935E0690935F06A0936006B0930F
:102E1000610681E001C080E0DF91CF911F910F91A9
:102E2000FF90EF90DF90CF90BF90AF909F908F90EA
:102E30007F906F905F904F9008952F923F924F92A6
:102E40005F926F927F929F92AF92BF92CF92DF92EA
:102E5000EF92FF920F931F93CF93DF93CDB7DEB71F
:102E600060970FB6F894DEBF0FBECDBF5C014D87F3
:102E70005E876F87788B1901D9014D905D906D90B9
:102E80007C90411451046104710431F0BFEF4B1A7E
:102E90005B0A6B0A7B0A10C0FC0140805180628093
:102EA0007380992493940D851E852F853889013070
:102EB00011052105310509F0912CD50119962D91A7
:102EC0003D914D915C911C972F5F3F4F4F4F5F4F4E
:102ED00029873A874B875C87730162011D821E82B6
:102EE0001F821886F50181859285A385B4850D81A1
:102EF0001E812F813885081719072A073B0708F01C
:102F000054C029853A854B855C852C153D054E05B9
:102F10005F0550F4A2E0CA2ED12CE12CF12CB2E0D6
:102F20004B2E512C612C712C9E012F5F3F4FB7010E
:102F3000A601C501F5DD8823C1F149815A816B8164
:102F40007C81D701C6010196A11DB11D452B462BE1
:102F5000472B19F02C013D010FC0AC01BD014419F4
:102F60005509660977090D851E852F853889401713
:102F700051076207730779F02D813E814F81588593
:102F80002F5F3F4F4F4F5F4F2D833E834F835887B7
:102F90006C017D01A7CF0FEF1FEF2FEF3FE0B701CF
:102FA000A601C501AADE811117C080E03FC0D7018C
:102FB000C6010197A109B1098D839E83AF83B887AC
:102FC00097018601AC01BD01C50197DE882369F335
:102FD000CD80DE80EF80F8844C145D046E047F04A5
:102FE00030F3D1014D915D916D917C914115510569
:102FF0006105710599F4F101408251826282738208
:10300000992099F0FFEF4F1A5F0A6F0A7F0AD501E6
:103010004D925D926D927C92139707C0930182014D
:10302000C5016BDE8111E7CFC0CF81E060960FB69E
:10303000F894DEBF0FBECDBFDF91CF911F910F91EE
:10304000FF90EF90DF90CF90BF90AF909F907F90D8
:103050006F905F904F903F902F900895AF92BF92E6
:10306000CF92DF92EF92FF920F931F93CF93DF9354
:1030700000D01F92CDB7DEB75C016A017B0182E010
:1030800090E0A0E0B0E0F50180839183A283B38358
:103090009E012F5F3F4FB701A601C50141DD882387
:1030A00009F100E010E09801B701A601C50125DE95
:1030B0008823C1F0C980DA80EB80FC80F501878924
:1030C000803129F488EF9FEFA0E0B0E004C088EFE2
:1030D0009FEFAFEFBFE0C816D906EA06FB06C0F2C5
:1030E00081E001C080E00F900F900F900F90DF9172
:1030F000CF911F910F91FF90EF90DF90CF90BF90F5
:10310000AF9008958F929F92AF92BF92CF92DF922D
:10311000EF92FF920F931F93CF93DF93EC01142F45
:103120007093640660936306442339F1453010F0D0
:1031300080E0ECC040E060E070E0CB01B7DC8823C9
:10314000B9F320E1129FF0011124ED5EF74F808169
:103150008F7771F784859585A685B7858436910527
:10316000A105B10528F3C084D184E284F384C1149D
:10317000D104E104F10421F4DBCFC12CD12C760180
:1031800040E0C701B60192DC882391F2809170067D
:10319000909171068115924059F63091750633234E
:1031A00039F28091730690917406892B09F4C0CF8F
:1031B00020917206222309F4BBCF3A8B2C831D8603
:1031C00030E041E050E06D85062FCA01062E02C0B6
:1031D000880F991F0A94E2F72817390731F081E028
:1031E000860F8D87683078F3A3CF20917B063091CE
:1031F0007C062115310519F040E050E008C020910F
:10320000890630918A0640918B0650918C062D8359
:103210003E834F83588780917306909174064601D0
:103220005701880E991EA11CB11C8B8A9C8AAD8AFD
:10323000BE8AE0917606F0917706F98FE88FA0912B
:103240007506B0E03CD2680D791D8A1D9B1D6A8F02
:103250007B8F8C8F9D8F15E0EE0FFF1F1A95E1F786
:10326000E150FE4FEF2FFF27E695DC01CB018E0FDB
:103270009F1FA11DB11D8E879F87A88BB98B809042
:103280007806909079068114910419F0A12CB12C44
:1032900008C08090850690908606A0908706B09022
:1032A0008806A7019601281B390B4A0B5B0BDA0134
:1032B000C901880D991DAA1DBB1D04C0B695A7950F
:1032C000979587950A95D2F789879A87AB87BC87A8
:1032D000853F3FE09307A105B10510F48CE014C0D1
:1032E000853F9F4FA105B10510F480E10DC080918D
:1032F000910690919206A0919306B09194068A8FC0
:103300009B8FAC8FBD8F80E28F8B81E0DF91CF915F
:103310001F910F91FF90EF90DF90CF90BF90AF90F3
:103320009F908F900895CF93DF931F92CDB7DEB714
:103330006983DC01ED91FC910280F381E02D41E095
:1033400050E0BE016F5F7F4F19950F90DF91CF91D5
:103350000895CF93DF93EC01898D9A8D009751F0FA
:10336000FC0113821282A9D8E98DFA8D2281338162
:10337000232B31F081E090E09B838A8380E090E012
:10338000DF91CF910895FC01818D928D009711F00E
:103390000C94B8100895CF93DF931F92CDB7DEB78A
:1033A00041E050E0BE016F5F7F4F0E94CE0E01975B
:1033B00019F4898190E002C08FEF9FEF0F90DF91A9
:1033C000CF910895FC01818D928D009709F0E3CF94
:1033D0008FEF9FEF08950F931F93CF93DF938C018F
:1033E000FC01818D928D0097B1F0D5DFEC018F3F0C
:1033F000FFEF9F0799F0F801818D928DFC014285C6
:1034000053856485758541505109610971090E9490
:103410001D10CE0105C080E090E002C08FEF9FEF4D
:10342000DF91CF911F910F910895FC0113821282B9
:1034300048EE53E060E070E0448355836683778311
:1034400083ED94E091838083128E118E148608950B
:10345000DC015996ED91FC915A97309729F06285DD
:1034600073858485958508956FEF7FEFCB0108956F
:10347000DC015996ED91FC915A97309729F06389B8
:10348000748985899689089560E070E0CB0108957C
:10349000CF92DF92EF92FF92CF93DF93EC01898D71
:1034A0009A8D892BC9F0CE01E3DF6B017C01CE013F
:1034B000CFDFA7019601261B370B480B590BDA010A
:1034C000C901811530E89307A105B10538F08FEFE8
:1034D0009FE7A0E0B0E002C080E090E0DF91CF91F4
:1034E000FF90EF90DF90CF9008950F931F93CF93AD
:1034F000DF93EC01462F61E00E94FC0B811102C0BA
:1035000080E01BC08E01045F1F4F41E0BE01C80177
:10351000F9DD882359F0B801CE018A960E941F0E6A
:1035200091E0811101C090E0892F07C040E0BE0109
:10353000C801E8DD882321F3EECFDF91CF911F9101
:103540000F91089510926A0810926B0810926E08FD
:103550001092700882E090E0A0E0B0E080937108E3
:1035600090937208A0937308B0937408109288081F
:1035700010929208109291088BEC94E0909390082E
:1035800080938F081092940808950895CF93CFB731
:10359000F8948091B108811127C0E9ECF1E08491A1
:1035A000E3E8F1E09491E82FF0E0EE0FFF1FE25F17
:1035B000FD4FA591B4918C91892321F461E085E3BD
:1035C0000E94150861E085E30E94DC078CB58061EC
:1035D0008CBD8CB580648CBD61E084E30E94DC0707
:1035E00061E083E30E94DC078091B1088F5F8093E4
:1035F000B108CFBFCF910895991B79E004C0991FFE
:10360000961708F0961B881F7A95C9F7809508953C
:1036100097FB072E16F4009406D077FD08D05DD0F6
:1036200007FC05D03EF4909581959F4F08957095C5
:1036300061957F4F0895A1E21A2EAA1BBB1BFD01C5
:103640000DC0AA1FBB1FEE1FFF1FA217B307E40781
:10365000F50720F0A21BB30BE40BF50B661F771FD9
:10366000881F991F1A9469F76095709580959095B9
:103670009B01AC01BD01CF010895052E97FB16F407
:1036800000940FD057FD05D0D6DF07FC02D046F4DA
:1036900008C050954095309521953F4F4F4F5F4F53
:1036A000089590958095709561957F4F8F4F9F4FAE
:1036B0000895EE0FFF1F0590F491E02D199421D08D
:1036C000A59F900DB49F900DA49F800D911D112476
:1036D00008950790F691E02D1994AA1BBB1B51E1A8
:1036E00007C0AA1FBB1FA617B70710F0A61BB70B72
:1036F000881F991F5A95A9F780959095BC01CD0117
:103700000895A29FB001B39FC001A39F700D811DBA
:103710001124911DB29F700D811D1124911D0895DA
:1037200012E0C2E3D2E000E005C022970109FE01E9
:103730000BBFCFDFC433D10780E00807B1F7F8949F
:02374000FFCFB9
:103742000000B2088000FFFFFFFF706F776E6F6EA0
:103752000043616C6C696E67207468726F7567688C
:103762002047534D204D6F64656D000A496E6974A0
:1037720069616C697A696E6720534420636172647F
:10378200200061742070696E2000696E697469613D
:103792006C697A6174696F6E206661696C65642E0A
:1037A200205468696E677320746F20636865636B69
:1037B2003A002A2069732061206361726420696E75
:1037C2007365727465643F002A20697320796F758E
:1037D2007220776972696E6720636F7272656374B3
:1037E2003F002A2064696420796F75206368616EE6
:1037F200676520746865206368697053656C6563EA
:10380200742070696E20746F206D61746368207912
:103812006F757220736869656C64206F72206D6FBA
:1038220064756C653F00576972696E672069732021
:10383200636F727265637420616E642061206361DC
:1038420072642069732070726573656E742E000A4B
:103852004361726420747970653A200053443100E8
:10386200534432005344484300556E6B6E6F776E7B
:1038720000436F756C64206E6F742066696E6420FD
:1038820046415431362F46415433322070617274AE
:103892006974696F6E2E0A4D616B6520737572656E
:1038A20020796F7527766520666F726D6174746515
:1038B20064207468652063617264000A566F6C75D7
:1038C2006D652074797065206973204641540056F5
:1038D2006F6C756D652073697A65202862797465ED
:1038E20073293A2000566F6C756D652073697A658D
:1038F20020284B6279746573293A2000566F6C75E3
:103902006D652073697A6520284D62797465732923
:103912003A20000A46696C657320666F756E6420F2
:103922006F6E20746865206361726420286E616D19
:10393200652C206461746520616E642073697A6508
:1039420020696E206279746573293A2000496E6994
:103952007469616C697A696E67205344206361728D
:10396200642E2E2E00696E697469616C697A6174C5
:10397200696F6E206661696C656421007772697493
:103982006546696C653A0057726974696E6720749E
:103992006F2000646F6E652E006572726F72206F09
:1039A20070656E696E6720746F2077726974652026
:1039B200007265616446696C653A006572726F7285
:1039C200206F70656E696E6720746F207265616426
:1039D2002000000000007E034105D302EC02DE025B
:1039E2005D0300000000EF040D0A006E616E0069C5
:1039F2006E66006F766600000000006B084105D716
:103A0200084A08BD08EE0800000000F51341050051
:103A12000000009319A919481AE219EB19C31900F9
:00000001FF
