:1000000015C100006FC700009EC70000CDC70000EB
:10001000FCC700000C9436080C9467080C949808F0
:100020000C94C90833C1000031C100002FC1000089
:100030002DC100002BC1000029C1000027C1000014
:1000400025C100000C94BC0B21C100001FC10000A1
:100050001DC100001BC1000019C100000C9405095E
:1000600015C10000A3C50000D7C500000FC10000E6
:100070000DC100000BC1000009C1000007C1000054
:100080000C94E90B03C1000001C10000FFC0000097
:10009000FDC00000FBC00000F9C00000F7C0000078
:1000A000F5C00000F3C000000C94160CEFC0000077
:1000B000EDC00000EBC00000E9C000000C94430C50
:1000C000E5C00000E3C00000E1C00000DFC00000A8
:1000D000DDC00000DBC00000D9C00000D7C00000B8
:1000E000D5C00000200A230A120A160A1C0A5A0A5E
:1000F000270A2B0A310A350A390A3F0A430A470AF6
:100100005A0A4D0A510A550A00000A0B02090C0D41
:100110000E080703040100000000000000000000BA
:1001200000000000000000000000000000000000CF
:10013000000000001211100000000000000000008C
:1001400000000000000000000000000000000102AC
:1001500010202008081020401020408002010201D9
:100160000804020101020408102040808040201091
:1001700008040201800402018040201008040201EA
:100180000804020101020408102040800102040852
:10019000102040800505050507050808080802022B
:1001A00002020A0A08080404040401010101010111
:1001B00001010303030303030303040707070C0CF4
:1001C0000C0C0C0C0C0C02020202060606060606BB
:1001D00006060B0B0B0B0B0B0B0B00002000230078
:1001E000260029002C002F0032000001000003012E
:1001F0000601090100002200250028002B002E0026
:100200003100340002010000050108010B0100006B
:100210002100240027002A002D00300033000101B6
:100220000000040107010A0115033E0611241FBE48
:10023000CFEFD1E2DEBFCDBF00E00CBF12E0A0E007
:10024000B2E0E2E2F0E200E00BBF02C007900D92E4
:10025000AE3DB107D9F724E0AEEDB2E001C01D928A
:10026000A234B207E1F711E0C6E1D1E000E006C038
:1002700021970109802FFE010E94640EC431D1072D
:1002800080E00807A9F7B7D70C940F10B9CECF922A
:10029000DF92EF92FF920F931F93E82FF92F05C083
:1002A000015011092109310961F1908196239417B8
:1002B000B9F305C0015011092109310911F19081EB
:1002C00096239413F7CFC12CD12CE12CF12C0AC02A
:1002D0008FEFC81AD80AE80AF80A0C151D052E0572
:1002E0003F0579F080818623841791F36C2D7D2D55
:1002F0008E2D9F2D1F910F91FF90EF90DF90CF904B
:10030000089560E070E080E090E01F910F91FF9011
:10031000EF90DF90CF900895CF93DF93EC0160E0F2
:1003200088810E94970A82E090E00E94990961E02A
:1003300088810E94970A8AE090E0FBD760E088817C
:100340000E94970A20E432E44FE050E061E08A81A5
:100350000E94C50A0E941E0F20E030E048E652E4E9
:100360000E94850E0E94ED0E072E000C880B990B43
:100370000E94200F20E030E048EC52E40E94AC0FD5
:100380000E94ED0E072E000C880B990B0E94200F87
:1003900020E030E048EC52E40E94850E0E94ED0E11
:1003A000CB0177FF02C080E091E0DF91CF9108950B
:1003B000FC0182819381089564E072E087EF92E00E
:1003C000D2D46AE570E08AEE92E00C94710D6FE091
:1003D00072E087EF92E0C7D462E08FEE92E013D232
:1003E00061E08DEE92E00FD26AE070E080E090E094
:1003F0007BD7E2CF67E172E087EF92E0B4D461E0AF
:100400008FEE92E000D262E08DEE92E0FCD16CE2E1
:1004100071E080E090E068D7CFCF60E272E087EFD4
:1004200092E0A1D464E08FEE92E0EDD162E08DEE37
:1004300092E0E9D16CE271E080E090E055D7BCCF6A
:1004400069E272E087EF92E08ED461E08FEE92E095
:10045000DAD164E08DEE92E0D6D168EC70E080E015
:1004600090E042D7A9CF63E372E087EF92E07BD4BC
:1004700064E08FEE92E0C7D164E08DEE92E0C3C1FC
:10048000CF93DF93EC0168E372E087EF92E060D4F2
:100490004AE050E0BE0187EF92E014D5CB35D1059C
:1004A0003CF061E472E087EF92E052D4B6DF06C020
:1004B00064E672E087EF92E04BD4C2DFDF91CF9128
:1004C000D2CF0F931F93CF93DF9368E872E087EF4B
:1004D00092E049D4C0E0D0E0BE018AEE92E00E94F2
:1004E000710D6CE271E080E090E0FED681EF92E069
:1004F00013DF8C0168E972E087EF92E029D44AE0CB
:1005000050E0BE0187EF92E0D7D460EA72E087EF57
:1005100092E01ED44AE050E0B80187EF92E0D2D4D6
:100520000A30110514F466DF22C080910002909118
:10053000010280179107B4F41093010200930002A6
:10054000D0930302C09302026EEA72E087EF92E05A
:10055000FFD360910202709103024AE050E087EFFE
:1005600092E0B0D4AD96C13ED10509F0B5CF8091EF
:100570000202909103028A35910511F081DF01C0DA
:1005800039DF8AE590E0909303028093020284E1D0
:1005900090E09093010280930002DF91CF911F9130
:1005A0000F910895CF93DF9381EF92E0B5DEEC01D8
:1005B00061EA72E087EF92E0CBD34AE050E0BE01FF
:1005C00087EF92E079D46AEB72E087EF92E0CBD3C9
:1005D00065971CF0DF91CF91FACE45DFDF91CF9187
:1005E00070CF26E040E052EC61E070E087EF92E0EF
:1005F00078D264EB8FEE92E05DD168EC8DEE92E004
:1006000059D169E070E08AEE92E00E94360DD4CEB6
:1006100084EE92E0CDDE8EED92E0CACEC3DFF8DF4D
:1006200062E370E080E090E05FC6E1EFF2E086E137
:1006300090E09183808387E190E09383828342E01E
:1006400064E08FEE92E099D042E062E08DEE92E0BD
:1006500094D08AEE92E00E94700CE4EEF2E01182F7
:1006600010821382128215821482EEEDF2E0118262
:10067000108213821282158214820895CF93DF9321
:1006800060E08CE054D760E088E051D7C7E0D0E06C
:1006900060E084E04CD78091F60290E00C2E02C01E
:1006A000959587950A94E2F780FF02C061E001C04A
:1006B00060E088E03CD761E084E039D7219740F7DB
:1006C00061E08CE0DF91CF9132C7CF93DF93EC01F3
:1006D00061E08CE0F0D661E087E0EDD661E088E093
:1006E000EAD661E084E0E7D61092F602CE01C6DFDA
:1006F00060E087E0DF91CF911AC7E0E8F0E09081F9
:10070000916890838770886080938100109289003F
:100710001092880061E08BE0CEC6E0E9F0E09081C5
:1007200099609083877088608093910010929D00FB
:1007300010929C0061E083E0BEC6E0EAF0E09081A8
:1007400091689083877088608093A1001092A900BF
:100750001092A80061E086E0AEC6E0E9F0E090818A
:1007600091689083877088608093910010929900BF
:100770001092980061E085E09EC6CF93DF93C62F6C
:10078000D42FFC016083418385EF92E09EDFC2306D
:10079000F9F070F4C130A1F58091F602837F809367
:1007A000F60285EF92E06ADF8D2FDF91CF91A5CF22
:1007B000C330D1F0C43021F58091F6028E7B809356
:1007C000F60285EF92E05ADF8D2FDF91CF91C5CFF2
:1007D0008091F6028D7E8093F60285EF92E04EDFE7
:1007E0008D2FDF91CF9199CF8091F6028F758093F5
:1007F000F60285EF92E042DF8D2FDF91CF919DCF02
:10080000DF91CF910895FC018081823049F018F486
:10081000813079F00895833031F0843039F00895D3
:1008200024E031E008C027E035E005C026E030E0F4
:1008300002C023E032E06230A9F0643029F1613077
:10084000C1F581E090E0AC0101C0440F3A95EAF7B0
:100850003091F602432B01C0880F2A95EAF7809564
:10086000842322C081E090E0AC0101C0440F3A959E
:10087000EAF7342F30954091F602342301C0880FF7
:100880002A95EAF7832B10C041E050E0CA0101C06D
:10089000880F3A95EAF701C0440F2A95EAF7842BAE
:1008A00080959091F60289238093F60285EF92E07D
:1008B000E5CE0895FC018081823079F018F4813012
:1008C00031F00895833079F0843099F0089570E024
:1008D0007093890060938800089570E070939D0084
:1008E00060939C00089570E07093A9006093A80045
:1008F000089570E070939900609398000895FC014A
:10090000918D228D892F90E0805C9F4F821B9109F1
:100910008F7399270895FC01918D828D981731F07E
:10092000828DE80FF11D858D90E008958FEF9FEF88
:100930000895FC01918D828D981761F0828DDF0101
:10094000A80FB11D5D968C91928D9F5F9F73928FC2
:1009500090E008958FEF9FEF089585E396E0892B4F
:1009600039F080E090E0892B19F07FD1811125C00A
:1009700080E090E0892B41F080E090E0892B21F02D
:100980000E94000081111CC080E090E0892B41F0A2
:1009900080E090E0892B21F00E940000811113C0BB
:1009A00080E090E0892BA1F080E090E0892B81F03D
:1009B0000E94000081110AC008950E940000D8CF53
:1009C0000E940000E1CF0E940000EACF0C940000DA
:1009D0000895FC01848DDF01A80FB11DA35ABF4FFC
:1009E0002C91848D90E001968F739927848FA6892E
:1009F000B7892C93A089B1898C9180648C93938D55
:100A0000848D981306C00288F389E02D80818F7D44
:100A100080830895EF92FF920F931F93CF93DF93FC
:100A2000EC0181E0888F9B8D8C8D981305C0E8893F
:100A3000F989808185FD23C0F62E0B8D10E00F5FB4
:100A40001F4F0F731127E02E8C8DE8120BC00FB6CD
:100A500007FCFACFE889F989808185FFF5CFCE01BF
:100A6000B8DFF2CF8B8DFE01E80FF11DE35AFF4F87
:100A7000F0820B8FEA89FB898081806207C0EE8952
:100A8000FF896083E889F98980818064808381E0BF
:100A900090E0DF91CF911F910F91FF90EF9008951B
:100AA000CF93DF93EC01888D8823C1F0EA89FB891D
:100AB000808185FD05C0A889B9898C9186FD0EC00D
:100AC0000FB607FCF5CF808185FFF2CFA889B989E1
:100AD0008C9185FFEDCFCE017CDFE8CFDF91CF9108
:100AE0000895CF92DF92EF92FF921F93CF93DF93FF
:100AF000EC016A017B01122FE889F98982E0808389
:100B00004115514E61057105B1F060E079E08DE36A
:100B100090E0A70196010E94260EDA01C901019713
:100B2000A109B109B695A795979587959C012115BF
:100B300080E13807A8F0E889F989108260E874E854
:100B40008EE190E0A70196010E94260EDA01C9010C
:100B50000197A109B109B695A795979587959C012D
:100B6000EC85FD853083EE85FF852083188EEC892A
:100B7000FD891083EA89FB89808180618083EA890D
:100B8000FB89808188608083EA89FB898081806815
:100B90008083EA89FB8980818F7D8083DF91CF917B
:100BA0001F91FF90EF90DF90CF9008951F920F92CA
:100BB0000FB60F9211240BB60F922F938F939F9322
:100BC000EF93FF93E0910703F09108038081E09198
:100BD0000D03F0910E0382FD12C0908180911003ED
:100BE0008F5F8F7320911103821751F0E0911003F2
:100BF000F0E0E950FD4F958F8093100301C0808194
:100C0000FF91EF919F918F912F910F900BBE0F90BD
:100C10000FBE0F901F9018951F920F920FB60F9254
:100C200011240BB60F922F933F934F935F936F93C3
:100C30007F938F939F93AF93BF93EF93FF9387EF30
:100C400092E0C7DEFF91EF91BF91AF919F918F919D
:100C50007F916F915F914F913F912F910F900BBEBC
:100C60000F900FBE0F901F90189587EF92E047DE10
:100C700021E0892B09F420E0822F0895E7EFF2E0CC
:100C80001382128288EE93E0A0E0B0E08483958323
:100C9000A683B78381EC92E09183808385EC90E01A
:100CA0009587848784EC90E09787868780EC90E036
:100CB000918B808B81EC90E0938B828B82EC90E027
:100CC000958B848B86EC90E0978B868B118E128EA1
:100CD000138E148E0895CF92DF92EF92FF920F93AE
:100CE0001F93CF93DF936C01EB017B01E40EF51EA4
:100CF00000E010E0CE15DF0561F06991D601ED91BD
:100D0000FC910190F081E02DC6011995080F191F83
:100D1000F1CFC801DF91CF911F910F91FF90EF901C
:100D2000DF90CF9008956115710579F0FB01019076
:100D30000020E9F73197AF01461B570BDC01ED911D
:100D4000FC910280F381E02D199480E090E00895F9
:100D5000EACFDC01ED91FC910190F081E02D199436
:100D60006DEC72E0E0CF0F931F93CF93DF93EC0114
:100D7000DADF8C01CE01F4DF800F911FDF91CF917C
:100D80001F910F9108958F929F92AF92BF92CF9231
:100D9000DF92EF92FF920F931F93CF93DF93CDB724
:100DA000DEB7A1970FB6F894DEBF0FBECDBF6C01C2
:100DB000142FE52FCB01022F19A2223008F40AE0EC
:100DC0007E0121E2E20EF11C802E912CA12CB12C8F
:100DD000612F7E2FA501940139D7029F101911248C
:100DE00081E0E81AF1081A3014F4105D01C0195CB2
:100DF000F7011083122FE32FCA01232B242B252B5D
:100E000039F7B701C6018FDFA1960FB6F894DEBFA0
:100E10000FBECDBFDF91CF911F910F91FF90EF904B
:100E2000DF90CF90BF90AF909F908F900895CF921A
:100E3000DF92EF92FF920F931F93CF93DF932115D1
:100E4000310581F4DC01ED91FC910190F081E02D00
:100E5000642FDF91CF911F910F91FF90EF90DF9062
:100E6000CF9019942A303105F1F477FF1BC06A0145
:100E70007B01EC016DE26DDF8C0144275527BA013F
:100E80004C195D096E097F092AE0CE017CDF800FD5
:100E9000911FDF91CF911F910F91FF90EF90DF9005
:100EA000CF9008952AE0DF91CF911F910F91FF908D
:100EB000EF90DF90CF9067CF9A01AB01770F660B71
:100EC000770BB5CF0F931F93CF93DF93EC01F4DF34
:100ED0008C01CE0145DF800F911FDF91CF911F91D3
:100EE0000F9108951F920F920FB60F9211240BB617
:100EF0000F922F933F934F935F936F937F938F93B3
:100F00009F93AF93BF93EF93FF938091980390913A
:100F10009903892B29F0E0919803F0919903199591
:100F2000FF91EF91BF91AF919F918F917F916F91C1
:100F30005F914F913F912F910F900BBE0F900FBE7D
:100F40000F901F9018951F920F920FB60F921124B9
:100F50000BB60F922F933F934F935F936F937F93B3
:100F60008F939F93AF93BF93EF93FF9380919A03D7
:100F700090919B03892B29F0E0919A03F0919B03B8
:100F80001995FF91EF91BF91AF919F918F917F91B3
:100F90006F915F914F913F912F910F900BBE0F90EA
:100FA0000FBE0F901F9018951F920F920FB60F92C1
:100FB00011240BB60F922F933F934F935F936F9330
:100FC0007F938F939F93AF93BF93EF93FF93809102
:100FD0009C0390919D03892B29F0E0919C03F09153
:100FE0009D031995FF91EF91BF91AF919F918F91C3
:100FF0007F916F915F914F913F912F910F900BBE19
:101000000F900FBE0F901F9018951F920F920FB662
:101010000F9211240BB60F922F933F934F935F9330
:101020006F937F938F939F93AF93BF93EF93FF93B0
:1010300080919E0390919F03892B29F0E0919E035C
:10104000F0919F031995FF91EF91BF91AF919F91FF
:101050008F917F916F915F914F913F912F910F9061
:101060000BBE0F900FBE0F901F9018951F920F92FE
:101070000FB60F9211240BB60F922F933F934F93FD
:101080005F936F937F938F939F93AF93BF93EF93F0
:10109000FF938091940390919503892B29F0E0911F
:1010A0009403F09195031995FF91EF91BF91AF9142
:1010B0009F918F917F916F915F914F913F912F9170
:1010C0000F900BBE0F900FBE0F901F9018951F92A0
:1010D0000F920FB60F9211240BB60F922F933F93DE
:1010E0004F935F936F937F938F939F93AF93BF9330
:1010F000EF93FF938091960390919703892B29F0AA
:10110000E0919603F09197031995FF91EF91BF91AC
:10111000AF919F918F917F916F915F914F913F918F
:101120002F910F900BBE0F900FBE0F901F90189530
:101130001F920F920FB60F9211240BB60F922F939E
:101140003F934F935F936F937F938F939F93AF934F
:10115000BF93EF93FF938091A0039091A103892BFC
:1011600029F0E091A003F091A1031995FF91EF916F
:10117000BF91AF919F918F917F916F915F914F91AF
:101180003F912F910F900BBE0F900FBE0F901F90AD
:1011900018951F920F920FB60F9211240BB60F9253
:1011A0002F933F934F935F936F937F938F939F936F
:1011B000AF93BF93EF93FF938091A2039091A3030A
:1011C000892B29F0E091A203F091A3031995FF91D7
:1011D000EF91BF91AF919F918F917F916F915F91AF
:1011E0004F913F912F910F900BBE0F900FBE0F901C
:1011F0001F9018950895A8D0FDDFF3D9CDEAD4E06B
:101200000DDA2097E9F3A9DBFBCF1F920F920FB6FF
:101210000F9211242F933F938F939F93AF93BF937C
:101220008091A5039091A603A091A703B091A80374
:101230003091A40323E0230F2D3720F40196A11D44
:10124000B11D05C026E8230F0296A11DB11D2093F4
:10125000A4038093A5039093A603A093A703B09340
:10126000A8038091A9039091AA03A091AB03B09128
:10127000AC030196A11DB11D8093A9039093AA030D
:10128000A093AB03B093AC03BF91AF919F918F91AB
:101290003F912F910F900FBE0F901F9018953FB761
:1012A000F8948091A9039091AA03A091AB03B09107
:1012B000AC0326B5A89B05C02F3F19F00196A11DD0
:1012C000B11D3FBFBA2FA92F982F8827820F911DDC
:1012D000A11DB11DBC01CD0142E0660F771F881F23
:1012E000991F4A95D1F70895CF92DF92EF92FF921E
:1012F000CF93DF936B017C01D2DFEB01C114D104EA
:10130000E104F10479F086D4CADF6C1B7D0B683EE2
:101310007340A0F381E0C81AD108E108F108C85170
:10132000DC4FECCFDF91CF91FF90EF90DF90CF902B
:1013300008958230910538F0880F991F880F991F02
:1013400005970197F1F70895789484B5826084BD7C
:1013500084B5816084BD85B5826085BD85B58160B9
:1013600085BDEEE6F0E0808181608083E1E8F0E019
:101370001082808182608083808181608083E0E848
:10138000F0E0808181608083E1EBF0E08081846027
:101390008083E0EBF0E0808181608083E1E9F0E030
:1013A000808182608083808181608083E0E9F0E0D9
:1013B000808181608083E1EAF0E0808182608083C7
:1013C000808181608083E0EAF0E0808181608083B9
:1013D000E1E2F1E0808182608083808181608083AE
:1013E000E0E2F1E0808181608083EAE7F0E08081E3
:1013F000846080838081826080838081816080833B
:101400008081806880831092C100089590E0FC0183
:101410003197E231F10508F04DC08827EE58FF4FB3
:101420008F4F52C4809180008F7703C080918000DD
:101430008F7D80938000089580918000877FF9CF11
:1014400084B58F7702C084B58F7D84BD0895809167
:10145000B0008F7703C08091B0008F7D8093B00083
:101460000895809190008F7707C0809190008F7DC4
:1014700003C080919000877F8093900008958091B1
:10148000A0008F7707C08091A0008F7D03C080915E
:10149000A000877F8093A0000895809120018F771E
:1014A00007C0809120018F7D03C080912001877F3C
:1014B000809320010895CF93DF9390E0FC01E25BDD
:1014C000FE4F2491FC01EC56FE4F8491882361F17C
:1014D00090E0880F991FFC01E25FFD4FC591D49108
:1014E000FC01EC50FE4FA591B491611109C09FB76A
:1014F000F8948881209582238883EC912E230BC059
:10150000623061F49FB7F8948881322F309583233D
:101510008883EC912E2B2C939FBF06C08FB7F89435
:10152000E8812E2B28838FBFDF91CF9108951F93E1
:10153000CF93DF93282F30E0F901E85FFE4F8491CD
:10154000F901E25BFE4FD491F901EC56FE4FC491D4
:10155000CC23B9F0162F811159DFEC2FF0E0EE0FFC
:10156000FF1FEC50FE4FA591B4919FB7F894111155
:1015700004C08C91D095D82302C0EC91DE2BDC9373
:101580009FBFDF91CF911F9108950F931F9390E01C
:10159000FC01E25BFE4F7491FC01EC56FE4FE491BE
:1015A000662311F0672F01C060E0F0E0EE0FFF1F2F
:1015B000E652FE4F8591949189019A013F70462F22
:1015C000672F0E944701611571058105910549F05A
:1015D000DC01CB010196A11DB11DBC01CD019F70A5
:1015E00003C060E070E0CB011F910F910895CF928E
:1015F000DF92EF92FF920F931F93CF93DF936C01D3
:101600008B017A01EC01C255DC4F888187FF04C051
:10161000FB011182108224C02CE02C9DC0012D9D65
:10162000900D11242881AC01420F511D27FD5A95C0
:101630002091AD0330E04217530794F42881AC01A8
:10164000420F511D27FD5A959A01FA01EE0FFF1F17
:101650002E0F3F1FF901EE54FC4F208126FD19C0CB
:1016600088818F5F88832CE02C9DC0012D9D900D7B
:1016700011242881AC01420F511D27FD5A9520915C
:10168000AD0330E042175307B4F428812C303CF10D
:1016900012C02881820F911D27FD9A95FC01EE0F43
:1016A000FF1F8E0F9F1FFC01EE54FC4F808160E0F6
:1016B0008F733DDFD5CFF80180819181049680340E
:1016C0009C4918F480E49CE904C0F8018081918170
:1016D0000496F701918380838FEF888344C0F801DB
:1016E000408151812881BC01620F711D27FD7A95CF
:1016F0009B01FB01EE0FFF1F2E0F3F1FF901EE5460
:10170000FC4F21813281240F351FF7013183208363
:101710002881AC01420F511D27FD5A959A01FA010B
:10172000EE0FFF1F2E0F3F1FF901EE54FC4F2081DB
:1017300026FF19C02881820F911D27FD9A95FC0173
:10174000EE0FFF1F8E0F9F1FFC01EE54FC4F808198
:1017500061E08F73DF91CF911F910F91FF90EF9018
:10176000DF90CF90E4CEDF91CF911F910F91FF904A
:10177000EF90DF90CF9008951F920F920FB60F92C7
:1017800011240BB60F922F933F934F935F936F9358
:101790007F938F939F93AF93BF93EF93FF9348E80B
:1017A00050E064E870E081E090E021DFFF91EF918C
:1017B000BF91AF919F918F917F916F915F914F9169
:1017C0003F912F910F900BBE0F900FBE0F901F9067
:1017D00018951F920F920FB60F9211240BB60F920D
:1017E0002F933F934F935F936F937F938F939F9329
:1017F000AF93BF93EF93FF9348E950E064E970E043
:1018000082E090E0F4DEFF91EF91BF91AF919F9164
:101810008F917F916F915F914F913F912F910F9099
:101820000BBE0F900FBE0F901F9018951F920F9236
:101830000FB60F9211240BB60F922F933F934F9335
:101840005F936F937F938F939F93AF93BF93EF9328
:10185000FF9348EA50E064EA70E083E090E0C7DE7E
:10186000FF91EF91BF91AF919F918F917F916F9178
:101870005F914F913F912F910F900BBE0F900FBE34
:101880000F901F9018951F920F920FB60F92112470
:101890000BB60F922F933F934F935F936F937F936A
:1018A0008F939F93AF93BF93EF93FF9348E251E0E1
:1018B00064E271E080E090E09ADEFF91EF91BF91E9
:1018C000AF919F918F917F916F915F914F913F91D8
:1018D0002F910F900BBE0F900FBE0F901F90189579
:1018E000FC019091AD039033A0F481E0890F8093C7
:1018F000AD039083892F90E0FC01EE0FFF1F8E0F48
:101900009F1FFC01EE54FC4F88EB9BE09283818388
:1019100008958FEF80830895DF92EF92FF920F93E7
:101920001F93CF93DF93EC01D62E7A018901888132
:10193000803308F066C061E08D2DBDDD8881E82F21
:10194000F0E09F01220F331FE20FF31FEE54FC4F14
:101950009D2D9F732081207CD22ED92AD08220E217
:1019600032E02E193F0937FF02C02D5F3F4F3595FA
:10197000279535952795298320E639E0201B310BE3
:1019800037FF02C02D5F3F4F359527953595279539
:101990002A836CE04FD19CE0899FB001112440E084
:1019A00050E09B01240F351FF901EE0FFF1F2E0F92
:1019B0003F1FF901EE54FC4F908196FD16C04F5F1A
:1019C0005F4F4C30510569F7813021F5109280004E
:1019D00082E0809381001092850010928400B19A79
:1019E00080916F00826080936F00E881F0E0CF010A
:1019F000880F991FE80FF91FEE54FC4F8081806417
:101A000080838881DF91CF911F910F91FF90EF909C
:101A1000DF900895823061F41092900080939100DD
:101A2000109295001092940088BB80937100DDCFD6
:101A3000833069F41092A00082E08093A10010929C
:101A4000A5001092A40089BB80937200CECF8111B3
:101A5000CCCF1092200182E08093210110922501C9
:101A6000109224018ABB80937300BFCF20E639E037
:101A700040E252E051CFFC019081903388F58181A2
:101A800028E830E0281B310987FD3395220F331FEA
:101A9000220F331F6217730784F0828148E552E0FA
:101AA000481B510987FD5395440F551F440F551F7F
:101AB0009B01461757070CF49A0122503109220F57
:101AC000331F4FB7F894892F90E0FC01EE0FFF1FF2
:101AD0008E0F9F1FFC01EE54FC4F328321834FBFBA
:101AE0000895AF92BF92CF92DF92EF92FF920F9341
:101AF0001F93CF93DF93EC01603282E078070CF004
:101B00003EC077FD06C0653B71052CF064EB70E0CC
:101B100002C060E070E0898128E830E05901A81A2D
:101B2000B10887FDB394AA0CBB1CAA0CBB1C0B2CE0
:101B3000000CCC08DD08072E000C880B990B2A81BD
:101B400008E512E0021B110927FD1395000F111F74
:101B5000000F111F012E000C220B330B3F932F930C
:101B60001F930F9314EBE12EF12C00E010E020E026
:101B700030E0A90110D00F900F900F900F90CE0180
:101B8000DF91CF911F910F91FF90EF90DF90CF9059
:101B9000BF90AF9070CF4F925F926F927F92AF9253
:101BA000BF92CF92DF92EF92FF920F931F93CF934A
:101BB000DF93CDB7DEB729013A019B01AC012419AF
:101BC0003509460957098A899B89AC89BD89BC01B9
:101BD000CD016A197B098C099D091DD0A8019701C7
:101BE000241935094609570953D0CA01B9016A0DAC
:101BF0007B1D8C1D9D1DDF91CF911F910F91FF903B
:101C0000EF90DF90CF90BF90AF907F906F905F90FC
:101C10004F9008950895DB018F939F936CD0BF91EF
:101C2000AF91A29F800D911DA39F900DB29F900D2B
:101C300011240895991B79E004C0991F961708F0A4
:101C4000961B881F7A95C9F780950895A1E21A2EF0
:101C5000AA1BBB1BFD010DC0AA1FBB1FEE1FFF1F50
:101C6000A217B307E407F50720F0A21BB30BE40BA0
:101C7000F50B661F771F881F991F1A9469F76095E7
:101C80007095809590959B01AC01BD01CF010895A1
:101C9000052E97FB16F400940FD057FD05D0D6DF24
:101CA00007FC02D046F408C0509540953095219528
:101CB0003F4F4F4F5F4F0895909580957095619578
:101CC0007F4F8F4F9F4F0895EE0FFF1F881F8BBFD1
:101CD0000790F691E02D1994A29FB001B39FC00127
:101CE000A39F700D811D1124911DB29F700D811D48
:101CF0001124911D0895F0DFA59F900DB49F900DC4
:101D0000A49F800D911D112408950CD0EBC0E3D049
:101D100040F0DAD030F021F45F3F19F0CCC051111F
:101D200015C1CFC0F0D098F39923C9F35523B1F36F
:101D3000951B550BBB27AA2762177307840738F03A
:101D40009F5F5F4F220F331F441FAA1FA9F333D099
:101D50000E2E3AF0E0E830D091505040E695001C4D
:101D6000CAF729D0FE2F27D0660F771F881FBB1F09
:101D7000261737074807AB07B0E809F0BB0B802DE3
:101D8000BF01FF2793585F4F2AF09E3F510568F02F
:101D900092C0DCC05F3FECF3983EDCF3869577950C
:101DA0006795B795F7959F5FC9F7880F911D969531
:101DB000879597F90895E1E0660F771F881FBB1F8D
:101DC000621773078407BA0720F0621B730B840B3A
:101DD000BA0BEE1F88F7E095089504D06894B1110E
:101DE000B5C0089598D088F09F5790F0B92F9927E3
:101DF000B751A0F0D1F0660F771F881F991F1AF016
:101E0000BA95C9F712C0B13081F09FD0B1E0089502
:101E10009CC0672F782F8827B85F39F0B93FCCF383
:101E2000869577956795B395D9F73EF4909580950B
:101E3000709561957F4F8F4F9F4F0895E89409C02B
:101E400097FB3EF490958095709561957F4F8F4FED
:101E50009F4F9923A9F0F92F96E9BB279395F69503
:101E6000879577956795B795F111F8CFFAF4BB0F81
:101E700011F460FF1BC06F5F7F4F8F4F9F4F16C0E5
:101E8000882311F096E911C0772321F09EE8872F6F
:101E9000762F05C0662371F096E8862F70E060E02B
:101EA0002AF09A95660F771F881FDAF7880F9695A4
:101EB000879597F9089597F99F6780E870E060E04B
:101EC00008959FEF80EC089500240A9416161706D3
:101ED00018060906089500240A941216130614061B
:101EE00005060895092E0394000C11F4882352F07E
:101EF000BB0F40F4BF2B11F460FF04C06F5F7F4F36
:101F00008F4F9F4F089557FD9058440F551F59F01C
:101F10005F3F71F04795880F97FB991F61F09F3FD6
:101F200079F087950895121613061406551FF2CFFF
:101F30004695F1DF08C0161617061806991FF1CF4F
:101F400086957105610508940895E894BB27662776
:101F50007727CB0197F908950BD0C4CFB5DF28F0D0
:101F6000BADF18F0952309F0A6CFABCF1124EECF3E
:101F7000CADFA0F3959FD1F3950F50E0551F629FE4
:101F8000F001729FBB27F00DB11D639FAA27F00DD2
:101F9000B11DAA1F649F6627B00DA11D661F829FF9
:101FA0002227B00DA11D621F739FB00DA11D621FDE
:101FB000839FA00D611D221F749F3327A00D611DFB
:101FC000231F849F600D211D822F762F6A2F1124DD
:101FD0009F5750408AF0E1F088234AF0EE0FFF1F30
:101FE000BB1F661F771F881F91505040A9F79E3F67
:101FF000510570F060CFAACF5F3FECF3983EDCF361
:10200000869577956795B795F795E7959F5FC1F7A3
:10201000FE2B880F911D9695879597F90895F89452
:02202000FFCFF0
:1020220014005A00736572766F52657365740066A8
:102032006F7277617264006261636B7761726400D0
:102042007475726E4C656674007475726E5269674F
:1020520068740073746F7000746F207475726E20F0
:10206200007475726E2064656C61792074696D65A7
:1020720020697320626967676572207468616E20E7
:10208200393020007475726E2064656C6179207439
:10209200696D6520697320736D616C6C6572207463
:1020A20068616E20393020006368616E676544693B
:1020B20072656374696F6E00706F732069732000BC
:1020C2002064697374616E6365206973200074759E
:1020D200726E506F732069732000636D0000000000
:1020E200000A056B067F0499048B0450050D0A0053
:0E20F2006E616E00696E66006F7666002E00ED
:00000001FF
