:1000000072C000009FC000009DC000009BC00000A7
:1000100099C0000097C0000095C0000093C0000088
:1000200091C000008FC000008DC000008BC0000098
:1000300089C0000087C0000085C0000083C00000A8
:1000400081C000007FC000007DC000007BC00000B8
:1000500079C0000077C0000075C0000007C4000030
:1000600071C000006AC200009EC200006BC00000A8
:1000700069C0000067C0000065C0000063C00000E8
:1000800061C000005FC000005DC000005BC00000F8
:1000900059C0000057C0000055C0000053C0000008
:1000A00051C000004FC000004DC000004BC0000018
:1000B00049C0000047C0000045C0000043C0000028
:1000C00041C000003FC000003DC000003BC0000038
:1000D00039C0000037C0000035C0000033C0000048
:1000E00031C00000050311241FBECFEFD1E2DEBFF7
:1000F000CDBF00E00CBF12E0A0E0B2E0E8EAF4E11E
:1001000000E00BBF02C007900D92AC33B107D9F7E6
:1001100022E0ACE3B2E001C01D92A63EB207E1F7D7
:1001200010E0C3E7D0E000E005C021970109802F6F
:10013000FE01B5D4C237D10780E00807B1F78CD3F0
:100140000C94520A5DCFCF93DF93CDB7DEB72897DB
:100150000FB6F894DEBF0FBECDBF9A8389837C8330
:100160006B835E834D8338872F832F8138854D8144
:100170005E816B817C8189819A813FD300002896C2
:100180000FB6F894DEBF0FBECDBFDF91CF910895BB
:10019000CF93DF9300D000D0CDB7DEB79A838983A9
:1001A0004B835C836D837E838B819C81AD81BE811B
:1001B000E981FA8126E0AC01BD01CF015BD10000ED
:1001C00026960FB6F894DEBF0FBECDBFDF91CF915C
:1001D0000895CF93DF93CDB7DEB740E052EC61E0F6
:1001E00070E08CE392E0D4DF0000DF91CF910895BE
:1001F000CF93DF93CDB7DEB72E970FB6F894DEBF5F
:100200000FBECDBF86E092E09A838983CE0105962A
:100210006CE072E0DED28AE793E09C838B83BE01C0
:10022000655F7F4FCE01059620E030E044E050E06E
:100230008ADFCE010B96BC018CE392E053D28C8115
:100240008F938B818F9387E192E0892F8F9387E142
:1002500092E08F93CE010B96292F2F938F9347D641
:100260000F900F900F900F900F900F9068E873E130
:1002700080E090E06AD3CE01059644D200002E962D
:100280000FB6F894DEBF0FBECDBFDF91CF910895BA
:10029000FC01918D228D892F90E0805C9F4F821B05
:1002A00091098F7399270895FC01918D828D98177C
:1002B00031F0828DE80FF11D858D90E008958FEF6C
:1002C0009FEF0895FC01918D828D981761F0828DCA
:1002D000DF01A80FB11D5D968C91928D9F5F9F737A
:1002E000928F90E008958FEF9FEF08958CEF92E04A
:1002F000892B39F080E090E0892B19F07DD18111B4
:1003000025C080E090E0892B41F080E090E0892BCF
:1003100021F00E94000081111CC080E090E0892B38
:1003200041F080E090E0892B21F00E9400008111D3
:1003300013C080E090E0892BA1F080E090E0892B51
:1003400081F00E94000081110AC008950E940000FF
:10035000D8CF0E940000E1CF0E940000EACF0C94A9
:1003600000000895FC01848DDF01A80FB11DA35A80
:10037000BF4F2C91848D90E001968F739927848FC5
:10038000A689B7892C93A089B1898C9180648C93BC
:10039000938D848D981306C00288F389E02D8081A7
:1003A0008F7D80830895EF92FF920F931F93CF93D9
:1003B000DF93EC0181E0888F9B8D8C8D981305C0B5
:1003C000E889F989808185FD23C0F62E0B8D10E028
:1003D0000F5F1F4F0F731127E02E8C8DE8120BC09B
:1003E0000FB607FCFACFE889F989808185FFF5CF40
:1003F000CE01B8DFF2CF8B8DFE01E80FF11DE35A7D
:10040000FF4FF0820B8FEA89FB898081806207C0F1
:10041000EE89FF896083E889F9898081806480831F
:1004200081E090E0DF91CF911F910F91FF90EF90CD
:100430000895CF93DF93EC01888D8823C1F0EA897A
:10044000FB89808185FD05C0A889B9898C9186FDCD
:100450000EC00FB607FCF5CF808185FFF2CFA889CB
:10046000B9898C9185FFEDCFCE017CDFE8CFDF919C
:10047000CF910895CF92DF92EF92FF921F93CF9387
:10048000DF93EC016A017B01122FE889F98982E090
:1004900080834115514E61057105A9F060E079E056
:1004A0008DE390E0A7019601D8D2DA01C901019746
:1004B000A109B109B695A795979587959C01211536
:1004C00080E13807A0F0E889F989108260E874E8D3
:1004D0008EE190E0A7019601C0D2DA01C90101972F
:1004E000A109B109B695A795979587959C01EC85CB
:1004F000FD853083EE85FF852083188EEC89FD898C
:100500001083EA89FB89808180618083EA89FB8985
:10051000808188608083EA89FB898081806880830C
:10052000EA89FB8980818F7D8083DF91CF911F9144
:10053000FF90EF90DF90CF9008951F920F920FB62B
:100540000F9211240BB60F922F938F939F93EF93DB
:10055000FF93E0914C02F0914D028081E0915202B4
:10056000F091530282FD12C09081809155028F5FFD
:100570008F7320915602821751F0E0915502F0E0FE
:10058000E45CFD4F958F8093550201C08081FF91FF
:10059000EF919F918F912F910F900BBE0F900FBEF7
:1005A0000F901F9018951F920F920FB60F92112463
:1005B0000BB60F922F933F934F935F936F937F935D
:1005C0008F939F93AF93BF93EF93FF938CE392E04E
:1005D000C9DEFF91EF91BF91AF919F918F917F9174
:1005E0006F915F914F913F912F910F900BBE0F90A4
:1005F0000FBE0F901F9018958CE392E049DE21E02A
:10060000892B09F420E0822F0895ECE3F2E01382B5
:10061000128288EE93E0A0E0B0E084839583A68305
:10062000B7838EE192E09183808385EC90E095879B
:10063000848784EC90E09787868780EC90E0918BAC
:10064000808B81EC90E0938B828B82EC90E0958B99
:10065000848B86EC90E0978B868B118E128E138E96
:10066000148E0895CF92DF92EF92FF920F931F9313
:10067000CF93DF936C01EB017B01E40EF51E00E0EC
:1006800010E0CE15DF0561F06991D601ED91FC9186
:100690000190F081E02DC6011995080F191FF1CFC7
:1006A000C801DF91CF911F910F91FF90EF90DF90E4
:1006B000CF9008956115710579F0FB01019000203C
:1006C000E9F73197AF01461B570BDC01ED91FC9127
:1006D0000280F381E02D199480E090E008956AE2B1
:1006E00072E0E8CF0F931F93CF93DF93EC01E2DF2B
:1006F0008C01CE01F4DF800F911FDF91CF911F910C
:100700000F910895FC018081918169C2CF93DF939D
:10071000EC0188819981009709F061D219821882D1
:100720001D821C821B821A82DF91CF9108950F9344
:100730001F93CF93DF93EC018B016F5F7F4F888115
:100740009981D6D2009731F0998388831B830A83DD
:1007500081E001C080E0DF91CF911F910F9108955A
:10076000CF93DF93EC0188819981892B29F08A81CD
:100770009B818617970758F4CE01D9DF882341F073
:100780008C819D81892B19F4E881F981108281E0A7
:10079000DF91CF910895EF92FF920F931F93CF9324
:1007A000DF93EC017B018A01BA01DADF811103C01A
:1007B000CE01ACDF06C01D830C83B701888199810F
:1007C00080D3CE01DF91CF911F910F91FF90EF90D9
:1007D0000895FC0111821082138212821582148204
:1007E0006115710549F0FB0101900020E9F731978F
:1007F000AF01461B570BCFCF08950F931F93CF9395
:10080000DF934115510511F161157105F9F0DC0116
:100810001496ED91FC9115972E173F0718F0FB01E8
:10082000108214C0E21BF30BEA012197EC17FD07BD
:1008300008F4EF018B01FC0160817181620F731F6D
:10084000AE01C80145D3C00FD11F1882DF91CF91EF
:100850001F910F91089508959DD0FDDFBADCC6E782
:10086000D1E0C6DC2097E9F341DDFBCF1F920F9268
:100870000FB60F9211242F933F938F939F93AF93B3
:10088000BF938091DA029091DB02A091DC02B091DB
:10089000DD023091D90223E0230F2D3720F4019699
:1008A000A11DB11D05C026E8230F0296A11DB11D93
:1008B0002093D9028093DA029093DB02A093DC02AA
:1008C000B093DD028091DE029091DF02A091E00200
:1008D000B091E1020196A11DB11D8093DE029093BB
:1008E000DF02A093E002B093E102BF91AF919F912C
:1008F0008F913F912F910F900FBE0F901F901895E1
:100900003FB7F8948091DE029091DF02A091E0025F
:10091000B091E10226B5A89B05C02F3F19F00196C2
:10092000A11DB11D3FBFBA2FA92F982F8827820F75
:10093000911DA11DB11DBC01CD0142E0660F771FC5
:10094000881F991F4A95D1F70895CF92DF92EF92B1
:10095000FF92CF93DF936B017C01D2DFEB01C114D7
:10096000D104E104F10479F077D0CADF6C1B7D0B70
:10097000683E7340A0F381E0C81AD108E108F1088D
:10098000C851DC4FECCFDF91CF91FF90EF90DF901B
:10099000CF900895789484B5826084BD84B58160D9
:1009A00084BD85B5826085BD85B5816085BDEEE677
:1009B000F0E0808181608083E1E8F0E01082808156
:1009C00082608083808181608083E0E8F0E08081C4
:1009D00081608083E1EBF0E0808184608083E0EBE4
:1009E000F0E0808181608083E1E9F0E080818260D5
:1009F0008083808181608083E0E9F0E08081816094
:100A00008083E1EAF0E08081826080838081816080
:100A10008083E0EAF0E0808181608083E1E2F1E0C0
:100A2000808182608083808181608083E0E2F1E068
:100A3000808181608083EAE7F0E080818460808348
:100A400080818260808380818160808380818068F2
:100A500080831092C10008950895A1E21A2EAA1B66
:100A6000BB1BFD010DC0AA1FBB1FEE1FFF1FA2175E
:100A7000B307E407F50720F0A21BB30BE40BF50B5B
:100A8000661F771F881F991F1A9469F760957095E4
:100A9000809590959B01AC01BD01CF010895EE0FAB
:100AA000FF1F881F8BBF0790F691E02D19940F93BD
:100AB0001F93CF93DF938230910510F482E090E092
:100AC000E091E402F091E50220E030E0A0E0B0E047
:100AD000309719F1408151810281138148175907DC
:100AE000C8F08417950769F4109731F012960C93AB
:100AF000129713961C9327C00093E4021093E5020B
:100B000022C02115310519F04217530718F49A0134
:100B1000BD01EF01DF01F801DBCF21153105F9F04F
:100B2000281B390B2430310580F48A819B816115A3
:100B3000710521F0FB019383828304C09093E50249
:100B40008093E402FE01329644C0FE01E20FF31FDF
:100B50008193919322503109398328833AC020919F
:100B6000E2023091E302232B41F420910202309102
:100B700003023093E3022093E202209100023091BD
:100B800001022115310541F42DB73EB74091040211
:100B900050910502241B350BE091E202F091E30233
:100BA000E217F307A0F42E1B3F0B2817390778F044
:100BB000AC014E5F5F4F2417350748F04E0F5F1FA3
:100BC0005093E3024093E2028193919302C0E0E0EC
:100BD000F0E0CF01DF91CF911F910F910895CF9356
:100BE000DF93009709F481C0FC01329713821282CF
:100BF000A091E402B091E502109781F42081318147
:100C0000820F931F2091E2023091E30228173907E7
:100C100051F5F093E302E093E20267C0ED0120E0BA
:100C200030E0CE17DF0740F44A815B819E01411519
:100C30005105F1F0EA01F5CFD383C28340815181A0
:100C4000840F951FC817D90759F488819981840F9B
:100C5000951F0296918380838A819B8193838283EF
:100C60002115310529F4F093E502E093E4023DC03B
:100C7000E901FB83EA8349915991C40FD51FEC1711
:100C8000FD0761F480819181840F951F0296E9012F
:100C900099838883828193819B838A83E0E0F0E05B
:100CA00012968D919C911397009719F0FD01DC012C
:100CB000F7CF8D919C9111979D012E5F3F4F820F31
:100CC000931F2091E2023091E3022817390769F45B
:100CD000309729F41092E5021092E40202C01382C8
:100CE0001282B093E302A093E202DF91CF910895C4
:100CF0006F927F928F929F92AF92BF92CF92DF922C
:100D0000EF92FF920F931F93CF93DF93009781F49D
:100D1000CB01DF91CF911F910F91FF90EF90DF906A
:100D2000CF90BF90AF909F908F907F906F90BFCEED
:100D3000FC01E60FF71F9C0122503109E217F3076F
:100D400008F4A5C0EC01D9010D911C91119706176B
:100D50001707A8F00530110508F497C0C8010497DB
:100D60008617970708F491C002501109061B170B4C
:100D7000019311936D937C93CF0131DF86C05B01AA
:100D8000A01AB10A4C01800E911EA091E402B0910C
:100D9000E502612C712CE12CF12C109709F446C06E
:100DA0008D919C911197A815B905B1F56C0142E0A0
:100DB000C40ED11CCA14DB0478F14C018A189B08BC
:100DC000640142E0C40ED11C1296BC901297139697
:100DD000AC91B5E0CB16D10440F0B282A3839182EE
:100DE0008082D9016D937C9309C00E5F1F4F800FE5
:100DF000911FF90191838083EB2DFA2FE114F10407
:100E000031F0D7011396FC93EE9312973EC0F09306
:100E1000E502E093E40239C06816790608F43C0163
:100E20007D0112960D90BC91A02DB7CF8091E2026A
:100E30009091E30288169906E1F466167706C8F4E5
:100E40008091000290910102009741F48DB79EB706
:100E50004091040250910502841B950BE817F90795
:100E6000B0F4F093E302E093E202F901718360834E
:100E70000CC0CB011CDE7C01009749F0A801BE012B
:100E800017D0CE01ACDEC70104C0CE0102C080E0A5
:100E900090E0DF91CF911F910F91FF90EF90DF9045
:100EA000CF90BF90AF909F908F907F906F9008955C
:100EB000FB01DC0102C001900D9241505040D8F777
:100EC0000895FB01DC0101900D920020E1F70895E7
:100ED000FB01DC014150504048F001900D92002090
:100EE000C9F701C01D9241505040E0F708950F939B
:100EF0001F93CF93DF93CDB7DEB72E970FB6F8943D
:100F0000DEBF0FBECDBF0E891F8986E08C831A839A
:100F100009838FEF9FE79E838D83AE01465E5F4F0F
:100F2000688D798DCE01019610D0EF81F885E00FA4
:100F3000F11F10822E960FB6F894DEBF0FBECDBF04
:100F4000DF91CF911F910F9108952F923F924F9271
:100F50005F926F927F928F929F92AF92BF92CF9249
:100F6000DF92EF92FF920F931F93CF93DF93CDB752
:100F7000DEB72B970FB6F894DEBF0FBECDBF6C0166
:100F80007B018A01FC0117821682838181FFBFC128
:100F9000CE0101963C01F6019381F70193FD859105
:100FA00093FF81917F01882309F4ADC1853239F423
:100FB00093FD859193FF81917F01853221F4B601E4
:100FC00090E0D6D1E8CF912C212C312CFFE1F31504
:100FD000D8F08B3279F038F4803279F08332A1F492
:100FE000232D20611DC08D3261F0803369F4232DE3
:100FF000216016C0832D8260382EE32DE4603E2EE2
:101000002AC0F32DF8601DC037FC2DC020ED280F3D
:101010002A3040F08E32B9F436FC75C1232D20649D
:10102000322E19C036FE06C08AE0989E200D11248B
:10103000922E11C0EAE02E9E200D1124222EF32DB7
:10104000F0623F2E08C08C3621F4832D8068382E44
:1010500002C0883641F4F70193FD859193FF819199
:101060007F018111B3CF982F9F7D9554933028F441
:101070000C5F1F4F9FE399830DC0833631F0833798
:1010800071F0833509F055C020C0F8018081898353
:101090000E5F1F4F88248394912C530112C02801A6
:1010A000F2E04F0E511CF801A080B18036FE03C063
:1010B000692D70E002C06FEF7FEFC5014ED14C018A
:1010C0008201F32DFF773F2E15C0280122E0420E4A
:1010D000511CF801A080B18036FE03C0692D70E07C
:1010E00002C06FEF7FEFC5012DD14C01F32DF068E9
:1010F0003F2E820133FC19C0822D90E0881699069C
:10110000A0F4B60180E290E033D12A94F5CFF50146
:1011100037FC859137FE81915F01B60190E028D1BF
:1011200021102A9421E0821A91088114910479F700
:10113000E1C0843611F0893639F5F80137FE07C071
:1011400060817181828193810C5F1F4F08C0608133
:101150007181072E000C880B990B0E5F1F4FF32D2A
:10116000FF763F2E97FF09C0909580957095619509
:101170007F4F8F4F9F4FF0683F2E2AE030E0A30152
:1011800033D1882E861844C0853731F4232D2F7E25
:10119000B22E2AE030E025C0932D997FB92E8F36EC
:1011A000C1F018F4883579F0AEC0803719F088376F
:1011B00021F0A9C0E92FE061BE2EB4FE0DC0FB2DC9
:1011C000F460BF2E09C034FE0AC0292F2660B22E5B
:1011D00006C028E030E005C020E130E002C020E198
:1011E00032E0F801B7FE07C060817181828193818E
:1011F0000C5F1F4F06C06081718180E090E00E5F40
:101200001F4FA301F1D0882E8618FB2DFF773F2EAC
:1012100036FE0DC0232D2E7FA22E891458F434FEE5
:101220000BC032FC09C0832D8E7EA82E05C0B82CC1
:10123000A32C03C0B82C01C0B92CA4FE0FC0FE0122
:10124000E80DF11D8081803321F49A2D997EA92E1D
:1012500009C0A2FE06C0B394B39404C08A2D867858
:1012600009F0B394A3FC10C0A0FE06C0B21480F431
:10127000280C922C9B180DC0B21458F4B60180E2D1
:1012800090E076D0B394F8CFB21418F42B1802C0C3
:10129000982C212CA4FE0FC0B60180E390E068D00A
:1012A000A2FE16C0A1FC03C088E790E002C088E55A
:1012B00090E0B6010CC08A2D867851F0A1FE02C0E4
:1012C0008BE201C080E2A7FC8DE2B60190E050D035
:1012D000891430F4B60180E390E04AD09A94F8CFB4
:1012E0008A94F301E80DF11D8081B60190E040D0B1
:1012F0008110F6CF222009F44ECEB60180E290E0B4
:1013000037D02A94F7CFF6018681978102C08FEFFC
:101310009FEF2B960FB6F894DEBF0FBECDBFDF91C7
:10132000CF911F910F91FF90EF90DF90CF90BF90E2
:10133000AF909F908F907F906F905F904F903F9075
:101340002F900895FC010590615070400110D8F76E
:10135000809590958E0F9F1F0895FC0161507040FD
:1013600001900110D8F7809590958E0F9F1F0895DA
:101370000F931F93CF93DF93FB01238121FD03C0C4
:101380008FEF9FEF2CC022FF16C04681578124812A
:1013900035814217530744F4A081B1819D012F5F2D
:1013A0003F4F318320838C93268137812F5F3F4FBE
:1013B0003783268314C08B01EC01FB010084F18587
:1013C000E02D1995892BE1F6D80116968D919C9107
:1013D0001797019617969C938E931697CE01DF91DF
:1013E000CF911F910F910895FA01AA27283051F14A
:1013F000203181F1E8946F936E7F6E5F7F4F8F4F46
:101400009F4FAF4FB1E03ED0B4E03CD0670F781FA4
:10141000891F9A1FA11D680F791F8A1F911DA11D89
:101420006A0F711D811D911DA11D20D009F46894C2
:101430003F912AE0269F11243019305D3193DEF66A
:10144000CF010895462F4770405D4193B3E00FD020
:10145000C9F7F6CF462F4F70405D4A3318F0495D0B
:1014600031FD4052419302D0A9F7EACFB4E0A695EE
:101470009795879577956795BA95C9F70097610510
:10148000710508959B01AC010A2E06945795479566
:1014900037952795BA95C9F7620F731F841F951F5B
:0814A000A01D0895F894FFCF90
:1014A8000000E60220006164616664003132333472
:1014B8003536373839300025640000000000D30184
:1014C800320348016201540119020D0A006E616E6F
:0C14D80000696E66006F7666002E000052
:00000001FF
